{
  "transactions": [
    {
      "hash": "0x80a2c15e4510910979fa693bff0b47f428f2952012e886b1c3e080c4ff7860e8",
      "transactionType": "CALL",
      "contractName": null,
      "contractAddress": "0x8c50c847524531ff288fb7bbf9882e55da881a30",
      "function": "mint(address,uint256)",
      "arguments": [
        "0xac0A4738d4B004F22F11D4BFd29C9c708F35caf0",
        "10000000000000000000000000000"
      ],
      "transaction": {
        "from": "0xac0a4738d4b004f22f11d4bfd29c9c708f35caf0",
        "to": "0x8c50c847524531ff288fb7bbf9882e55da881a30",
        "gas": "0xb820",
        "value": "0x0",
        "input": "0x40c10f19000000000000000000000000ac0a4738d4b004f22f11d4bfd29c9c708f35caf00000000000000000000000000000000000000000204fce5e3e25026110000000",
        "nonce": "0x2cf",
        "chainId": "0xaa36a7"
      },
      "additionalContracts": [],
      "isFixedGasLimit": false
    },
    {
      "hash": "0xc85d257f496821411437df0535facbcb3e27673ff36d0f0b3210248f0995045e",
      "transactionType": "CALL",
      "contractName": null,
      "contractAddress": "0xe18069faac066353b8706ceeeb711aa7c4340a75",
      "function": "mint(address,uint256)",
      "arguments": [
        "0xac0A4738d4B004F22F11D4BFd29C9c708F35caf0",
        "10000000000000000000000000000"
      ],
      "transaction": {
        "from": "0xac0a4738d4b004f22f11d4bfd29c9c708f35caf0",
        "to": "0xe18069faac066353b8706ceeeb711aa7c4340a75",
        "gas": "0xb820",
        "value": "0x0",
        "input": "0x40c10f19000000000000000000000000ac0a4738d4b004f22f11d4bfd29c9c708f35caf00000000000000000000000000000000000000000204fce5e3e25026110000000",
        "nonce": "0x2d0",
        "chainId": "0xaa36a7"
      },
      "additionalContracts": [],
      "isFixedGasLimit": false
    },
    {
      "hash": "0x12db63a95279913e6025c7acf82e5dd4a303db315eb6cae1a2acb5c10fc4c749",
      "transactionType": "CALL",
      "contractName": null,
      "contractAddress": "0x8c50c847524531ff288fb7bbf9882e55da881a30",
      "function": "transfer(address,uint256)",
      "arguments": [
        "0x0C478023803a644c94c4CE1C1e7b9A087e411B0A",
        "100000000000000000000000000"
      ],
      "transaction": {
        "from": "0xac0a4738d4b004f22f11d4bfd29c9c708f35caf0",
        "to": "0x8c50c847524531ff288fb7bbf9882e55da881a30",
        "gas": "0x114cf",
        "value": "0x0",
        "input": "0xa9059cbb0000000000000000000000000c478023803a644c94c4ce1c1e7b9a087e411b0a00000000000000000000000000000000000000000052b7d2dcc80cd2e4000000",
        "nonce": "0x2d1",
        "chainId": "0xaa36a7"
      },
      "additionalContracts": [],
      "isFixedGasLimit": false
    },
    {
      "hash": "0x1bff223877c62cfc3b51126674d755eda72b787e41ca3cfe2c32a758745296e5",
      "transactionType": "CALL",
      "contractName": null,
      "contractAddress": "0xe18069faac066353b8706ceeeb711aa7c4340a75",
      "function": "transfer(address,uint256)",
      "arguments": [
        "0x0C478023803a644c94c4CE1C1e7b9A087e411B0A",
        "100000000000000000000000000"
      ],
      "transaction": {
        "from": "0xac0a4738d4b004f22f11d4bfd29c9c708f35caf0",
        "to": "0xe18069faac066353b8706ceeeb711aa7c4340a75",
        "gas": "0x114cf",
        "value": "0x0",
        "input": "0xa9059cbb0000000000000000000000000c478023803a644c94c4ce1c1e7b9a087e411b0a00000000000000000000000000000000000000000052b7d2dcc80cd2e4000000",
        "nonce": "0x2d2",
        "chainId": "0xaa36a7"
      },
      "additionalContracts": [],
      "isFixedGasLimit": false
    },
    {
      "hash": "0xa14139b19c61e09b8d55a5f1487c462663a85078a1fad8f16e96d3a5a577f604",
      "transactionType": "CALL",
      "contractName": null,
      "contractAddress": "0x8c50c847524531ff288fb7bbf9882e55da881a30",
      "function": "transfer(address,uint256)",
      "arguments": [
        "0x9B6b46e2c869aa39918Db7f52f5557FE577B6eEe",
        "100000000000000000000000000"
      ],
      "transaction": {
        "from": "0xac0a4738d4b004f22f11d4bfd29c9c708f35caf0",
        "to": "0x8c50c847524531ff288fb7bbf9882e55da881a30",
        "gas": "0x114cf",
        "value": "0x0",
        "input": "0xa9059cbb0000000000000000000000009b6b46e2c869aa39918db7f52f5557fe577b6eee00000000000000000000000000000000000000000052b7d2dcc80cd2e4000000",
        "nonce": "0x2d3",
        "chainId": "0xaa36a7"
      },
      "additionalContracts": [],
      "isFixedGasLimit": false
    },
    {
      "hash": "0xb17635607d3292dfc70a51c81d95cf4c4b32be2c2249d3023b43fb3e877d70df",
      "transactionType": "CALL",
      "contractName": null,
      "contractAddress": "0xe18069faac066353b8706ceeeb711aa7c4340a75",
      "function": "transfer(address,uint256)",
      "arguments": [
        "0x9B6b46e2c869aa39918Db7f52f5557FE577B6eEe",
        "100000000000000000000000000"
      ],
      "transaction": {
        "from": "0xac0a4738d4b004f22f11d4bfd29c9c708f35caf0",
        "to": "0xe18069faac066353b8706ceeeb711aa7c4340a75",
        "gas": "0x114cf",
        "value": "0x0",
        "input": "0xa9059cbb0000000000000000000000009b6b46e2c869aa39918db7f52f5557fe577b6eee00000000000000000000000000000000000000000052b7d2dcc80cd2e4000000",
        "nonce": "0x2d4",
        "chainId": "0xaa36a7"
      },
      "additionalContracts": [],
      "isFixedGasLimit": false
    },
    {
      "hash": "0x9522a0cc04b58b67216de363bc69fde07d3ee3dca0592d7f4df2ed14325d1a26",
      "transactionType": "CALL",
      "contractName": null,
      "contractAddress": "0x0c478023803a644c94c4ce1c1e7b9a087e411b0a",
      "function": "modifyLiquidity((address,address,uint24,int24,address),(int24,int24,int256,bytes32),bytes)",
      "arguments": [
        "(0x8c50C847524531fF288Fb7bBF9882e55dA881a30, 0xE18069fAac066353b8706cEEEB711aA7c4340a75, 3000, 60, 0x5F7CcAE2A24eB9da8BAC46217c9910F3C442ffc0)",
        "(-120, 120, 1000000000000000000000, 0x0000000000000000000000000000000000000000000000000000000000000000)",
        "0x"
      ],
      "transaction": {
        "from": "0xac0a4738d4b004f22f11d4bfd29c9c708f35caf0",
        "to": "0x0c478023803a644c94c4ce1c1e7b9a087e411b0a",
        "gas": "0x4929a",
        "value": "0x0",
        "input": "0x5a6bcfda0000000000000000000000008c50c847524531ff288fb7bbf9882e55da881a30000000000000000000000000e18069faac066353b8706ceeeb711aa7c4340a750000000000000000000000000000000000000000000000000000000000000bb8000000000000000000000000000000000000000000000000000000000000003c0000000000000000000000005f7ccae2a24eb9da8bac46217c9910f3c442ffc0ffffffffffffffffffffffffffffffffffffffffffffffffffffffffffffff88000000000000000000000000000000000000000000000000000000000000007800000000000000000000000000000000000000000000003635c9adc5dea00000000000000000000000000000000000000000000000000000000000000000000000000000000000000000000000000000000000000000000000000000000001400000000000000000000000000000000000000000000000000000000000000000",
        "nonce": "0x2d5",
        "chainId": "0xaa36a7"
      },
      "additionalContracts": [],
      "isFixedGasLimit": false
    },
    {
      "hash": "0xaf6bb3969284d6bc4eae9d54db47ce01ba2c0f6395fbeb8f0b89e8f06f8d365c",
      "transactionType": "CALL",
      "contractName": null,
      "contractAddress": "0x0c478023803a644c94c4ce1c1e7b9a087e411b0a",
      "function": "modifyLiquidity((address,address,uint24,int24,address),(int24,int24,int256,bytes32),bytes)",
      "arguments": [
        "(0x8c50C847524531fF288Fb7bBF9882e55dA881a30, 0xE18069fAac066353b8706cEEEB711aA7c4340a75, 3000, 60, 0x5F7CcAE2A24eB9da8BAC46217c9910F3C442ffc0)",
        "(-120, 120, 1000000000000000000000, 0x027c21407de4614e4a378d71958f0125a6f2dea0fdec9e0b410987cb8ac3449b)",
        "0x"
      ],
      "transaction": {
        "from": "0xac0a4738d4b004f22f11d4bfd29c9c708f35caf0",
        "to": "0x0c478023803a644c94c4ce1c1e7b9a087e411b0a",
        "gas": "0x40879",
        "value": "0x0",
        "input": "0x5a6bcfda0000000000000000000000008c50c847524531ff288fb7bbf9882e55da881a30000000000000000000000000e18069faac066353b8706ceeeb711aa7c4340a750000000000000000000000000000000000000000000000000000000000000bb8000000000000000000000000000000000000000000000000000000000000003c0000000000000000000000005f7ccae2a24eb9da8bac46217c9910f3c442ffc0ffffffffffffffffffffffffffffffffffffffffffffffffffffffffffffff88000000000000000000000000000000000000000000000000000000000000007800000000000000000000000000000000000000000000003635c9adc5dea00000027c21407de4614e4a378d71958f0125a6f2dea0fdec9e0b410987cb8ac3449b00000000000000000000000000000000000000000000000000000000000001400000000000000000000000000000000000000000000000000000000000000000",
        "nonce": "0x2d6",
        "chainId": "0xaa36a7"
      },
      "additionalContracts": [],
      "isFixedGasLimit": false
    },
    {
      "hash": "0x9f94229927f4cfee2b94e1ea22f2835e27944bb447aa71b4605c90644d2e18f8",
      "transactionType": "CALL",
      "contractName": null,
      "contractAddress": "0x0c478023803a644c94c4ce1c1e7b9a087e411b0a",
      "function": "modifyLiquidity((address,address,uint24,int24,address),(int24,int24,int256,bytes32),bytes)",
      "arguments": [
        "(0x8c50C847524531fF288Fb7bBF9882e55dA881a30, 0xE18069fAac066353b8706cEEEB711aA7c4340a75, 3000, 60, 0x5F7CcAE2A24eB9da8BAC46217c9910F3C442ffc0)",
        "(-540, -480, 1000000000000000000000, 0xe644765996a6e79ec459b24062bf12aeb4cb06346a11821db6ceabc1aeb5b9c7)",
        "0x"
      ],
      "transaction": {
        "from": "0xac0a4738d4b004f22f11d4bfd29c9c708f35caf0",
        "to": "0x0c478023803a644c94c4ce1c1e7b9a087e411b0a",
        "gas": "0x34741",
        "value": "0x0",
        "input": "0x5a6bcfda0000000000000000000000008c50c847524531ff288fb7bbf9882e55da881a30000000000000000000000000e18069faac066353b8706ceeeb711aa7c4340a750000000000000000000000000000000000000000000000000000000000000bb8000000000000000000000000000000000000000000000000000000000000003c0000000000000000000000005f7ccae2a24eb9da8bac46217c9910f3c442ffc0fffffffffffffffffffffffffffffffffffffffffffffffffffffffffffffde4fffffffffffffffffffffffffffffffffffffffffffffffffffffffffffffe2000000000000000000000000000000000000000000000003635c9adc5dea00000e644765996a6e79ec459b24062bf12aeb4cb06346a11821db6ceabc1aeb5b9c700000000000000000000000000000000000000000000000000000000000001400000000000000000000000000000000000000000000000000000000000000000",
        "nonce": "0x2d7",
        "chainId": "0xaa36a7"
      },
      "additionalContracts": [],
      "isFixedGasLimit": false
    },
    {
      "hash": "0x99a20cbca0c6636e2c9fed135558054d5da6e43a3f329bb5654cce4c8943cc6a",
      "transactionType": "CALL",
      "contractName": null,
      "contractAddress": "0x9b6b46e2c869aa39918db7f52f5557fe577b6eee",
      "function": "swap((address,address,uint24,int24,address),(bool,int256,uint160),(bool,bool),bytes)",
      "arguments": [
        "(0x8c50C847524531fF288Fb7bBF9882e55dA881a30, 0xE18069fAac066353b8706cEEEB711aA7c4340a75, 3000, 60, 0x5F7CcAE2A24eB9da8BAC46217c9910F3C442ffc0)",
        "(true, 10000000000000000000, 4295128740)",
        "(false, false)",
        "0x"
      ],
      "transaction": {
        "from": "0xac0a4738d4b004f22f11d4bfd29c9c708f35caf0",
        "to": "0x9b6b46e2c869aa39918db7f52f5557fe577b6eee",
        "gas": "0x8f154",
        "value": "0x0",
        "input": "0x2229d0b40000000000000000000000008c50c847524531ff288fb7bbf9882e55da881a30000000000000000000000000e18069faac066353b8706ceeeb711aa7c4340a750000000000000000000000000000000000000000000000000000000000000bb8000000000000000000000000000000000000000000000000000000000000003c0000000000000000000000005f7ccae2a24eb9da8bac46217c9910f3c442ffc000000000000000000000000000000000000000000000000000000000000000010000000000000000000000000000000000000000000000008ac7230489e8000000000000000000000000000000000000000000000000000000000001000276a40000000000000000000000000000000000000000000000000000000000000000000000000000000000000000000000000000000000000000000000000000000000000000000000000000000000000000000000000000000000000000000001600000000000000000000000000000000000000000000000000000000000000000",
        "nonce": "0x2d8",
        "chainId": "0xaa36a7"
      },
      "additionalContracts": [],
      "isFixedGasLimit": false
    }
  ],
  "receipts": [
    {
      "status": "0x1",
      "cumulativeGasUsed": "0x1386ccc",
      "logs": [
        {
          "address": "0x8c50c847524531ff288fb7bbf9882e55da881a30",
          "topics": [
            "0xddf252ad1be2c89b69c2b068fc378daa952ba7f163c4a11628f55a4df523b3ef",
            "0x0000000000000000000000000000000000000000000000000000000000000000",
            "0x000000000000000000000000ac0a4738d4b004f22f11d4bfd29c9c708f35caf0"
          ],
          "data": "0x0000000000000000000000000000000000000000204fce5e3e25026110000000",
          "blockHash": "0xf0361ad470f1c6baaa0519e4963299db606fa687b9fcf5ac4b5e57aa83de5aa5",
          "blockNumber": "0x964e08",
          "blockTimestamp": "0x6940d454",
          "transactionHash": "0x80a2c15e4510910979fa693bff0b47f428f2952012e886b1c3e080c4ff7860e8",
          "transactionIndex": "0x49",
          "logIndex": "0x2a6",
          "removed": false
        }
      ],
      "logsBloom": "0x00000000000000000000000000000000000000000080000000000000000000000000000000000000000000000000000000000000000000000000000000000000000000000002000000000008000000000000000000000000000000000000000000000000020000000000000000000800100000000000000000000010000000000000000000000000000000000000000000000000000000000000000000000200000000000000000000000000000000004000000000000000000000000000000000000002000000000000000000000000000000000000000000000000000020000000000000000000000000000000000000000000000020000000000000000000",
      "type": "0x0",
      "transactionHash": "0x80a2c15e4510910979fa693bff0b47f428f2952012e886b1c3e080c4ff7860e8",
      "transactionIndex": "0x49",
      "blockHash": "0xf0361ad470f1c6baaa0519e4963299db606fa687b9fcf5ac4b5e57aa83de5aa5",
      "blockNumber": "0x964e08",
      "gasUsed": "0x854f",
      "effectiveGasPrice": "0xf492a",
      "from": "0xac0a4738d4b004f22f11d4bfd29c9c708f35caf0",
      "to": "0x8c50c847524531ff288fb7bbf9882e55da881a30",
      "contractAddress": null
    },
    {
      "status": "0x1",
      "cumulativeGasUsed": "0x138f21b",
      "logs": [
        {
          "address": "0xe18069faac066353b8706ceeeb711aa7c4340a75",
          "topics": [
            "0xddf252ad1be2c89b69c2b068fc378daa952ba7f163c4a11628f55a4df523b3ef",
            "0x0000000000000000000000000000000000000000000000000000000000000000",
            "0x000000000000000000000000ac0a4738d4b004f22f11d4bfd29c9c708f35caf0"
          ],
          "data": "0x0000000000000000000000000000000000000000204fce5e3e25026110000000",
          "blockHash": "0xf0361ad470f1c6baaa0519e4963299db606fa687b9fcf5ac4b5e57aa83de5aa5",
          "blockNumber": "0x964e08",
          "blockTimestamp": "0x6940d454",
          "transactionHash": "0xc85d257f496821411437df0535facbcb3e27673ff36d0f0b3210248f0995045e",
          "transactionIndex": "0x4a",
          "logIndex": "0x2a7",
          "removed": false
        }
      ],
      "logsBloom": "0x80000000020000000000000000000000000000000000000000000000000000000000000000000000000000000000000000000000000000000000000000000000000000000000000000000008000000000000000000000000000000000000000000000000020000000000000000000800000000000000000800000010000000000000000000000000000000000000000000000000000000000000000000000200000000000000000000000000000000004000000000000000000000000000000000000002000000000000000000000000000000000000000000000000000020000000000000000000000000000000000000000000000020000000000000000000",
      "type": "0x0",
      "transactionHash": "0xc85d257f496821411437df0535facbcb3e27673ff36d0f0b3210248f0995045e",
      "transactionIndex": "0x4a",
      "blockHash": "0xf0361ad470f1c6baaa0519e4963299db606fa687b9fcf5ac4b5e57aa83de5aa5",
      "blockNumber": "0x964e08",
      "gasUsed": "0x854f",
      "effectiveGasPrice": "0xf492a",
      "from": "0xac0a4738d4b004f22f11d4bfd29c9c708f35caf0",
      "to": "0xe18069faac066353b8706ceeeb711aa7c4340a75",
      "contractAddress": null
    },
    {
      "status": "0x1",
      "cumulativeGasUsed": "0x139ba83",
      "logs": [
        {
          "address": "0x8c50c847524531ff288fb7bbf9882e55da881a30",
          "topics": [
            "0xddf252ad1be2c89b69c2b068fc378daa952ba7f163c4a11628f55a4df523b3ef",
            "0x000000000000000000000000ac0a4738d4b004f22f11d4bfd29c9c708f35caf0",
            "0x0000000000000000000000000c478023803a644c94c4ce1c1e7b9a087e411b0a"
          ],
          "data": "0x00000000000000000000000000000000000000000052b7d2dcc80cd2e4000000",
          "blockHash": "0xf0361ad470f1c6baaa0519e4963299db606fa687b9fcf5ac4b5e57aa83de5aa5",
          "blockNumber": "0x964e08",
          "blockTimestamp": "0x6940d454",
          "transactionHash": "0x12db63a95279913e6025c7acf82e5dd4a303db315eb6cae1a2acb5c10fc4c749",
          "transactionIndex": "0x4b",
          "logIndex": "0x2a8",
          "removed": false
        }
      ],
      "logsBloom": "0x00000000000000000000000000000000000000000080000000000000000000000000000000000000000000000000000000000000000000000000000000000000000000000002000000000008000000000000000000000000000000000000000000000000000000000000000000000000100000000000000000000010000000000000000000000000000000000000040000000000000000000000000000000200000000000000000000000000000000004000000000000040000000000000000000000002000000000000000000001000000000000000000000000000000000000000000000000000000000000000000000000000000020000000000000000000",
      "type": "0x0",
      "transactionHash": "0x12db63a95279913e6025c7acf82e5dd4a303db315eb6cae1a2acb5c10fc4c749",
      "transactionIndex": "0x4b",
      "blockHash": "0xf0361ad470f1c6baaa0519e4963299db606fa687b9fcf5ac4b5e57aa83de5aa5",
      "blockNumber": "0x964e08",
      "gasUsed": "0xc868",
      "effectiveGasPrice": "0xf492a",
      "from": "0xac0a4738d4b004f22f11d4bfd29c9c708f35caf0",
      "to": "0x8c50c847524531ff288fb7bbf9882e55da881a30",
      "contractAddress": null
    },
    {
      "status": "0x1",
      "cumulativeGasUsed": "0x13a82eb",
      "logs": [
        {
          "address": "0xe18069faac066353b8706ceeeb711aa7c4340a75",
          "topics": [
            "0xddf252ad1be2c89b69c2b068fc378daa952ba7f163c4a11628f55a4df523b3ef",
            "0x000000000000000000000000ac0a4738d4b004f22f11d4bfd29c9c708f35caf0",
            "0x0000000000000000000000000c478023803a644c94c4ce1c1e7b9a087e411b0a"
          ],
          "data": "0x00000000000000000000000000000000000000000052b7d2dcc80cd2e4000000",
          "blockHash": "0xf0361ad470f1c6baaa0519e4963299db606fa687b9fcf5ac4b5e57aa83de5aa5",
          "blockNumber": "0x964e08",
          "blockTimestamp": "0x6940d454",
          "transactionHash": "0x1bff223877c62cfc3b51126674d755eda72b787e41ca3cfe2c32a758745296e5",
          "transactionIndex": "0x4c",
          "logIndex": "0x2a9",
          "removed": false
        }
      ],
      "logsBloom": "0x80000000020000000000000000000000000000000000000000000000000000000000000000000000000000000000000000000000000000000000000000000000000000000000000000000008000000000000000000000000000000000000000000000000000000000000000000000000000000000000000800000010000000000000000000000000000000000000040000000000000000000000000000000200000000000000000000000000000000004000000000000040000000000000000000000002000000000000000000001000000000000000000000000000000000000000000000000000000000000000000000000000000020000000000000000000",
      "type": "0x0",
      "transactionHash": "0x1bff223877c62cfc3b51126674d755eda72b787e41ca3cfe2c32a758745296e5",
      "transactionIndex": "0x4c",
      "blockHash": "0xf0361ad470f1c6baaa0519e4963299db606fa687b9fcf5ac4b5e57aa83de5aa5",
      "blockNumber": "0x964e08",
      "gasUsed": "0xc868",
      "effectiveGasPrice": "0xf492a",
      "from": "0xac0a4738d4b004f22f11d4bfd29c9c708f35caf0",
      "to": "0xe18069faac066353b8706ceeeb711aa7c4340a75",
      "contractAddress": null
    },
    {
      "status": "0x1",
      "cumulativeGasUsed": "0x13b4b53",
      "logs": [
        {
          "address": "0x8c50c847524531ff288fb7bbf9882e55da881a30",
          "topics": [
            "0xddf252ad1be2c89b69c2b068fc378daa952ba7f163c4a11628f55a4df523b3ef",
            "0x000000000000000000000000ac0a4738d4b004f22f11d4bfd29c9c708f35caf0",
            "0x0000000000000000000000009b6b46e2c869aa39918db7f52f5557fe577b6eee"
          ],
          "data": "0x00000000000000000000000000000000000000000052b7d2dcc80cd2e4000000",
          "blockHash": "0xf0361ad470f1c6baaa0519e4963299db606fa687b9fcf5ac4b5e57aa83de5aa5",
          "blockNumber": "0x964e08",
          "blockTimestamp": "0x6940d454",
          "transactionHash": "0xa14139b19c61e09b8d55a5f1487c462663a85078a1fad8f16e96d3a5a577f604",
          "transactionIndex": "0x4d",
          "logIndex": "0x2aa",
          "removed": false
        }
      ],
      "logsBloom": "0x00000000000000000000000000000000000000000080000000000000000000000200000000000000000000000000000000000000000000000000000008000000000000000002000000000008000000000000000000000000000000000000000000000000000000000000000000000000100000000000000000000010000000000000000000000000000000000000000000000000000000000000000000000200000000000000000000000000000000004000000000000000000000000000000000000002000000000000000000000000000000000000000800000000000000000000000000000000000000000000000000000000000020000000000000000000",
      "type": "0x0",
      "transactionHash": "0xa14139b19c61e09b8d55a5f1487c462663a85078a1fad8f16e96d3a5a577f604",
      "transactionIndex": "0x4d",
      "blockHash": "0xf0361ad470f1c6baaa0519e4963299db606fa687b9fcf5ac4b5e57aa83de5aa5",
      "blockNumber": "0x964e08",
      "gasUsed": "0xc868",
      "effectiveGasPrice": "0xf492a",
      "from": "0xac0a4738d4b004f22f11d4bfd29c9c708f35caf0",
      "to": "0x8c50c847524531ff288fb7bbf9882e55da881a30",
      "contractAddress": null
    },
    {
      "status": "0x1",
      "cumulativeGasUsed": "0x13c13bb",
      "logs": [
        {
          "address": "0xe18069faac066353b8706ceeeb711aa7c4340a75",
          "topics": [
            "0xddf252ad1be2c89b69c2b068fc378daa952ba7f163c4a11628f55a4df523b3ef",
            "0x000000000000000000000000ac0a4738d4b004f22f11d4bfd29c9c708f35caf0",
            "0x0000000000000000000000009b6b46e2c869aa39918db7f52f5557fe577b6eee"
          ],
          "data": "0x00000000000000000000000000000000000000000052b7d2dcc80cd2e4000000",
          "blockHash": "0xf0361ad470f1c6baaa0519e4963299db606fa687b9fcf5ac4b5e57aa83de5aa5",
          "blockNumber": "0x964e08",
          "blockTimestamp": "0x6940d454",
          "transactionHash": "0xb17635607d3292dfc70a51c81d95cf4c4b32be2c2249d3023b43fb3e877d70df",
          "transactionIndex": "0x4e",
          "logIndex": "0x2ab",
          "removed": false
        }
      ],
      "logsBloom": "0x80000000020000000000000000000000000000000000000000000000000000000200000000000000000000000000000000000000000000000000000008000000000000000000000000000008000000000000000000000000000000000000000000000000000000000000000000000000000000000000000800000010000000000000000000000000000000000000000000000000000000000000000000000200000000000000000000000000000000004000000000000000000000000000000000000002000000000000000000000000000000000000000800000000000000000000000000000000000000000000000000000000000020000000000000000000",
      "type": "0x0",
      "transactionHash": "0xb17635607d3292dfc70a51c81d95cf4c4b32be2c2249d3023b43fb3e877d70df",
      "transactionIndex": "0x4e",
      "blockHash": "0xf0361ad470f1c6baaa0519e4963299db606fa687b9fcf5ac4b5e57aa83de5aa5",
      "blockNumber": "0x964e08",
      "gasUsed": "0xc868",
      "effectiveGasPrice": "0xf492a",
      "from": "0xac0a4738d4b004f22f11d4bfd29c9c708f35caf0",
      "to": "0xe18069faac066353b8706ceeeb711aa7c4340a75",
      "contractAddress": null
    },
    {
      "status": "0x1",
      "cumulativeGasUsed": "0x13f3425",
      "logs": [
        {
          "address": "0xe03a1074c86cfedd5c142c4f04f1a1536e203543",
          "topics": [
            "0xf208f4912782fd25c7f114ca3723a2d5dd6f3bcc3ac8db5af63baa85f711d5ec",
            "0xc7ade615f6832d88a8bbdd8edcc87e79f8cb140884d87fc7db12ea4f1ffe4762",
            "0x0000000000000000000000000c478023803a644c94c4ce1c1e7b9a087e411b0a"
          ],
          "data": "0xffffffffffffffffffffffffffffffffffffffffffffffffffffffffffffff88000000000000000000000000000000000000000000000000000000000000007800000000000000000000000000000000000000000000003635c9adc5dea000000000000000000000000000000000000000000000000000000000000000000000",
          "blockHash": "0xf0361ad470f1c6baaa0519e4963299db606fa687b9fcf5ac4b5e57aa83de5aa5",
          "blockNumber": "0x964e08",
          "blockTimestamp": "0x6940d454",
          "transactionHash": "0x9522a0cc04b58b67216de363bc69fde07d3ee3dca0592d7f4df2ed14325d1a26",
          "transactionIndex": "0x4f",
          "logIndex": "0x2ac",
          "removed": false
        },
        {
          "address": "0x8c50c847524531ff288fb7bbf9882e55da881a30",
          "topics": [
            "0xddf252ad1be2c89b69c2b068fc378daa952ba7f163c4a11628f55a4df523b3ef",
            "0x000000000000000000000000ac0a4738d4b004f22f11d4bfd29c9c708f35caf0",
            "0x000000000000000000000000e03a1074c86cfedd5c142c4f04f1a1536e203543"
          ],
          "data": "0x0000000000000000000000000000000000000000000000009866f84f37ac1587",
          "blockHash": "0xf0361ad470f1c6baaa0519e4963299db606fa687b9fcf5ac4b5e57aa83de5aa5",
          "blockNumber": "0x964e08",
          "blockTimestamp": "0x6940d454",
          "transactionHash": "0x9522a0cc04b58b67216de363bc69fde07d3ee3dca0592d7f4df2ed14325d1a26",
          "transactionIndex": "0x4f",
          "logIndex": "0x2ad",
          "removed": false
        },
        {
          "address": "0xe18069faac066353b8706ceeeb711aa7c4340a75",
          "topics": [
            "0xddf252ad1be2c89b69c2b068fc378daa952ba7f163c4a11628f55a4df523b3ef",
            "0x000000000000000000000000ac0a4738d4b004f22f11d4bfd29c9c708f35caf0",
            "0x000000000000000000000000e03a1074c86cfedd5c142c4f04f1a1536e203543"
          ],
          "data": "0x0000000000000000000000000000000000000000000000000df83589bc1e73c7",
          "blockHash": "0xf0361ad470f1c6baaa0519e4963299db606fa687b9fcf5ac4b5e57aa83de5aa5",
          "blockNumber": "0x964e08",
          "blockTimestamp": "0x6940d454",
          "transactionHash": "0x9522a0cc04b58b67216de363bc69fde07d3ee3dca0592d7f4df2ed14325d1a26",
          "transactionIndex": "0x4f",
          "logIndex": "0x2ae",
          "removed": false
        }
      ],
      "logsBloom": "0x80000000020000000000000000000000000000000080000000000000000000000000000000000000001000000000000000000100000000000000000000000000200000000002000000000008000000000000000000000000000000000000000000000000000000000000000080000000100000000000100800000010000000000000000001000000000010000000040000000000000000000000000000000200000004000000000000000000000000004000000000000040000000000000000000000002000000000000000000001000000000000000000000001000000000001000000000000000000000000000000004000000000020000000000000000000",
      "type": "0x0",
      "transactionHash": "0x9522a0cc04b58b67216de363bc69fde07d3ee3dca0592d7f4df2ed14325d1a26",
      "transactionIndex": "0x4f",
      "blockHash": "0xf0361ad470f1c6baaa0519e4963299db606fa687b9fcf5ac4b5e57aa83de5aa5",
      "blockNumber": "0x964e08",
      "gasUsed": "0x3206a",
      "effectiveGasPrice": "0xf492a",
      "from": "0xac0a4738d4b004f22f11d4bfd29c9c708f35caf0",
      "to": "0x0c478023803a644c94c4ce1c1e7b9a087e411b0a",
      "contractAddress": null
    },
    {
      "status": "0x1",
      "cumulativeGasUsed": "0x14271ac",
      "logs": [
        {
          "address": "0xe03a1074c86cfedd5c142c4f04f1a1536e203543",
          "topics": [
            "0xf208f4912782fd25c7f114ca3723a2d5dd6f3bcc3ac8db5af63baa85f711d5ec",
            "0xc7ade615f6832d88a8bbdd8edcc87e79f8cb140884d87fc7db12ea4f1ffe4762",
            "0x0000000000000000000000000c478023803a644c94c4ce1c1e7b9a087e411b0a"
          ],
          "data": "0xffffffffffffffffffffffffffffffffffffffffffffffffffffffffffffff88000000000000000000000000000000000000000000000000000000000000007800000000000000000000000000000000000000000000003635c9adc5dea00000027c21407de4614e4a378d71958f0125a6f2dea0fdec9e0b410987cb8ac3449b",
          "blockHash": "0xf0361ad470f1c6baaa0519e4963299db606fa687b9fcf5ac4b5e57aa83de5aa5",
          "blockNumber": "0x964e08",
          "blockTimestamp": "0x6940d454",
          "transactionHash": "0xaf6bb3969284d6bc4eae9d54db47ce01ba2c0f6395fbeb8f0b89e8f06f8d365c",
          "transactionIndex": "0x51",
          "logIndex": "0x2af",
          "removed": false
        },
        {
          "address": "0x8c50c847524531ff288fb7bbf9882e55da881a30",
          "topics": [
            "0xddf252ad1be2c89b69c2b068fc378daa952ba7f163c4a11628f55a4df523b3ef",
            "0x000000000000000000000000ac0a4738d4b004f22f11d4bfd29c9c708f35caf0",
            "0x000000000000000000000000e03a1074c86cfedd5c142c4f04f1a1536e203543"
          ],
          "data": "0x0000000000000000000000000000000000000000000000009866f84f37ac1587",
          "blockHash": "0xf0361ad470f1c6baaa0519e4963299db606fa687b9fcf5ac4b5e57aa83de5aa5",
          "blockNumber": "0x964e08",
          "blockTimestamp": "0x6940d454",
          "transactionHash": "0xaf6bb3969284d6bc4eae9d54db47ce01ba2c0f6395fbeb8f0b89e8f06f8d365c",
          "transactionIndex": "0x51",
          "logIndex": "0x2b0",
          "removed": false
        },
        {
          "address": "0xe18069faac066353b8706ceeeb711aa7c4340a75",
          "topics": [
            "0xddf252ad1be2c89b69c2b068fc378daa952ba7f163c4a11628f55a4df523b3ef",
            "0x000000000000000000000000ac0a4738d4b004f22f11d4bfd29c9c708f35caf0",
            "0x000000000000000000000000e03a1074c86cfedd5c142c4f04f1a1536e203543"
          ],
          "data": "0x0000000000000000000000000000000000000000000000000df83589bc1e73c7",
          "blockHash": "0xf0361ad470f1c6baaa0519e4963299db606fa687b9fcf5ac4b5e57aa83de5aa5",
          "blockNumber": "0x964e08",
          "blockTimestamp": "0x6940d454",
          "transactionHash": "0xaf6bb3969284d6bc4eae9d54db47ce01ba2c0f6395fbeb8f0b89e8f06f8d365c",
          "transactionIndex": "0x51",
          "logIndex": "0x2b1",
          "removed": false
        }
      ],
      "logsBloom": "0x80000000020000000000000000000000000000000080000000000000000000000000000000000000001000000000000000000100000000000000000000000000200000000002000000000008000000000000000000000000000000000000000000000000000000000000000080000000100000000000100800000010000000000000000001000000000010000000040000000000000000000000000000000200000004000000000000000000000000004000000000000040000000000000000000000002000000000000000000001000000000000000000000001000000000001000000000000000000000000000000004000000000020000000000000000000",
      "type": "0x0",
      "transactionHash": "0xaf6bb3969284d6bc4eae9d54db47ce01ba2c0f6395fbeb8f0b89e8f06f8d365c",
      "transactionIndex": "0x51",
      "blockHash": "0xf0361ad470f1c6baaa0519e4963299db606fa687b9fcf5ac4b5e57aa83de5aa5",
      "blockNumber": "0x964e08",
      "gasUsed": "0x2eb7f",
      "effectiveGasPrice": "0xf492a",
      "from": "0xac0a4738d4b004f22f11d4bfd29c9c708f35caf0",
      "to": "0x0c478023803a644c94c4ce1c1e7b9a087e411b0a",
      "contractAddress": null
    },
    {
      "status": "0x1",
      "cumulativeGasUsed": "0x157820b",
      "logs": [
        {
          "address": "0xe03a1074c86cfedd5c142c4f04f1a1536e203543",
          "topics": [
            "0xf208f4912782fd25c7f114ca3723a2d5dd6f3bcc3ac8db5af63baa85f711d5ec",
            "0xc7ade615f6832d88a8bbdd8edcc87e79f8cb140884d87fc7db12ea4f1ffe4762",
            "0x0000000000000000000000000c478023803a644c94c4ce1c1e7b9a087e411b0a"
          ],
          "data": "0xfffffffffffffffffffffffffffffffffffffffffffffffffffffffffffffde4fffffffffffffffffffffffffffffffffffffffffffffffffffffffffffffe2000000000000000000000000000000000000000000000003635c9adc5dea00000e644765996a6e79ec459b24062bf12aeb4cb06346a11821db6ceabc1aeb5b9c7",
          "blockHash": "0x591db6f9f0beaa6771da2343287497a0abbfbb43f37d2eafed5175c66f3529ab",
          "blockNumber": "0x964e09",
          "blockTimestamp": "0x6940d460",
          "transactionHash": "0x9f94229927f4cfee2b94e1ea22f2835e27944bb447aa71b4605c90644d2e18f8",
          "transactionIndex": "0x48",
          "logIndex": "0x2bc",
          "removed": false
        },
        {
          "address": "0xe18069faac066353b8706ceeeb711aa7c4340a75",
          "topics": [
            "0xddf252ad1be2c89b69c2b068fc378daa952ba7f163c4a11628f55a4df523b3ef",
            "0x000000000000000000000000ac0a4738d4b004f22f11d4bfd29c9c708f35caf0",
            "0x000000000000000000000000e03a1074c86cfedd5c142c4f04f1a1536e203543"
          ],
          "data": "0x00000000000000000000000000000000000000000000000028954ac62cd43c8f",
          "blockHash": "0x591db6f9f0beaa6771da2343287497a0abbfbb43f37d2eafed5175c66f3529ab",
          "blockNumber": "0x964e09",
          "blockTimestamp": "0x6940d460",
          "transactionHash": "0x9f94229927f4cfee2b94e1ea22f2835e27944bb447aa71b4605c90644d2e18f8",
          "transactionIndex": "0x48",
          "logIndex": "0x2bd",
          "removed": false
        }
      ],
      "logsBloom": "0x80000000020000000000000000000000000000000000000000000000000000000000000000000000001000000000000000000100000000000000000000000000200000000000000000000008000000000000000000000000000000000000000000000000000000000000000080000000000000000000100800000010000000000000000001000000000010000000040000000000000000000000000000000200000004000000000000000000000000004000000000000040000000000000000000000002000000000000000000001000000000000000000000001000000000001000000000000000000000000000000004000000000020000000000000000000",
      "type": "0x0",
      "transactionHash": "0x9f94229927f4cfee2b94e1ea22f2835e27944bb447aa71b4605c90644d2e18f8",
      "transactionIndex": "0x48",
      "blockHash": "0x591db6f9f0beaa6771da2343287497a0abbfbb43f37d2eafed5175c66f3529ab",
      "blockNumber": "0x964e09",
      "gasUsed": "0x29607",
      "effectiveGasPrice": "0xf492a",
      "from": "0xac0a4738d4b004f22f11d4bfd29c9c708f35caf0",
      "to": "0x0c478023803a644c94c4ce1c1e7b9a087e411b0a",
      "contractAddress": null
    },
    {
      "status": "0x1",
      "cumulativeGasUsed": "0x15e6d9f",
      "logs": [
        {
          "address": "0xe03a1074c86cfedd5c142c4f04f1a1536e203543",
          "topics": [
            "0x40e9cecb9f5f1f1c5b9c97dec2917b7ee92e57ba5563708daca94dd84ad7112f",
            "0xc7ade615f6832d88a8bbdd8edcc87e79f8cb140884d87fc7db12ea4f1ffe4762",
            "0x0000000000000000000000009b6b46e2c869aa39918db7f52f5557fe577b6eee"
          ],
          "data": "0xffffffffffffffffffffffffffffffffffffffffffffffff7117bdf88fcf67b10000000000000000000000000000000000000000000000008ac7230489e800000000000000000000000000000000000000000000f997a4771150ac3cb7573b150000000000000000000000000000000000000000000000a2a15d09519be00000fffffffffffffffffffffffffffffffffffffffffffffffffffffffffffffe050000000000000000000000000000000000000000000000000000000000000bb8",
          "blockHash": "0x591db6f9f0beaa6771da2343287497a0abbfbb43f37d2eafed5175c66f3529ab",
          "blockNumber": "0x964e09",
          "blockTimestamp": "0x6940d460",
          "transactionHash": "0x99a20cbca0c6636e2c9fed135558054d5da6e43a3f329bb5654cce4c8943cc6a",
          "transactionIndex": "0x4a",
          "logIndex": "0x2bf",
          "removed": false
        },
        {
          "address": "0x8c50c847524531ff288fb7bbf9882e55da881a30",
          "topics": [
            "0xddf252ad1be2c89b69c2b068fc378daa952ba7f163c4a11628f55a4df523b3ef",
            "0x000000000000000000000000ac0a4738d4b004f22f11d4bfd29c9c708f35caf0",
            "0x000000000000000000000000e03a1074c86cfedd5c142c4f04f1a1536e203543"
          ],
          "data": "0x0000000000000000000000000000000000000000000000008ee842077030984f",
          "blockHash": "0x591db6f9f0beaa6771da2343287497a0abbfbb43f37d2eafed5175c66f3529ab",
          "blockNumber": "0x964e09",
          "blockTimestamp": "0x6940d460",
          "transactionHash": "0x99a20cbca0c6636e2c9fed135558054d5da6e43a3f329bb5654cce4c8943cc6a",
          "transactionIndex": "0x4a",
          "logIndex": "0x2c0",
          "removed": false
        },
        {
          "address": "0xe18069faac066353b8706ceeeb711aa7c4340a75",
          "topics": [
            "0xddf252ad1be2c89b69c2b068fc378daa952ba7f163c4a11628f55a4df523b3ef",
            "0x000000000000000000000000e03a1074c86cfedd5c142c4f04f1a1536e203543",
            "0x000000000000000000000000ac0a4738d4b004f22f11d4bfd29c9c708f35caf0"
          ],
          "data": "0x0000000000000000000000000000000000000000000000008ac7230489e80000",
          "blockHash": "0x591db6f9f0beaa6771da2343287497a0abbfbb43f37d2eafed5175c66f3529ab",
          "blockNumber": "0x964e09",
          "blockTimestamp": "0x6940d460",
          "transactionHash": "0x99a20cbca0c6636e2c9fed135558054d5da6e43a3f329bb5654cce4c8943cc6a",
          "transactionIndex": "0x4a",
          "logIndex": "0x2c1",
          "removed": false
        }
      ],
      "logsBloom": "0x80000000020000000000000000000000000000000080000000000000000000000200000000000000001000000000000000000100040000000000000008000000200000000002000000000008000000000000000000000020000000000000000000000000000000000000000080000000100000000000100800000010000000000000000000000000000010000000000000000000000000000000000000000200000000000000000000000000000000004000000000000000000000000000000000000002000000000000000000001000000000000000000800001000000000001000000000000000004000000000000000000000000020000000000000000000",
      "type": "0x0",
      "transactionHash": "0x99a20cbca0c6636e2c9fed135558054d5da6e43a3f329bb5654cce4c8943cc6a",
      "transactionIndex": "0x4a",
      "blockHash": "0x591db6f9f0beaa6771da2343287497a0abbfbb43f37d2eafed5175c66f3529ab",
      "blockNumber": "0x964e09",
      "gasUsed": "0x61d5b",
      "effectiveGasPrice": "0xf492a",
      "from": "0xac0a4738d4b004f22f11d4bfd29c9c708f35caf0",
      "to": "0x9b6b46e2c869aa39918db7f52f5557fe577b6eee",
      "contractAddress": null
    }
  ],
  "libraries": [],
  "pending": [],
  "returns": {},
  "timestamp": 1765856356466,
  "chain": 11155111,
  "commit": "baec5e5"
}