{
  "transactions": [
    {
      "hash": "0xb89e1d67e192eec64552771cc3c02b8284b039be166b4c056dfd794fde76cc7a",
      "transactionType": "CALL",
      "contractName": null,
      "contractAddress": "0x8c50c847524531ff288fb7bbf9882e55da881a30",
      "function": "mint(address,uint256)",
      "arguments": [
        "0xac0A4738d4B004F22F11D4BFd29C9c708F35caf0",
        "1000000000000000000000000000000000000000"
      ],
      "transaction": {
        "from": "0xac0a4738d4b004f22f11d4bfd29c9c708f35caf0",
        "to": "0x8c50c847524531ff288fb7bbf9882e55da881a30",
        "gas": "0xb863",
        "value": "0x0",
        "input": "0x40c10f19000000000000000000000000ac0a4738d4b004f22f11d4bfd29c9c708f35caf000000000000000000000000000000002f050fe938943acc45f65568000000000",
        "nonce": "0x2ae",
        "chainId": "0xaa36a7"
      },
      "additionalContracts": [],
      "isFixedGasLimit": false
    },
    {
      "hash": "0x160fb682bcfd5ad4ed0811a0cb6f77e8992679bb400cc6f4a8c08b78b38a9c8c",
      "transactionType": "CALL",
      "contractName": null,
      "contractAddress": "0xe18069faac066353b8706ceeeb711aa7c4340a75",
      "function": "mint(address,uint256)",
      "arguments": [
        "0xac0A4738d4B004F22F11D4BFd29C9c708F35caf0",
        "1000000000000000000000000000000000000000"
      ],
      "transaction": {
        "from": "0xac0a4738d4b004f22f11d4bfd29c9c708f35caf0",
        "to": "0xe18069faac066353b8706ceeeb711aa7c4340a75",
        "gas": "0xb863",
        "value": "0x0",
        "input": "0x40c10f19000000000000000000000000ac0a4738d4b004f22f11d4bfd29c9c708f35caf000000000000000000000000000000002f050fe938943acc45f65568000000000",
        "nonce": "0x2af",
        "chainId": "0xaa36a7"
      },
      "additionalContracts": [],
      "isFixedGasLimit": false
    },
    {
      "hash": "0x33bd0cbf3a11acc9b9ad452d3d9772ccb15ab6dd9c4ee89823ed3e1bd43400c0",
      "transactionType": "CALL",
      "contractName": null,
      "contractAddress": "0x8c50c847524531ff288fb7bbf9882e55da881a30",
      "function": "approve(address,uint256)",
      "arguments": [
        "0x0C478023803a644c94c4CE1C1e7b9A087e411B0A",
        "100000000000000000000000000"
      ],
      "transaction": {
        "from": "0xac0a4738d4b004f22f11d4bfd29c9c708f35caf0",
        "to": "0x8c50c847524531ff288fb7bbf9882e55da881a30",
        "gas": "0xa63c",
        "value": "0x0",
        "input": "0x095ea7b30000000000000000000000000c478023803a644c94c4ce1c1e7b9a087e411b0a00000000000000000000000000000000000000000052b7d2dcc80cd2e4000000",
        "nonce": "0x2b0",
        "chainId": "0xaa36a7"
      },
      "additionalContracts": [],
      "isFixedGasLimit": false
    },
    {
      "hash": "0x4968678b94eec91fb6a7025f5cb3234d596923dd55405a5b40c7a81fe1bdef28",
      "transactionType": "CALL",
      "contractName": null,
      "contractAddress": "0xe18069faac066353b8706ceeeb711aa7c4340a75",
      "function": "approve(address,uint256)",
      "arguments": [
        "0x0C478023803a644c94c4CE1C1e7b9A087e411B0A",
        "100000000000000000000000000"
      ],
      "transaction": {
        "from": "0xac0a4738d4b004f22f11d4bfd29c9c708f35caf0",
        "to": "0xe18069faac066353b8706ceeeb711aa7c4340a75",
        "gas": "0xa63c",
        "value": "0x0",
        "input": "0x095ea7b30000000000000000000000000c478023803a644c94c4ce1c1e7b9a087e411b0a00000000000000000000000000000000000000000052b7d2dcc80cd2e4000000",
        "nonce": "0x2b1",
        "chainId": "0xaa36a7"
      },
      "additionalContracts": [],
      "isFixedGasLimit": false
    },
    {
      "hash": "0x0c763bbf9a92b19b37092c744af499ce504c59b251a2a2e7cca401fdacc9259d",
      "transactionType": "CALL",
      "contractName": null,
      "contractAddress": "0x8c50c847524531ff288fb7bbf9882e55da881a30",
      "function": "approve(address,uint256)",
      "arguments": [
        "0x9B6b46e2c869aa39918Db7f52f5557FE577B6eEe",
        "100000000000000000000000000"
      ],
      "transaction": {
        "from": "0xac0a4738d4b004f22f11d4bfd29c9c708f35caf0",
        "to": "0x8c50c847524531ff288fb7bbf9882e55da881a30",
        "gas": "0xa63c",
        "value": "0x0",
        "input": "0x095ea7b30000000000000000000000009b6b46e2c869aa39918db7f52f5557fe577b6eee00000000000000000000000000000000000000000052b7d2dcc80cd2e4000000",
        "nonce": "0x2b2",
        "chainId": "0xaa36a7"
      },
      "additionalContracts": [],
      "isFixedGasLimit": false
    },
    {
      "hash": "0xdeee9b22cbefec00f3565a43a68ecbf0b4c904396c1a930f365ab37b876923a3",
      "transactionType": "CALL",
      "contractName": null,
      "contractAddress": "0xe18069faac066353b8706ceeeb711aa7c4340a75",
      "function": "approve(address,uint256)",
      "arguments": [
        "0x9B6b46e2c869aa39918Db7f52f5557FE577B6eEe",
        "100000000000000000000000000"
      ],
      "transaction": {
        "from": "0xac0a4738d4b004f22f11d4bfd29c9c708f35caf0",
        "to": "0xe18069faac066353b8706ceeeb711aa7c4340a75",
        "gas": "0xa63c",
        "value": "0x0",
        "input": "0x095ea7b30000000000000000000000009b6b46e2c869aa39918db7f52f5557fe577b6eee00000000000000000000000000000000000000000052b7d2dcc80cd2e4000000",
        "nonce": "0x2b3",
        "chainId": "0xaa36a7"
      },
      "additionalContracts": [],
      "isFixedGasLimit": false
    },
    {
      "hash": "0x69f2897c19e1e69ae246a50317e81817e7c296e436239893a4a5663a16552f87",
      "transactionType": "CALL",
      "contractName": null,
      "contractAddress": "0x0c478023803a644c94c4ce1c1e7b9a087e411b0a",
      "function": "modifyLiquidity((address,address,uint24,int24,address),(int24,int24,int256,bytes32),bytes)",
      "arguments": [
        "(0x8c50C847524531fF288Fb7bBF9882e55dA881a30, 0xE18069fAac066353b8706cEEEB711aA7c4340a75, 3000, 60, 0x5F7CcAE2A24eB9da8BAC46217c9910F3C442ffc0)",
        "(-120, 120, 1000000000000000000000, 0x0000000000000000000000000000000000000000000000000000000000000000)",
        "0x"
      ],
      "transaction": {
        "from": "0xac0a4738d4b004f22f11d4bfd29c9c708f35caf0",
        "to": "0x0c478023803a644c94c4ce1c1e7b9a087e411b0a",
        "gas": "0x5665b",
        "value": "0x0",
        "input": "0x5a6bcfda0000000000000000000000008c50c847524531ff288fb7bbf9882e55da881a30000000000000000000000000e18069faac066353b8706ceeeb711aa7c4340a750000000000000000000000000000000000000000000000000000000000000bb8000000000000000000000000000000000000000000000000000000000000003c0000000000000000000000005f7ccae2a24eb9da8bac46217c9910f3c442ffc0ffffffffffffffffffffffffffffffffffffffffffffffffffffffffffffff88000000000000000000000000000000000000000000000000000000000000007800000000000000000000000000000000000000000000003635c9adc5dea00000000000000000000000000000000000000000000000000000000000000000000000000000000000000000000000000000000000000000000000000000000001400000000000000000000000000000000000000000000000000000000000000000",
        "nonce": "0x2b4",
        "chainId": "0xaa36a7"
      },
      "additionalContracts": [],
      "isFixedGasLimit": false
    },
    {
      "hash": "0x8b3c108b87b47c13ae9d024c10c7b1303ac248e0b66239453ca7c3a0642c3e7a",
      "transactionType": "CALL",
      "contractName": null,
      "contractAddress": "0x0c478023803a644c94c4ce1c1e7b9a087e411b0a",
      "function": "modifyLiquidity((address,address,uint24,int24,address),(int24,int24,int256,bytes32),bytes)",
      "arguments": [
        "(0x8c50C847524531fF288Fb7bBF9882e55dA881a30, 0xE18069fAac066353b8706cEEEB711aA7c4340a75, 3000, 60, 0x5F7CcAE2A24eB9da8BAC46217c9910F3C442ffc0)",
        "(-120, 120, 1000000000000000000000, 0x027c21407de4614e4a378d71958f0125a6f2dea0fdec9e0b410987cb8ac3449b)",
        "0x"
      ],
      "transaction": {
        "from": "0xac0a4738d4b004f22f11d4bfd29c9c708f35caf0",
        "to": "0x0c478023803a644c94c4ce1c1e7b9a087e411b0a",
        "gas": "0x56a48",
        "value": "0x0",
        "input": "0x5a6bcfda0000000000000000000000008c50c847524531ff288fb7bbf9882e55da881a30000000000000000000000000e18069faac066353b8706ceeeb711aa7c4340a750000000000000000000000000000000000000000000000000000000000000bb8000000000000000000000000000000000000000000000000000000000000003c0000000000000000000000005f7ccae2a24eb9da8bac46217c9910f3c442ffc0ffffffffffffffffffffffffffffffffffffffffffffffffffffffffffffff88000000000000000000000000000000000000000000000000000000000000007800000000000000000000000000000000000000000000003635c9adc5dea00000027c21407de4614e4a378d71958f0125a6f2dea0fdec9e0b410987cb8ac3449b00000000000000000000000000000000000000000000000000000000000001400000000000000000000000000000000000000000000000000000000000000000",
        "nonce": "0x2b5",
        "chainId": "0xaa36a7"
      },
      "additionalContracts": [],
      "isFixedGasLimit": false
    },
    {
      "hash": "0x0b14995f2107f037cc20cdd163b03ee617d732e3930081c60b97e9845bb3d110",
      "transactionType": "CALL",
      "contractName": null,
      "contractAddress": "0x0c478023803a644c94c4ce1c1e7b9a087e411b0a",
      "function": "modifyLiquidity((address,address,uint24,int24,address),(int24,int24,int256,bytes32),bytes)",
      "arguments": [
        "(0x8c50C847524531fF288Fb7bBF9882e55dA881a30, 0xE18069fAac066353b8706cEEEB711aA7c4340a75, 3000, 60, 0x5F7CcAE2A24eB9da8BAC46217c9910F3C442ffc0)",
        "(-540, -480, 1000000000000000000000, 0xe644765996a6e79ec459b24062bf12aeb4cb06346a11821db6ceabc1aeb5b9c7)",
        "0x"
      ],
      "transaction": {
        "from": "0xac0a4738d4b004f22f11d4bfd29c9c708f35caf0",
        "to": "0x0c478023803a644c94c4ce1c1e7b9a087e411b0a",
        "gas": "0x498b7",
        "value": "0x0",
        "input": "0x5a6bcfda0000000000000000000000008c50c847524531ff288fb7bbf9882e55da881a30000000000000000000000000e18069faac066353b8706ceeeb711aa7c4340a750000000000000000000000000000000000000000000000000000000000000bb8000000000000000000000000000000000000000000000000000000000000003c0000000000000000000000005f7ccae2a24eb9da8bac46217c9910f3c442ffc0fffffffffffffffffffffffffffffffffffffffffffffffffffffffffffffde4fffffffffffffffffffffffffffffffffffffffffffffffffffffffffffffe2000000000000000000000000000000000000000000000003635c9adc5dea00000e644765996a6e79ec459b24062bf12aeb4cb06346a11821db6ceabc1aeb5b9c700000000000000000000000000000000000000000000000000000000000001400000000000000000000000000000000000000000000000000000000000000000",
        "nonce": "0x2b6",
        "chainId": "0xaa36a7"
      },
      "additionalContracts": [],
      "isFixedGasLimit": false
    },
    {
      "hash": "0x126b79a5fe2852e2196da2d8a95f4a0c85f7fe34024e8029a87d1fea9acb86ba",
      "transactionType": "CALL",
      "contractName": null,
      "contractAddress": "0x9b6b46e2c869aa39918db7f52f5557fe577b6eee",
      "function": "swap((address,address,uint24,int24,address),(bool,int256,uint160),(bool,bool),bytes)",
      "arguments": [
        "(0x8c50C847524531fF288Fb7bBF9882e55dA881a30, 0xE18069fAac066353b8706cEEEB711aA7c4340a75, 3000, 60, 0x5F7CcAE2A24eB9da8BAC46217c9910F3C442ffc0)",
        "(true, 10000000000000000000, 4295128740)",
        "(false, false)",
        "0x"
      ],
      "transaction": {
        "from": "0xac0a4738d4b004f22f11d4bfd29c9c708f35caf0",
        "to": "0x9b6b46e2c869aa39918db7f52f5557fe577b6eee",
        "gas": "0x55e88",
        "value": "0x0",
        "input": "0x2229d0b40000000000000000000000008c50c847524531ff288fb7bbf9882e55da881a30000000000000000000000000e18069faac066353b8706ceeeb711aa7c4340a750000000000000000000000000000000000000000000000000000000000000bb8000000000000000000000000000000000000000000000000000000000000003c0000000000000000000000005f7ccae2a24eb9da8bac46217c9910f3c442ffc000000000000000000000000000000000000000000000000000000000000000010000000000000000000000000000000000000000000000008ac7230489e8000000000000000000000000000000000000000000000000000000000001000276a40000000000000000000000000000000000000000000000000000000000000000000000000000000000000000000000000000000000000000000000000000000000000000000000000000000000000000000000000000000000000000000001600000000000000000000000000000000000000000000000000000000000000000",
        "nonce": "0x2b7",
        "chainId": "0xaa36a7"
      },
      "additionalContracts": [],
      "isFixedGasLimit": false
    }
  ],
  "receipts": [
    {
      "status": "0x1",
      "cumulativeGasUsed": "0x17351cc",
      "logs": [
        {
          "address": "0x8c50c847524531ff288fb7bbf9882e55da881a30",
          "topics": [
            "0xddf252ad1be2c89b69c2b068fc378daa952ba7f163c4a11628f55a4df523b3ef",
            "0x0000000000000000000000000000000000000000000000000000000000000000",
            "0x000000000000000000000000ac0a4738d4b004f22f11d4bfd29c9c708f35caf0"
          ],
          "data": "0x00000000000000000000000000000002f050fe938943acc45f65568000000000",
          "blockHash": "0x848152db33f111ce9397aa045cc8fb6374510ca052eacbc1fe7acfc408449c41",
          "blockNumber": "0x951fba",
          "blockTimestamp": "0x693289d4",
          "transactionHash": "0xb89e1d67e192eec64552771cc3c02b8284b039be166b4c056dfd794fde76cc7a",
          "transactionIndex": "0x79",
          "logIndex": "0x259",
          "removed": false
        }
      ],
      "logsBloom": "0x00000000000000000000000000000000000000000080000000000000000000000000000000000000000000000000000000000000000000000000000000000000000000000002000000000008000000000000000000000000000000000000000000000000020000000000000000000800100000000000000000000010000000000000000000000000000000000000000000000000000000000000000000000200000000000000000000000000000000004000000000000000000000000000000000000002000000000000000000000000000000000000000000000000000020000000000000000000000000000000000000000000000020000000000000000000",
      "type": "0x0",
      "transactionHash": "0xb89e1d67e192eec64552771cc3c02b8284b039be166b4c056dfd794fde76cc7a",
      "transactionIndex": "0x79",
      "blockHash": "0x848152db33f111ce9397aa045cc8fb6374510ca052eacbc1fe7acfc408449c41",
      "blockNumber": "0x951fba",
      "gasUsed": "0x857f",
      "effectiveGasPrice": "0xf4241",
      "from": "0xac0a4738d4b004f22f11d4bfd29c9c708f35caf0",
      "to": "0x8c50c847524531ff288fb7bbf9882e55da881a30",
      "contractAddress": null
    },
    {
      "status": "0x1",
      "cumulativeGasUsed": "0x192a6dd",
      "logs": [
        {
          "address": "0xe18069faac066353b8706ceeeb711aa7c4340a75",
          "topics": [
            "0xddf252ad1be2c89b69c2b068fc378daa952ba7f163c4a11628f55a4df523b3ef",
            "0x0000000000000000000000000000000000000000000000000000000000000000",
            "0x000000000000000000000000ac0a4738d4b004f22f11d4bfd29c9c708f35caf0"
          ],
          "data": "0x00000000000000000000000000000002f050fe938943acc45f65568000000000",
          "blockHash": "0xd6873d84e1ccdc0d0f5423f7f07946abca72b63435cc2f7a9891e66be64af851",
          "blockNumber": "0x951fbf",
          "blockTimestamp": "0x69328a10",
          "transactionHash": "0x160fb682bcfd5ad4ed0811a0cb6f77e8992679bb400cc6f4a8c08b78b38a9c8c",
          "transactionIndex": "0xa0",
          "logIndex": "0x200",
          "removed": false
        }
      ],
      "logsBloom": "0x80000000020000000000000000000000000000000000000000000000000000000000000000000000000000000000000000000000000000000000000000000000000000000000000000000008000000000000000000000000000000000000000000000000020000000000000000000800000000000000000800000010000000000000000000000000000000000000000000000000000000000000000000000200000000000000000000000000000000004000000000000000000000000000000000000002000000000000000000000000000000000000000000000000000020000000000000000000000000000000000000000000000020000000000000000000",
      "type": "0x0",
      "transactionHash": "0x160fb682bcfd5ad4ed0811a0cb6f77e8992679bb400cc6f4a8c08b78b38a9c8c",
      "transactionIndex": "0xa0",
      "blockHash": "0xd6873d84e1ccdc0d0f5423f7f07946abca72b63435cc2f7a9891e66be64af851",
      "blockNumber": "0x951fbf",
      "gasUsed": "0x857f",
      "effectiveGasPrice": "0xf4241",
      "from": "0xac0a4738d4b004f22f11d4bfd29c9c708f35caf0",
      "to": "0xe18069faac066353b8706ceeeb711aa7c4340a75",
      "contractAddress": null
    },
    {
      "status": "0x1",
      "cumulativeGasUsed": "0x17a98ee",
      "logs": [
        {
          "address": "0x8c50c847524531ff288fb7bbf9882e55da881a30",
          "topics": [
            "0x8c5be1e5ebec7d5bd14f71427d1e84f3dd0314c0f7b2291e5b200ac8c7c3b925",
            "0x000000000000000000000000ac0a4738d4b004f22f11d4bfd29c9c708f35caf0",
            "0x0000000000000000000000000c478023803a644c94c4ce1c1e7b9a087e411b0a"
          ],
          "data": "0x00000000000000000000000000000000000000000052b7d2dcc80cd2e4000000",
          "blockHash": "0x69a42e32bc91b30e0a1eb39a6af4d657663338d4c152efd1df08dabf78394a89",
          "blockNumber": "0x951fc2",
          "blockTimestamp": "0x69328a34",
          "transactionHash": "0x33bd0cbf3a11acc9b9ad452d3d9772ccb15ab6dd9c4ee89823ed3e1bd43400c0",
          "transactionIndex": "0xb5",
          "logIndex": "0x256",
          "removed": false
        }
      ],
      "logsBloom": "0x00000000000000000000000000000000000000000080000000000000000000000000000000000000000000000000000000000000000000000000000000200000000000000002000000000000000000000000000000000000000000000000000000000000000000000000000000000000100000000000000000000000000000000000000000000000000000000000040000000000000000000000000000000200020000000000000000000000000000004000000000000040000000000000000000000000000000000000000000001000000000000000000000000000000000000010000000000000000000000000000000000000000020000000000000000000",
      "type": "0x0",
      "transactionHash": "0x33bd0cbf3a11acc9b9ad452d3d9772ccb15ab6dd9c4ee89823ed3e1bd43400c0",
      "transactionIndex": "0xb5",
      "blockHash": "0x69a42e32bc91b30e0a1eb39a6af4d657663338d4c152efd1df08dabf78394a89",
      "blockNumber": "0x951fc2",
      "gasUsed": "0x71ab",
      "effectiveGasPrice": "0xf4241",
      "from": "0xac0a4738d4b004f22f11d4bfd29c9c708f35caf0",
      "to": "0x8c50c847524531ff288fb7bbf9882e55da881a30",
      "contractAddress": null
    },
    {
      "status": "0x1",
      "cumulativeGasUsed": "0x239f72b",
      "logs": [
        {
          "address": "0xe18069faac066353b8706ceeeb711aa7c4340a75",
          "topics": [
            "0x8c5be1e5ebec7d5bd14f71427d1e84f3dd0314c0f7b2291e5b200ac8c7c3b925",
            "0x000000000000000000000000ac0a4738d4b004f22f11d4bfd29c9c708f35caf0",
            "0x0000000000000000000000000c478023803a644c94c4ce1c1e7b9a087e411b0a"
          ],
          "data": "0x00000000000000000000000000000000000000000052b7d2dcc80cd2e4000000",
          "blockHash": "0x77665318f6f7daf70a21d3109ca2f3295b7f31e9969945d11d9073654fa586db",
          "blockNumber": "0x951fc7",
          "blockTimestamp": "0x69328a7c",
          "transactionHash": "0x4968678b94eec91fb6a7025f5cb3234d596923dd55405a5b40c7a81fe1bdef28",
          "transactionIndex": "0xe9",
          "logIndex": "0x19c",
          "removed": false
        }
      ],
      "logsBloom": "0x80000000020000000000000000000000000000000000000000000000000000000000000000000000000000000000000000000000000000000000000000200000000000000000000000000000000000000000000000000000000000000000000000000000000000000000000000000000000000000000000800000000000000000000000000000000000000000000040000000000000000000000000000000200020000000000000000000000000000004000000000000040000000000000000000000000000000000000000000001000000000000000000000000000000000000010000000000000000000000000000000000000000020000000000000000000",
      "type": "0x0",
      "transactionHash": "0x4968678b94eec91fb6a7025f5cb3234d596923dd55405a5b40c7a81fe1bdef28",
      "transactionIndex": "0xe9",
      "blockHash": "0x77665318f6f7daf70a21d3109ca2f3295b7f31e9969945d11d9073654fa586db",
      "blockNumber": "0x951fc7",
      "gasUsed": "0x71ab",
      "effectiveGasPrice": "0xf4241",
      "from": "0xac0a4738d4b004f22f11d4bfd29c9c708f35caf0",
      "to": "0xe18069faac066353b8706ceeeb711aa7c4340a75",
      "contractAddress": null
    },
    {
      "status": "0x1",
      "cumulativeGasUsed": "0xc22ebe",
      "logs": [
        {
          "address": "0x8c50c847524531ff288fb7bbf9882e55da881a30",
          "topics": [
            "0x8c5be1e5ebec7d5bd14f71427d1e84f3dd0314c0f7b2291e5b200ac8c7c3b925",
            "0x000000000000000000000000ac0a4738d4b004f22f11d4bfd29c9c708f35caf0",
            "0x0000000000000000000000009b6b46e2c869aa39918db7f52f5557fe577b6eee"
          ],
          "data": "0x00000000000000000000000000000000000000000052b7d2dcc80cd2e4000000",
          "blockHash": "0xf89b3e4324b75043b160f445b35b2f720a8c22af12abc6ce230bc80774ea56b6",
          "blockNumber": "0x951fc8",
          "blockTimestamp": "0x69328a88",
          "transactionHash": "0x0c763bbf9a92b19b37092c744af499ce504c59b251a2a2e7cca401fdacc9259d",
          "transactionIndex": "0x69",
          "logIndex": "0xe1",
          "removed": false
        }
      ],
      "logsBloom": "0x00000000000000000000000000000000000000000080000000000000000000000200000000000000000000000000000000000000000000000000000008200000000000000002000000000000000000000000000000000000000000000000000000000000000000000000000000000000100000000000000000000000000000000000000000000000000000000000000000000000000000000000000000000200020000000000000000000000000000004000000000000000000000000000000000000000000000000000000000000000000000000000000800000000000000000010000000000000000000000000000000000000000020000000000000000000",
      "type": "0x0",
      "transactionHash": "0x0c763bbf9a92b19b37092c744af499ce504c59b251a2a2e7cca401fdacc9259d",
      "transactionIndex": "0x69",
      "blockHash": "0xf89b3e4324b75043b160f445b35b2f720a8c22af12abc6ce230bc80774ea56b6",
      "blockNumber": "0x951fc8",
      "gasUsed": "0x71ab",
      "effectiveGasPrice": "0xf4241",
      "from": "0xac0a4738d4b004f22f11d4bfd29c9c708f35caf0",
      "to": "0x8c50c847524531ff288fb7bbf9882e55da881a30",
      "contractAddress": null
    },
    {
      "status": "0x1",
      "cumulativeGasUsed": "0x1111347",
      "logs": [
        {
          "address": "0xe18069faac066353b8706ceeeb711aa7c4340a75",
          "topics": [
            "0x8c5be1e5ebec7d5bd14f71427d1e84f3dd0314c0f7b2291e5b200ac8c7c3b925",
            "0x000000000000000000000000ac0a4738d4b004f22f11d4bfd29c9c708f35caf0",
            "0x0000000000000000000000009b6b46e2c869aa39918db7f52f5557fe577b6eee"
          ],
          "data": "0x00000000000000000000000000000000000000000052b7d2dcc80cd2e4000000",
          "blockHash": "0xb99fd89fd666aab1f346417cfcdfc29863e3445ec75f8595743b9c6aad5e2288",
          "blockNumber": "0x951fc9",
          "blockTimestamp": "0x69328a94",
          "transactionHash": "0xdeee9b22cbefec00f3565a43a68ecbf0b4c904396c1a930f365ab37b876923a3",
          "transactionIndex": "0x73",
          "logIndex": "0xf2",
          "removed": false
        }
      ],
      "logsBloom": "0x80000000020000000000000000000000000000000000000000000000000000000200000000000000000000000000000000000000000000000000000008200000000000000000000000000000000000000000000000000000000000000000000000000000000000000000000000000000000000000000000800000000000000000000000000000000000000000000000000000000000000000000000000000200020000000000000000000000000000004000000000000000000000000000000000000000000000000000000000000000000000000000000800000000000000000010000000000000000000000000000000000000000020000000000000000000",
      "type": "0x0",
      "transactionHash": "0xdeee9b22cbefec00f3565a43a68ecbf0b4c904396c1a930f365ab37b876923a3",
      "transactionIndex": "0x73",
      "blockHash": "0xb99fd89fd666aab1f346417cfcdfc29863e3445ec75f8595743b9c6aad5e2288",
      "blockNumber": "0x951fc9",
      "gasUsed": "0x71ab",
      "effectiveGasPrice": "0xf4241",
      "from": "0xac0a4738d4b004f22f11d4bfd29c9c708f35caf0",
      "to": "0xe18069faac066353b8706ceeeb711aa7c4340a75",
      "contractAddress": null
    },
    {
      "status": "0x1",
      "cumulativeGasUsed": "0xe4b206",
      "logs": [
        {
          "address": "0xe03a1074c86cfedd5c142c4f04f1a1536e203543",
          "topics": [
            "0xf208f4912782fd25c7f114ca3723a2d5dd6f3bcc3ac8db5af63baa85f711d5ec",
            "0xc7ade615f6832d88a8bbdd8edcc87e79f8cb140884d87fc7db12ea4f1ffe4762",
            "0x0000000000000000000000000c478023803a644c94c4ce1c1e7b9a087e411b0a"
          ],
          "data": "0xffffffffffffffffffffffffffffffffffffffffffffffffffffffffffffff88000000000000000000000000000000000000000000000000000000000000007800000000000000000000000000000000000000000000003635c9adc5dea000000000000000000000000000000000000000000000000000000000000000000000",
          "blockHash": "0x03534cceb54f48451d93314fe5e43384d13449c43e977121b68226194da81225",
          "blockNumber": "0x951fcd",
          "blockTimestamp": "0x69328ac4",
          "transactionHash": "0x69f2897c19e1e69ae246a50317e81817e7c296e436239893a4a5663a16552f87",
          "transactionIndex": "0x54",
          "logIndex": "0xdd",
          "removed": false
        },
        {
          "address": "0x8c50c847524531ff288fb7bbf9882e55da881a30",
          "topics": [
            "0xddf252ad1be2c89b69c2b068fc378daa952ba7f163c4a11628f55a4df523b3ef",
            "0x000000000000000000000000ac0a4738d4b004f22f11d4bfd29c9c708f35caf0",
            "0x000000000000000000000000e03a1074c86cfedd5c142c4f04f1a1536e203543"
          ],
          "data": "0x000000000000000000000000000000000000000000000000530366ccf2b81587",
          "blockHash": "0x03534cceb54f48451d93314fe5e43384d13449c43e977121b68226194da81225",
          "blockNumber": "0x951fcd",
          "blockTimestamp": "0x69328ac4",
          "transactionHash": "0x69f2897c19e1e69ae246a50317e81817e7c296e436239893a4a5663a16552f87",
          "transactionIndex": "0x54",
          "logIndex": "0xde",
          "removed": false
        },
        {
          "address": "0xe18069faac066353b8706ceeeb711aa7c4340a75",
          "topics": [
            "0xddf252ad1be2c89b69c2b068fc378daa952ba7f163c4a11628f55a4df523b3ef",
            "0x000000000000000000000000ac0a4738d4b004f22f11d4bfd29c9c708f35caf0",
            "0x000000000000000000000000e03a1074c86cfedd5c142c4f04f1a1536e203543"
          ],
          "data": "0x000000000000000000000000000000000000000000000000530366ccf2b81587",
          "blockHash": "0x03534cceb54f48451d93314fe5e43384d13449c43e977121b68226194da81225",
          "blockNumber": "0x951fcd",
          "blockTimestamp": "0x69328ac4",
          "transactionHash": "0x69f2897c19e1e69ae246a50317e81817e7c296e436239893a4a5663a16552f87",
          "transactionIndex": "0x54",
          "logIndex": "0xdf",
          "removed": false
        }
      ],
      "logsBloom": "0x80000000020000000000000000000000000000000080000000000000000000000000000000000000001000000000000000000100000000000000000000000000200000000002000000000008000000000000000000000000000000000000000000000000000000000000000080000000100000000000100800000010000000000000000001000000000010000000040000000000000000000000000000000200000004000000000000000000000000004000000000000040000000000000000000000002000000000000000000001000000000000000000000001000000000001000000000000000000000000000000004000000000020000000000000000000",
      "type": "0x0",
      "transactionHash": "0x69f2897c19e1e69ae246a50317e81817e7c296e436239893a4a5663a16552f87",
      "transactionIndex": "0x54",
      "blockHash": "0x03534cceb54f48451d93314fe5e43384d13449c43e977121b68226194da81225",
      "blockNumber": "0x951fcd",
      "gasUsed": "0x3e8ce",
      "effectiveGasPrice": "0xf4241",
      "from": "0xac0a4738d4b004f22f11d4bfd29c9c708f35caf0",
      "to": "0x0c478023803a644c94c4ce1c1e7b9a087e411b0a",
      "contractAddress": null
    },
    {
      "status": "0x1",
      "cumulativeGasUsed": "0x853f64",
      "logs": [
        {
          "address": "0xe03a1074c86cfedd5c142c4f04f1a1536e203543",
          "topics": [
            "0xf208f4912782fd25c7f114ca3723a2d5dd6f3bcc3ac8db5af63baa85f711d5ec",
            "0xc7ade615f6832d88a8bbdd8edcc87e79f8cb140884d87fc7db12ea4f1ffe4762",
            "0x0000000000000000000000000c478023803a644c94c4ce1c1e7b9a087e411b0a"
          ],
          "data": "0xffffffffffffffffffffffffffffffffffffffffffffffffffffffffffffff88000000000000000000000000000000000000000000000000000000000000007800000000000000000000000000000000000000000000003635c9adc5dea00000027c21407de4614e4a378d71958f0125a6f2dea0fdec9e0b410987cb8ac3449b",
          "blockHash": "0x11517704fca185e21ef9dae768bbd904cbae211859d60c0745b397ebdad9ba22",
          "blockNumber": "0x951fce",
          "blockTimestamp": "0x69328ad0",
          "transactionHash": "0x8b3c108b87b47c13ae9d024c10c7b1303ac248e0b66239453ca7c3a0642c3e7a",
          "transactionIndex": "0x61",
          "logIndex": "0x9a",
          "removed": false
        },
        {
          "address": "0x8c50c847524531ff288fb7bbf9882e55da881a30",
          "topics": [
            "0xddf252ad1be2c89b69c2b068fc378daa952ba7f163c4a11628f55a4df523b3ef",
            "0x000000000000000000000000ac0a4738d4b004f22f11d4bfd29c9c708f35caf0",
            "0x000000000000000000000000e03a1074c86cfedd5c142c4f04f1a1536e203543"
          ],
          "data": "0x000000000000000000000000000000000000000000000000530366ccf2b81587",
          "blockHash": "0x11517704fca185e21ef9dae768bbd904cbae211859d60c0745b397ebdad9ba22",
          "blockNumber": "0x951fce",
          "blockTimestamp": "0x69328ad0",
          "transactionHash": "0x8b3c108b87b47c13ae9d024c10c7b1303ac248e0b66239453ca7c3a0642c3e7a",
          "transactionIndex": "0x61",
          "logIndex": "0x9b",
          "removed": false
        },
        {
          "address": "0xe18069faac066353b8706ceeeb711aa7c4340a75",
          "topics": [
            "0xddf252ad1be2c89b69c2b068fc378daa952ba7f163c4a11628f55a4df523b3ef",
            "0x000000000000000000000000ac0a4738d4b004f22f11d4bfd29c9c708f35caf0",
            "0x000000000000000000000000e03a1074c86cfedd5c142c4f04f1a1536e203543"
          ],
          "data": "0x000000000000000000000000000000000000000000000000530366ccf2b81587",
          "blockHash": "0x11517704fca185e21ef9dae768bbd904cbae211859d60c0745b397ebdad9ba22",
          "blockNumber": "0x951fce",
          "blockTimestamp": "0x69328ad0",
          "transactionHash": "0x8b3c108b87b47c13ae9d024c10c7b1303ac248e0b66239453ca7c3a0642c3e7a",
          "transactionIndex": "0x61",
          "logIndex": "0x9c",
          "removed": false
        }
      ],
      "logsBloom": "0x80000000020000000000000000000000000000000080000000000000000000000000000000000000001000000000000000000100000000000000000000000000200000000002000000000008000000000000000000000000000000000000000000000000000000000000000080000000100000000000100800000010000000000000000001000000000010000000040000000000000000000000000000000200000004000000000000000000000000004000000000000040000000000000000000000002000000000000000000001000000000000000000000001000000000001000000000000000000000000000000004000000000020000000000000000000",
      "type": "0x0",
      "transactionHash": "0x8b3c108b87b47c13ae9d024c10c7b1303ac248e0b66239453ca7c3a0642c3e7a",
      "transactionIndex": "0x61",
      "blockHash": "0x11517704fca185e21ef9dae768bbd904cbae211859d60c0745b397ebdad9ba22",
      "blockNumber": "0x951fce",
      "gasUsed": "0x3ea4e",
      "effectiveGasPrice": "0xf4241",
      "from": "0xac0a4738d4b004f22f11d4bfd29c9c708f35caf0",
      "to": "0x0c478023803a644c94c4ce1c1e7b9a087e411b0a",
      "contractAddress": null
    },
    {
      "status": "0x1",
      "cumulativeGasUsed": "0xb2a8d4",
      "logs": [
        {
          "address": "0xe03a1074c86cfedd5c142c4f04f1a1536e203543",
          "topics": [
            "0xf208f4912782fd25c7f114ca3723a2d5dd6f3bcc3ac8db5af63baa85f711d5ec",
            "0xc7ade615f6832d88a8bbdd8edcc87e79f8cb140884d87fc7db12ea4f1ffe4762",
            "0x0000000000000000000000000c478023803a644c94c4ce1c1e7b9a087e411b0a"
          ],
          "data": "0xfffffffffffffffffffffffffffffffffffffffffffffffffffffffffffffde4fffffffffffffffffffffffffffffffffffffffffffffffffffffffffffffe2000000000000000000000000000000000000000000000003635c9adc5dea00000e644765996a6e79ec459b24062bf12aeb4cb06346a11821db6ceabc1aeb5b9c7",
          "blockHash": "0xc09d2c3735ed1dc60cb77abc47caa84b09547c25fd9d009725558d8694017f18",
          "blockNumber": "0x951fd0",
          "blockTimestamp": "0x69328ae8",
          "transactionHash": "0x0b14995f2107f037cc20cdd163b03ee617d732e3930081c60b97e9845bb3d110",
          "transactionIndex": "0x68",
          "logIndex": "0xbb",
          "removed": false
        },
        {
          "address": "0xe18069faac066353b8706ceeeb711aa7c4340a75",
          "topics": [
            "0xddf252ad1be2c89b69c2b068fc378daa952ba7f163c4a11628f55a4df523b3ef",
            "0x000000000000000000000000ac0a4738d4b004f22f11d4bfd29c9c708f35caf0",
            "0x000000000000000000000000e03a1074c86cfedd5c142c4f04f1a1536e203543"
          ],
          "data": "0x00000000000000000000000000000000000000000000000028954ac62cd43c8f",
          "blockHash": "0xc09d2c3735ed1dc60cb77abc47caa84b09547c25fd9d009725558d8694017f18",
          "blockNumber": "0x951fd0",
          "blockTimestamp": "0x69328ae8",
          "transactionHash": "0x0b14995f2107f037cc20cdd163b03ee617d732e3930081c60b97e9845bb3d110",
          "transactionIndex": "0x68",
          "logIndex": "0xbc",
          "removed": false
        }
      ],
      "logsBloom": "0x80000000020000000000000000000000000000000000000000000000000000000000000000000000001000000000000000000100000000000000000000000000200000000000000000000008000000000000000000000000000000000000000000000000000000000000000080000000000000000000100800000010000000000000000001000000000010000000040000000000000000000000000000000200000004000000000000000000000000004000000000000040000000000000000000000002000000000000000000001000000000000000000000001000000000001000000000000000000000000000000004000000000020000000000000000000",
      "type": "0x0",
      "transactionHash": "0x0b14995f2107f037cc20cdd163b03ee617d732e3930081c60b97e9845bb3d110",
      "transactionIndex": "0x68",
      "blockHash": "0xc09d2c3735ed1dc60cb77abc47caa84b09547c25fd9d009725558d8694017f18",
      "blockNumber": "0x951fd0",
      "gasUsed": "0x38a58",
      "effectiveGasPrice": "0xf4241",
      "from": "0xac0a4738d4b004f22f11d4bfd29c9c708f35caf0",
      "to": "0x0c478023803a644c94c4ce1c1e7b9a087e411b0a",
      "contractAddress": null
    },
    {
      "status": "0x1",
      "cumulativeGasUsed": "0x1b1406f",
      "logs": [
        {
          "address": "0xe03a1074c86cfedd5c142c4f04f1a1536e203543",
          "topics": [
            "0x40e9cecb9f5f1f1c5b9c97dec2917b7ee92e57ba5563708daca94dd84ad7112f",
            "0xc7ade615f6832d88a8bbdd8edcc87e79f8cb140884d87fc7db12ea4f1ffe4762",
            "0x0000000000000000000000009b6b46e2c869aa39918db7f52f5557fe577b6eee"
          ],
          "data": "0xffffffffffffffffffffffffffffffffffffffffffffffff741bca7878d6b7540000000000000000000000000000000000000000000000008ac7230489e800000000000000000000000000000000000000000000feb9f34380a3065e3fae7cd000000000000000000000000000000000000000000000006cf65a7e9047280000ffffffffffffffffffffffffffffffffffffffffffffffffffffffffffffff9c0000000000000000000000000000000000000000000000000000000000000bb8",
          "blockHash": "0x4d4738c249e52e482e00550dc1b0253e65a492b39db2f56534eb028971ac9f7f",
          "blockNumber": "0x951fd2",
          "blockTimestamp": "0x69328b00",
          "transactionHash": "0x126b79a5fe2852e2196da2d8a95f4a0c85f7fe34024e8029a87d1fea9acb86ba",
          "transactionIndex": "0x6b",
          "logIndex": "0xf1",
          "removed": false
        },
        {
          "address": "0x8c50c847524531ff288fb7bbf9882e55da881a30",
          "topics": [
            "0xddf252ad1be2c89b69c2b068fc378daa952ba7f163c4a11628f55a4df523b3ef",
            "0x000000000000000000000000ac0a4738d4b004f22f11d4bfd29c9c708f35caf0",
            "0x000000000000000000000000e03a1074c86cfedd5c142c4f04f1a1536e203543"
          ],
          "data": "0x0000000000000000000000000000000000000000000000008be43587872948ac",
          "blockHash": "0x4d4738c249e52e482e00550dc1b0253e65a492b39db2f56534eb028971ac9f7f",
          "blockNumber": "0x951fd2",
          "blockTimestamp": "0x69328b00",
          "transactionHash": "0x126b79a5fe2852e2196da2d8a95f4a0c85f7fe34024e8029a87d1fea9acb86ba",
          "transactionIndex": "0x6b",
          "logIndex": "0xf2",
          "removed": false
        },
        {
          "address": "0xe18069faac066353b8706ceeeb711aa7c4340a75",
          "topics": [
            "0xddf252ad1be2c89b69c2b068fc378daa952ba7f163c4a11628f55a4df523b3ef",
            "0x000000000000000000000000e03a1074c86cfedd5c142c4f04f1a1536e203543",
            "0x000000000000000000000000ac0a4738d4b004f22f11d4bfd29c9c708f35caf0"
          ],
          "data": "0x0000000000000000000000000000000000000000000000008ac7230489e80000",
          "blockHash": "0x4d4738c249e52e482e00550dc1b0253e65a492b39db2f56534eb028971ac9f7f",
          "blockNumber": "0x951fd2",
          "blockTimestamp": "0x69328b00",
          "transactionHash": "0x126b79a5fe2852e2196da2d8a95f4a0c85f7fe34024e8029a87d1fea9acb86ba",
          "transactionIndex": "0x6b",
          "logIndex": "0xf3",
          "removed": false
        }
      ],
      "logsBloom": "0x80000000020000000000000000000000000000000080000000000000000000000200000000000000001000000000000000000100040000000000000008000000200000000002000000000008000000000000000000000020000000000000000000000000000000000000000080000000100000000000100800000010000000000000000000000000000010000000000000000000000000000000000000000200000000000000000000000000000000004000000000000000000000000000000000000002000000000000000000001000000000000000000800001000000000001000000000000000004000000000000000000000000020000000000000000000",
      "type": "0x0",
      "transactionHash": "0x126b79a5fe2852e2196da2d8a95f4a0c85f7fe34024e8029a87d1fea9acb86ba",
      "transactionIndex": "0x6b",
      "blockHash": "0x4d4738c249e52e482e00550dc1b0253e65a492b39db2f56534eb028971ac9f7f",
      "blockNumber": "0x951fd2",
      "gasUsed": "0x3ea15",
      "effectiveGasPrice": "0xf4241",
      "from": "0xac0a4738d4b004f22f11d4bfd29c9c708f35caf0",
      "to": "0x9b6b46e2c869aa39918db7f52f5557fe577b6eee",
      "contractAddress": null
    }
  ],
  "libraries": [],
  "pending": [],
  "returns": {},
  "timestamp": 1764920067882,
  "chain": 11155111,
  "commit": "6e4203f"
}