{
  "transactions": [
    {
      "hash": "0xbf229bb7d58a4e12de935f25070c70330b03ad5e9f870f03f0d7aab3d92f2cb4",
      "transactionType": "CALL",
      "contractName": null,
      "contractAddress": "0x8c50c847524531ff288fb7bbf9882e55da881a30",
      "function": "mint(address,uint256)",
      "arguments": [
        "0xac0A4738d4B004F22F11D4BFd29C9c708F35caf0",
        "1000000000000000000000000000000000000000"
      ],
      "transaction": {
        "from": "0xac0a4738d4b004f22f11d4bfd29c9c708f35caf0",
        "to": "0x8c50c847524531ff288fb7bbf9882e55da881a30",
        "gas": "0xb863",
        "value": "0x0",
        "input": "0x40c10f19000000000000000000000000ac0a4738d4b004f22f11d4bfd29c9c708f35caf000000000000000000000000000000002f050fe938943acc45f65568000000000",
        "nonce": "0x2c6",
        "chainId": "0xaa36a7"
      },
      "additionalContracts": [],
      "isFixedGasLimit": false
    },
    {
      "hash": "0x778addb91c4a86c1bd38fe4098c6a236795d62a84f3301ec7d17832d1d1692b7",
      "transactionType": "CALL",
      "contractName": null,
      "contractAddress": "0xe18069faac066353b8706ceeeb711aa7c4340a75",
      "function": "mint(address,uint256)",
      "arguments": [
        "0xac0A4738d4B004F22F11D4BFd29C9c708F35caf0",
        "1000000000000000000000000000000000000000"
      ],
      "transaction": {
        "from": "0xac0a4738d4b004f22f11d4bfd29c9c708f35caf0",
        "to": "0xe18069faac066353b8706ceeeb711aa7c4340a75",
        "gas": "0xb863",
        "value": "0x0",
        "input": "0x40c10f19000000000000000000000000ac0a4738d4b004f22f11d4bfd29c9c708f35caf000000000000000000000000000000002f050fe938943acc45f65568000000000",
        "nonce": "0x2c7",
        "chainId": "0xaa36a7"
      },
      "additionalContracts": [],
      "isFixedGasLimit": false
    },
    {
      "hash": "0x0187c733901b78d67a26396fe51f2a36500b53a7e0e1aa3bd175ca805955f132",
      "transactionType": "CALL",
      "contractName": null,
      "contractAddress": "0x8c50c847524531ff288fb7bbf9882e55da881a30",
      "function": "approve(address,uint256)",
      "arguments": [
        "0x0C478023803a644c94c4CE1C1e7b9A087e411B0A",
        "100000000000000000000000000"
      ],
      "transaction": {
        "from": "0xac0a4738d4b004f22f11d4bfd29c9c708f35caf0",
        "to": "0x8c50c847524531ff288fb7bbf9882e55da881a30",
        "gas": "0xa63c",
        "value": "0x0",
        "input": "0x095ea7b30000000000000000000000000c478023803a644c94c4ce1c1e7b9a087e411b0a00000000000000000000000000000000000000000052b7d2dcc80cd2e4000000",
        "nonce": "0x2c8",
        "chainId": "0xaa36a7"
      },
      "additionalContracts": [],
      "isFixedGasLimit": false
    },
    {
      "hash": "0xe262bc6b20a8ad7a5f919cce8c920e34c7791d23b09b06da6bd79bec39f11632",
      "transactionType": "CALL",
      "contractName": null,
      "contractAddress": "0xe18069faac066353b8706ceeeb711aa7c4340a75",
      "function": "approve(address,uint256)",
      "arguments": [
        "0x0C478023803a644c94c4CE1C1e7b9A087e411B0A",
        "100000000000000000000000000"
      ],
      "transaction": {
        "from": "0xac0a4738d4b004f22f11d4bfd29c9c708f35caf0",
        "to": "0xe18069faac066353b8706ceeeb711aa7c4340a75",
        "gas": "0xa63c",
        "value": "0x0",
        "input": "0x095ea7b30000000000000000000000000c478023803a644c94c4ce1c1e7b9a087e411b0a00000000000000000000000000000000000000000052b7d2dcc80cd2e4000000",
        "nonce": "0x2c9",
        "chainId": "0xaa36a7"
      },
      "additionalContracts": [],
      "isFixedGasLimit": false
    },
    {
      "hash": "0x250c4e6a9234e068a7adf8586fd1c95864517232608af6e36a617b8c3e2fdff0",
      "transactionType": "CALL",
      "contractName": null,
      "contractAddress": "0x8c50c847524531ff288fb7bbf9882e55da881a30",
      "function": "approve(address,uint256)",
      "arguments": [
        "0x9B6b46e2c869aa39918Db7f52f5557FE577B6eEe",
        "100000000000000000000000000"
      ],
      "transaction": {
        "from": "0xac0a4738d4b004f22f11d4bfd29c9c708f35caf0",
        "to": "0x8c50c847524531ff288fb7bbf9882e55da881a30",
        "gas": "0xa63c",
        "value": "0x0",
        "input": "0x095ea7b30000000000000000000000009b6b46e2c869aa39918db7f52f5557fe577b6eee00000000000000000000000000000000000000000052b7d2dcc80cd2e4000000",
        "nonce": "0x2ca",
        "chainId": "0xaa36a7"
      },
      "additionalContracts": [],
      "isFixedGasLimit": false
    },
    {
      "hash": "0x7a15c1561f18ba7b828354c44d111a803306422d0bf9ad73f15eb747f3de05e3",
      "transactionType": "CALL",
      "contractName": null,
      "contractAddress": "0xe18069faac066353b8706ceeeb711aa7c4340a75",
      "function": "approve(address,uint256)",
      "arguments": [
        "0x9B6b46e2c869aa39918Db7f52f5557FE577B6eEe",
        "100000000000000000000000000"
      ],
      "transaction": {
        "from": "0xac0a4738d4b004f22f11d4bfd29c9c708f35caf0",
        "to": "0xe18069faac066353b8706ceeeb711aa7c4340a75",
        "gas": "0x963d",
        "value": "0x0",
        "input": "0x095ea7b30000000000000000000000009b6b46e2c869aa39918db7f52f5557fe577b6eee00000000000000000000000000000000000000000052b7d2dcc80cd2e4000000",
        "nonce": "0x2cb",
        "chainId": "0xaa36a7"
      },
      "additionalContracts": [],
      "isFixedGasLimit": false
    },
    {
      "hash": "0x8136e372b2ec052511e0593aabce5f1621937fe9222b7a4519340ee9071eaaf8",
      "transactionType": "CALL",
      "contractName": null,
      "contractAddress": "0x0c478023803a644c94c4ce1c1e7b9a087e411b0a",
      "function": "modifyLiquidity((address,address,uint24,int24,address),(int24,int24,int256,bytes32),bytes)",
      "arguments": [
        "(0x8c50C847524531fF288Fb7bBF9882e55dA881a30, 0xE18069fAac066353b8706cEEEB711aA7c4340a75, 3000, 60, 0x5F7CcAE2A24eB9da8BAC46217c9910F3C442ffc0)",
        "(-120, 120, 1000000000000000000000, 0x0000000000000000000000000000000000000000000000000000000000000000)",
        "0x"
      ],
      "transaction": {
        "from": "0xac0a4738d4b004f22f11d4bfd29c9c708f35caf0",
        "to": "0x0c478023803a644c94c4ce1c1e7b9a087e411b0a",
        "gas": "0x4bcf0",
        "value": "0x0",
        "input": "0x5a6bcfda0000000000000000000000008c50c847524531ff288fb7bbf9882e55da881a30000000000000000000000000e18069faac066353b8706ceeeb711aa7c4340a750000000000000000000000000000000000000000000000000000000000000bb8000000000000000000000000000000000000000000000000000000000000003c0000000000000000000000005f7ccae2a24eb9da8bac46217c9910f3c442ffc0ffffffffffffffffffffffffffffffffffffffffffffffffffffffffffffff88000000000000000000000000000000000000000000000000000000000000007800000000000000000000000000000000000000000000003635c9adc5dea00000000000000000000000000000000000000000000000000000000000000000000000000000000000000000000000000000000000000000000000000000000001400000000000000000000000000000000000000000000000000000000000000000",
        "nonce": "0x2cc",
        "chainId": "0xaa36a7"
      },
      "additionalContracts": [],
      "isFixedGasLimit": false
    },
    {
      "hash": "0x69b4b7edec9fe8c125718ed9a083484188568ff1995a19b51bc244aab5ac1fe3",
      "transactionType": "CALL",
      "contractName": null,
      "contractAddress": "0x0c478023803a644c94c4ce1c1e7b9a087e411b0a",
      "function": "modifyLiquidity((address,address,uint24,int24,address),(int24,int24,int256,bytes32),bytes)",
      "arguments": [
        "(0x8c50C847524531fF288Fb7bBF9882e55dA881a30, 0xE18069fAac066353b8706cEEEB711aA7c4340a75, 3000, 60, 0x5F7CcAE2A24eB9da8BAC46217c9910F3C442ffc0)",
        "(-120, 120, 1000000000000000000000, 0x027c21407de4614e4a378d71958f0125a6f2dea0fdec9e0b410987cb8ac3449b)",
        "0x"
      ],
      "transaction": {
        "from": "0xac0a4738d4b004f22f11d4bfd29c9c708f35caf0",
        "to": "0x0c478023803a644c94c4ce1c1e7b9a087e411b0a",
        "gas": "0x4b6e5",
        "value": "0x0",
        "input": "0x5a6bcfda0000000000000000000000008c50c847524531ff288fb7bbf9882e55da881a30000000000000000000000000e18069faac066353b8706ceeeb711aa7c4340a750000000000000000000000000000000000000000000000000000000000000bb8000000000000000000000000000000000000000000000000000000000000003c0000000000000000000000005f7ccae2a24eb9da8bac46217c9910f3c442ffc0ffffffffffffffffffffffffffffffffffffffffffffffffffffffffffffff88000000000000000000000000000000000000000000000000000000000000007800000000000000000000000000000000000000000000003635c9adc5dea00000027c21407de4614e4a378d71958f0125a6f2dea0fdec9e0b410987cb8ac3449b00000000000000000000000000000000000000000000000000000000000001400000000000000000000000000000000000000000000000000000000000000000",
        "nonce": "0x2cd",
        "chainId": "0xaa36a7"
      },
      "additionalContracts": [],
      "isFixedGasLimit": false
    },
    {
      "hash": "0xb36cce912517b9f5904a6844d138ec0f51a6985a46764814841e07dbb676da33",
      "transactionType": "CALL",
      "contractName": null,
      "contractAddress": "0x0c478023803a644c94c4ce1c1e7b9a087e411b0a",
      "function": "modifyLiquidity((address,address,uint24,int24,address),(int24,int24,int256,bytes32),bytes)",
      "arguments": [
        "(0x8c50C847524531fF288Fb7bBF9882e55dA881a30, 0xE18069fAac066353b8706cEEEB711aA7c4340a75, 3000, 60, 0x5F7CcAE2A24eB9da8BAC46217c9910F3C442ffc0)",
        "(-540, -480, 1000000000000000000000, 0xe644765996a6e79ec459b24062bf12aeb4cb06346a11821db6ceabc1aeb5b9c7)",
        "0x"
      ],
      "transaction": {
        "from": "0xac0a4738d4b004f22f11d4bfd29c9c708f35caf0",
        "to": "0x0c478023803a644c94c4ce1c1e7b9a087e411b0a",
        "gas": "0x34741",
        "value": "0x0",
        "input": "0x5a6bcfda0000000000000000000000008c50c847524531ff288fb7bbf9882e55da881a30000000000000000000000000e18069faac066353b8706ceeeb711aa7c4340a750000000000000000000000000000000000000000000000000000000000000bb8000000000000000000000000000000000000000000000000000000000000003c0000000000000000000000005f7ccae2a24eb9da8bac46217c9910f3c442ffc0fffffffffffffffffffffffffffffffffffffffffffffffffffffffffffffde4fffffffffffffffffffffffffffffffffffffffffffffffffffffffffffffe2000000000000000000000000000000000000000000000003635c9adc5dea00000e644765996a6e79ec459b24062bf12aeb4cb06346a11821db6ceabc1aeb5b9c700000000000000000000000000000000000000000000000000000000000001400000000000000000000000000000000000000000000000000000000000000000",
        "nonce": "0x2ce",
        "chainId": "0xaa36a7"
      },
      "additionalContracts": [],
      "isFixedGasLimit": false
    }
  ],
  "receipts": [
    {
      "status": "0x1",
      "cumulativeGasUsed": "0x10e3594",
      "logs": [
        {
          "address": "0x8c50c847524531ff288fb7bbf9882e55da881a30",
          "topics": [
            "0xddf252ad1be2c89b69c2b068fc378daa952ba7f163c4a11628f55a4df523b3ef",
            "0x0000000000000000000000000000000000000000000000000000000000000000",
            "0x000000000000000000000000ac0a4738d4b004f22f11d4bfd29c9c708f35caf0"
          ],
          "data": "0x00000000000000000000000000000002f050fe938943acc45f65568000000000",
          "blockHash": "0x2c4dd3dae5f26058f5ec13dc2df16a1015362533132aea43e969fdb7bd018676",
          "blockNumber": "0x963a67",
          "blockTimestamp": "0x693fe7fc",
          "transactionHash": "0xbf229bb7d58a4e12de935f25070c70330b03ad5e9f870f03f0d7aab3d92f2cb4",
          "transactionIndex": "0x69",
          "logIndex": "0x24e",
          "removed": false
        }
      ],
      "logsBloom": "0x00000000000000000000000000000000000000000080000000000000000000000000000000000000000000000000000000000000000000000000000000000000000000000002000000000008000000000000000000000000000000000000000000000000020000000000000000000800100000000000000000000010000000000000000000000000000000000000000000000000000000000000000000000200000000000000000000000000000000004000000000000000000000000000000000000002000000000000000000000000000000000000000000000000000020000000000000000000000000000000000000000000000020000000000000000000",
      "type": "0x0",
      "transactionHash": "0xbf229bb7d58a4e12de935f25070c70330b03ad5e9f870f03f0d7aab3d92f2cb4",
      "transactionIndex": "0x69",
      "blockHash": "0x2c4dd3dae5f26058f5ec13dc2df16a1015362533132aea43e969fdb7bd018676",
      "blockNumber": "0x963a67",
      "gasUsed": "0x857f",
      "effectiveGasPrice": "0xf42b6",
      "from": "0xac0a4738d4b004f22f11d4bfd29c9c708f35caf0",
      "to": "0x8c50c847524531ff288fb7bbf9882e55da881a30",
      "contractAddress": null
    },
    {
      "status": "0x1",
      "cumulativeGasUsed": "0x16f3a6c",
      "logs": [
        {
          "address": "0xe18069faac066353b8706ceeeb711aa7c4340a75",
          "topics": [
            "0xddf252ad1be2c89b69c2b068fc378daa952ba7f163c4a11628f55a4df523b3ef",
            "0x0000000000000000000000000000000000000000000000000000000000000000",
            "0x000000000000000000000000ac0a4738d4b004f22f11d4bfd29c9c708f35caf0"
          ],
          "data": "0x00000000000000000000000000000002f050fe938943acc45f65568000000000",
          "blockHash": "0x486978e3823b0caf076bf78acf1cf0502ae50cef3c3fcb4ce03e2ae29f345925",
          "blockNumber": "0x963a68",
          "blockTimestamp": "0x693fe808",
          "transactionHash": "0x778addb91c4a86c1bd38fe4098c6a236795d62a84f3301ec7d17832d1d1692b7",
          "transactionIndex": "0x6f",
          "logIndex": "0x24c",
          "removed": false
        }
      ],
      "logsBloom": "0x80000000020000000000000000000000000000000000000000000000000000000000000000000000000000000000000000000000000000000000000000000000000000000000000000000008000000000000000000000000000000000000000000000000020000000000000000000800000000000000000800000010000000000000000000000000000000000000000000000000000000000000000000000200000000000000000000000000000000004000000000000000000000000000000000000002000000000000000000000000000000000000000000000000000020000000000000000000000000000000000000000000000020000000000000000000",
      "type": "0x0",
      "transactionHash": "0x778addb91c4a86c1bd38fe4098c6a236795d62a84f3301ec7d17832d1d1692b7",
      "transactionIndex": "0x6f",
      "blockHash": "0x486978e3823b0caf076bf78acf1cf0502ae50cef3c3fcb4ce03e2ae29f345925",
      "blockNumber": "0x963a68",
      "gasUsed": "0x857f",
      "effectiveGasPrice": "0xf42b6",
      "from": "0xac0a4738d4b004f22f11d4bfd29c9c708f35caf0",
      "to": "0xe18069faac066353b8706ceeeb711aa7c4340a75",
      "contractAddress": null
    },
    {
      "status": "0x1",
      "cumulativeGasUsed": "0x1a1c664",
      "logs": [
        {
          "address": "0x8c50c847524531ff288fb7bbf9882e55da881a30",
          "topics": [
            "0x8c5be1e5ebec7d5bd14f71427d1e84f3dd0314c0f7b2291e5b200ac8c7c3b925",
            "0x000000000000000000000000ac0a4738d4b004f22f11d4bfd29c9c708f35caf0",
            "0x0000000000000000000000000c478023803a644c94c4ce1c1e7b9a087e411b0a"
          ],
          "data": "0x00000000000000000000000000000000000000000052b7d2dcc80cd2e4000000",
          "blockHash": "0x4e63ecb027c3c61b445c8f864e3d7b0ac9bb6c967e3ad2f1549fdb43409b032a",
          "blockNumber": "0x963a69",
          "blockTimestamp": "0x693fe814",
          "transactionHash": "0x0187c733901b78d67a26396fe51f2a36500b53a7e0e1aa3bd175ca805955f132",
          "transactionIndex": "0x6e",
          "logIndex": "0x444",
          "removed": false
        }
      ],
      "logsBloom": "0x00000000000000000000000000000000000000000080000000000000000000000000000000000000000000000000000000000000000000000000000000200000000000000002000000000000000000000000000000000000000000000000000000000000000000000000000000000000100000000000000000000000000000000000000000000000000000000000040000000000000000000000000000000200020000000000000000000000000000004000000000000040000000000000000000000000000000000000000000001000000000000000000000000000000000000010000000000000000000000000000000000000000020000000000000000000",
      "type": "0x0",
      "transactionHash": "0x0187c733901b78d67a26396fe51f2a36500b53a7e0e1aa3bd175ca805955f132",
      "transactionIndex": "0x6e",
      "blockHash": "0x4e63ecb027c3c61b445c8f864e3d7b0ac9bb6c967e3ad2f1549fdb43409b032a",
      "blockNumber": "0x963a69",
      "gasUsed": "0x71ab",
      "effectiveGasPrice": "0xf42b6",
      "from": "0xac0a4738d4b004f22f11d4bfd29c9c708f35caf0",
      "to": "0x8c50c847524531ff288fb7bbf9882e55da881a30",
      "contractAddress": null
    },
    {
      "status": "0x1",
      "cumulativeGasUsed": "0x14ff18f",
      "logs": [
        {
          "address": "0xe18069faac066353b8706ceeeb711aa7c4340a75",
          "topics": [
            "0x8c5be1e5ebec7d5bd14f71427d1e84f3dd0314c0f7b2291e5b200ac8c7c3b925",
            "0x000000000000000000000000ac0a4738d4b004f22f11d4bfd29c9c708f35caf0",
            "0x0000000000000000000000000c478023803a644c94c4ce1c1e7b9a087e411b0a"
          ],
          "data": "0x00000000000000000000000000000000000000000052b7d2dcc80cd2e4000000",
          "blockHash": "0xa9086ab95bdffb31f91287d2f6e0f93b01d65363b52492ea1fd858b741c94f68",
          "blockNumber": "0x963a6a",
          "blockTimestamp": "0x693fe820",
          "transactionHash": "0xe262bc6b20a8ad7a5f919cce8c920e34c7791d23b09b06da6bd79bec39f11632",
          "transactionIndex": "0x5f",
          "logIndex": "0x303",
          "removed": false
        }
      ],
      "logsBloom": "0x80000000020000000000000000000000000000000000000000000000000000000000000000000000000000000000000000000000000000000000000000200000000000000000000000000000000000000000000000000000000000000000000000000000000000000000000000000000000000000000000800000000000000000000000000000000000000000000040000000000000000000000000000000200020000000000000000000000000000004000000000000040000000000000000000000000000000000000000000001000000000000000000000000000000000000010000000000000000000000000000000000000000020000000000000000000",
      "type": "0x0",
      "transactionHash": "0xe262bc6b20a8ad7a5f919cce8c920e34c7791d23b09b06da6bd79bec39f11632",
      "transactionIndex": "0x5f",
      "blockHash": "0xa9086ab95bdffb31f91287d2f6e0f93b01d65363b52492ea1fd858b741c94f68",
      "blockNumber": "0x963a6a",
      "gasUsed": "0x71ab",
      "effectiveGasPrice": "0xf42b6",
      "from": "0xac0a4738d4b004f22f11d4bfd29c9c708f35caf0",
      "to": "0xe18069faac066353b8706ceeeb711aa7c4340a75",
      "contractAddress": null
    },
    {
      "status": "0x1",
      "cumulativeGasUsed": "0x261f341",
      "logs": [
        {
          "address": "0x8c50c847524531ff288fb7bbf9882e55da881a30",
          "topics": [
            "0x8c5be1e5ebec7d5bd14f71427d1e84f3dd0314c0f7b2291e5b200ac8c7c3b925",
            "0x000000000000000000000000ac0a4738d4b004f22f11d4bfd29c9c708f35caf0",
            "0x0000000000000000000000009b6b46e2c869aa39918db7f52f5557fe577b6eee"
          ],
          "data": "0x00000000000000000000000000000000000000000052b7d2dcc80cd2e4000000",
          "blockHash": "0x7669a685999b8fd4f8f6400606d37163edc68cb70cfeff75a67c092b5f252e05",
          "blockNumber": "0x963a6b",
          "blockTimestamp": "0x693fe82c",
          "transactionHash": "0x250c4e6a9234e068a7adf8586fd1c95864517232608af6e36a617b8c3e2fdff0",
          "transactionIndex": "0x82",
          "logIndex": "0x458",
          "removed": false
        }
      ],
      "logsBloom": "0x00000000000000000000000000000000000000000080000000000000000000000200000000000000000000000000000000000000000000000000000008200000000000000002000000000000000000000000000000000000000000000000000000000000000000000000000000000000100000000000000000000000000000000000000000000000000000000000000000000000000000000000000000000200020000000000000000000000000000004000000000000000000000000000000000000000000000000000000000000000000000000000000800000000000000000010000000000000000000000000000000000000000020000000000000000000",
      "type": "0x0",
      "transactionHash": "0x250c4e6a9234e068a7adf8586fd1c95864517232608af6e36a617b8c3e2fdff0",
      "transactionIndex": "0x82",
      "blockHash": "0x7669a685999b8fd4f8f6400606d37163edc68cb70cfeff75a67c092b5f252e05",
      "blockNumber": "0x963a6b",
      "gasUsed": "0x71ab",
      "effectiveGasPrice": "0xf42b6",
      "from": "0xac0a4738d4b004f22f11d4bfd29c9c708f35caf0",
      "to": "0x8c50c847524531ff288fb7bbf9882e55da881a30",
      "contractAddress": null
    },
    {
      "status": "0x1",
      "cumulativeGasUsed": "0x17d034c",
      "logs": [
        {
          "address": "0xe18069faac066353b8706ceeeb711aa7c4340a75",
          "topics": [
            "0x8c5be1e5ebec7d5bd14f71427d1e84f3dd0314c0f7b2291e5b200ac8c7c3b925",
            "0x000000000000000000000000ac0a4738d4b004f22f11d4bfd29c9c708f35caf0",
            "0x0000000000000000000000009b6b46e2c869aa39918db7f52f5557fe577b6eee"
          ],
          "data": "0x00000000000000000000000000000000000000000052b7d2dcc80cd2e4000000",
          "blockHash": "0x19c396051b79ec539851f57cfec9db1af97104e61125f92efa6f5e22b6cde8b7",
          "blockNumber": "0x963a6c",
          "blockTimestamp": "0x693fe838",
          "transactionHash": "0x7a15c1561f18ba7b828354c44d111a803306422d0bf9ad73f15eb747f3de05e3",
          "transactionIndex": "0x52",
          "logIndex": "0x25f",
          "removed": false
        }
      ],
      "logsBloom": "0x80000000020000000000000000000000000000000000000000000000000000000200000000000000000000000000000000000000000000000000000008200000000000000000000000000000000000000000000000000000000000000000000000000000000000000000000000000000000000000000000800000000000000000000000000000000000000000000000000000000000000000000000000000200020000000000000000000000000000004000000000000000000000000000000000000000000000000000000000000000000000000000000800000000000000000010000000000000000000000000000000000000000020000000000000000000",
      "type": "0x0",
      "transactionHash": "0x7a15c1561f18ba7b828354c44d111a803306422d0bf9ad73f15eb747f3de05e3",
      "transactionIndex": "0x52",
      "blockHash": "0x19c396051b79ec539851f57cfec9db1af97104e61125f92efa6f5e22b6cde8b7",
      "blockNumber": "0x963a6c",
      "gasUsed": "0x66bb",
      "effectiveGasPrice": "0xf42b6",
      "from": "0xac0a4738d4b004f22f11d4bfd29c9c708f35caf0",
      "to": "0xe18069faac066353b8706ceeeb711aa7c4340a75",
      "contractAddress": null
    },
    {
      "status": "0x1",
      "cumulativeGasUsed": "0x134ddb1",
      "logs": [
        {
          "address": "0xe03a1074c86cfedd5c142c4f04f1a1536e203543",
          "topics": [
            "0xf208f4912782fd25c7f114ca3723a2d5dd6f3bcc3ac8db5af63baa85f711d5ec",
            "0xc7ade615f6832d88a8bbdd8edcc87e79f8cb140884d87fc7db12ea4f1ffe4762",
            "0x0000000000000000000000000c478023803a644c94c4ce1c1e7b9a087e411b0a"
          ],
          "data": "0xffffffffffffffffffffffffffffffffffffffffffffffffffffffffffffff88000000000000000000000000000000000000000000000000000000000000007800000000000000000000000000000000000000000000003635c9adc5dea000000000000000000000000000000000000000000000000000000000000000000000",
          "blockHash": "0x0d96bed979a5157dc0025d806be007fe10ff01ab4f4f47f446e3753bc5292d2b",
          "blockNumber": "0x963a6d",
          "blockTimestamp": "0x693fe844",
          "transactionHash": "0x8136e372b2ec052511e0593aabce5f1621937fe9222b7a4519340ee9071eaaf8",
          "transactionIndex": "0x56",
          "logIndex": "0x2b6",
          "removed": false
        },
        {
          "address": "0x8c50c847524531ff288fb7bbf9882e55da881a30",
          "topics": [
            "0xddf252ad1be2c89b69c2b068fc378daa952ba7f163c4a11628f55a4df523b3ef",
            "0x000000000000000000000000ac0a4738d4b004f22f11d4bfd29c9c708f35caf0",
            "0x000000000000000000000000e03a1074c86cfedd5c142c4f04f1a1536e203543"
          ],
          "data": "0x0000000000000000000000000000000000000000000000009830fc00f8ac0a7d",
          "blockHash": "0x0d96bed979a5157dc0025d806be007fe10ff01ab4f4f47f446e3753bc5292d2b",
          "blockNumber": "0x963a6d",
          "blockTimestamp": "0x693fe844",
          "transactionHash": "0x8136e372b2ec052511e0593aabce5f1621937fe9222b7a4519340ee9071eaaf8",
          "transactionIndex": "0x56",
          "logIndex": "0x2b7",
          "removed": false
        },
        {
          "address": "0xe18069faac066353b8706ceeeb711aa7c4340a75",
          "topics": [
            "0xddf252ad1be2c89b69c2b068fc378daa952ba7f163c4a11628f55a4df523b3ef",
            "0x000000000000000000000000ac0a4738d4b004f22f11d4bfd29c9c708f35caf0",
            "0x000000000000000000000000e03a1074c86cfedd5c142c4f04f1a1536e203543"
          ],
          "data": "0x0000000000000000000000000000000000000000000000000df83589bc1e73c7",
          "blockHash": "0x0d96bed979a5157dc0025d806be007fe10ff01ab4f4f47f446e3753bc5292d2b",
          "blockNumber": "0x963a6d",
          "blockTimestamp": "0x693fe844",
          "transactionHash": "0x8136e372b2ec052511e0593aabce5f1621937fe9222b7a4519340ee9071eaaf8",
          "transactionIndex": "0x56",
          "logIndex": "0x2b8",
          "removed": false
        }
      ],
      "logsBloom": "0x80000000020000000000000000000000000000000080000000000000000000000000000000000000001000000000000000000100000000000000000000000000200000000002000000000008000000000000000000000000000000000000000000000000000000000000000080000000100000000000100800000010000000000000000001000000000010000000040000000000000000000000000000000200000004000000000000000000000000004000000000000040000000000000000000000002000000000000000000001000000000000000000000001000000000001000000000000000000000000000000004000000000020000000000000000000",
      "type": "0x0",
      "transactionHash": "0x8136e372b2ec052511e0593aabce5f1621937fe9222b7a4519340ee9071eaaf8",
      "transactionIndex": "0x56",
      "blockHash": "0x0d96bed979a5157dc0025d806be007fe10ff01ab4f4f47f446e3753bc5292d2b",
      "blockNumber": "0x963a6d",
      "gasUsed": "0x36e26",
      "effectiveGasPrice": "0xf42b6",
      "from": "0xac0a4738d4b004f22f11d4bfd29c9c708f35caf0",
      "to": "0x0c478023803a644c94c4ce1c1e7b9a087e411b0a",
      "contractAddress": null
    },
    {
      "status": "0x1",
      "cumulativeGasUsed": "0x1d63f89",
      "logs": [
        {
          "address": "0xe03a1074c86cfedd5c142c4f04f1a1536e203543",
          "topics": [
            "0xf208f4912782fd25c7f114ca3723a2d5dd6f3bcc3ac8db5af63baa85f711d5ec",
            "0xc7ade615f6832d88a8bbdd8edcc87e79f8cb140884d87fc7db12ea4f1ffe4762",
            "0x0000000000000000000000000c478023803a644c94c4ce1c1e7b9a087e411b0a"
          ],
          "data": "0xffffffffffffffffffffffffffffffffffffffffffffffffffffffffffffff88000000000000000000000000000000000000000000000000000000000000007800000000000000000000000000000000000000000000003635c9adc5dea00000027c21407de4614e4a378d71958f0125a6f2dea0fdec9e0b410987cb8ac3449b",
          "blockHash": "0x3ea75abe354ad1ede3c3743f865c8659503a8b283d8fe056e3dcb11f66ae59d2",
          "blockNumber": "0x963a6e",
          "blockTimestamp": "0x693fe850",
          "transactionHash": "0x69b4b7edec9fe8c125718ed9a083484188568ff1995a19b51bc244aab5ac1fe3",
          "transactionIndex": "0x77",
          "logIndex": "0x44b",
          "removed": false
        },
        {
          "address": "0x8c50c847524531ff288fb7bbf9882e55da881a30",
          "topics": [
            "0xddf252ad1be2c89b69c2b068fc378daa952ba7f163c4a11628f55a4df523b3ef",
            "0x000000000000000000000000ac0a4738d4b004f22f11d4bfd29c9c708f35caf0",
            "0x000000000000000000000000e03a1074c86cfedd5c142c4f04f1a1536e203543"
          ],
          "data": "0x000000000000000000000000000000000000000000000000983184d6a82fd7e7",
          "blockHash": "0x3ea75abe354ad1ede3c3743f865c8659503a8b283d8fe056e3dcb11f66ae59d2",
          "blockNumber": "0x963a6e",
          "blockTimestamp": "0x693fe850",
          "transactionHash": "0x69b4b7edec9fe8c125718ed9a083484188568ff1995a19b51bc244aab5ac1fe3",
          "transactionIndex": "0x77",
          "logIndex": "0x44c",
          "removed": false
        },
        {
          "address": "0xe18069faac066353b8706ceeeb711aa7c4340a75",
          "topics": [
            "0xddf252ad1be2c89b69c2b068fc378daa952ba7f163c4a11628f55a4df523b3ef",
            "0x000000000000000000000000ac0a4738d4b004f22f11d4bfd29c9c708f35caf0",
            "0x000000000000000000000000e03a1074c86cfedd5c142c4f04f1a1536e203543"
          ],
          "data": "0x0000000000000000000000000000000000000000000000000df83589bc1e73c7",
          "blockHash": "0x3ea75abe354ad1ede3c3743f865c8659503a8b283d8fe056e3dcb11f66ae59d2",
          "blockNumber": "0x963a6e",
          "blockTimestamp": "0x693fe850",
          "transactionHash": "0x69b4b7edec9fe8c125718ed9a083484188568ff1995a19b51bc244aab5ac1fe3",
          "transactionIndex": "0x77",
          "logIndex": "0x44d",
          "removed": false
        }
      ],
      "logsBloom": "0x80000000020000000000000000000000000000000080000000000000000000000000000000000000001000000000000000000100000000000000000000000000200000000002000000000008000000000000000000000000000000000000000000000000000000000000000080000000100000000000100800000010000000000000000001000000000010000000040000000000000000000000000000000200000004000000000000000000000000004000000000000040000000000000000000000002000000000000000000001000000000000000000000001000000000001000000000000000000000000000000004000000000020000000000000000000",
      "type": "0x0",
      "transactionHash": "0x69b4b7edec9fe8c125718ed9a083484188568ff1995a19b51bc244aab5ac1fe3",
      "transactionIndex": "0x77",
      "blockHash": "0x3ea75abe354ad1ede3c3743f865c8659503a8b283d8fe056e3dcb11f66ae59d2",
      "blockNumber": "0x963a6e",
      "gasUsed": "0x36fa6",
      "effectiveGasPrice": "0xf42b6",
      "from": "0xac0a4738d4b004f22f11d4bfd29c9c708f35caf0",
      "to": "0x0c478023803a644c94c4ce1c1e7b9a087e411b0a",
      "contractAddress": null
    },
    {
      "status": "0x1",
      "cumulativeGasUsed": "0x11eaf17",
      "logs": [
        {
          "address": "0xe03a1074c86cfedd5c142c4f04f1a1536e203543",
          "topics": [
            "0xf208f4912782fd25c7f114ca3723a2d5dd6f3bcc3ac8db5af63baa85f711d5ec",
            "0xc7ade615f6832d88a8bbdd8edcc87e79f8cb140884d87fc7db12ea4f1ffe4762",
            "0x0000000000000000000000000c478023803a644c94c4ce1c1e7b9a087e411b0a"
          ],
          "data": "0xfffffffffffffffffffffffffffffffffffffffffffffffffffffffffffffde4fffffffffffffffffffffffffffffffffffffffffffffffffffffffffffffe2000000000000000000000000000000000000000000000003635c9adc5dea00000e644765996a6e79ec459b24062bf12aeb4cb06346a11821db6ceabc1aeb5b9c7",
          "blockHash": "0xf6d77da3e44fbfbf11f89ae7b219f65c1eaa54f79ffc29e5b4da70c80ed2ac72",
          "blockNumber": "0x963a6f",
          "blockTimestamp": "0x693fe85c",
          "transactionHash": "0xb36cce912517b9f5904a6844d138ec0f51a6985a46764814841e07dbb676da33",
          "transactionIndex": "0x4a",
          "logIndex": "0x1e2",
          "removed": false
        },
        {
          "address": "0xe18069faac066353b8706ceeeb711aa7c4340a75",
          "topics": [
            "0xddf252ad1be2c89b69c2b068fc378daa952ba7f163c4a11628f55a4df523b3ef",
            "0x000000000000000000000000ac0a4738d4b004f22f11d4bfd29c9c708f35caf0",
            "0x000000000000000000000000e03a1074c86cfedd5c142c4f04f1a1536e203543"
          ],
          "data": "0x00000000000000000000000000000000000000000000000028954ac62cd43c8f",
          "blockHash": "0xf6d77da3e44fbfbf11f89ae7b219f65c1eaa54f79ffc29e5b4da70c80ed2ac72",
          "blockNumber": "0x963a6f",
          "blockTimestamp": "0x693fe85c",
          "transactionHash": "0xb36cce912517b9f5904a6844d138ec0f51a6985a46764814841e07dbb676da33",
          "transactionIndex": "0x4a",
          "logIndex": "0x1e3",
          "removed": false
        }
      ],
      "logsBloom": "0x80000000020000000000000000000000000000000000000000000000000000000000000000000000001000000000000000000100000000000000000000000000200000000000000000000008000000000000000000000000000000000000000000000000000000000000000080000000000000000000100800000010000000000000000001000000000010000000040000000000000000000000000000000200000004000000000000000000000000004000000000000040000000000000000000000002000000000000000000001000000000000000000000001000000000001000000000000000000000000000000004000000000020000000000000000000",
      "type": "0x0",
      "transactionHash": "0xb36cce912517b9f5904a6844d138ec0f51a6985a46764814841e07dbb676da33",
      "transactionIndex": "0x4a",
      "blockHash": "0xf6d77da3e44fbfbf11f89ae7b219f65c1eaa54f79ffc29e5b4da70c80ed2ac72",
      "blockNumber": "0x963a6f",
      "gasUsed": "0x29607",
      "effectiveGasPrice": "0xf42b6",
      "from": "0xac0a4738d4b004f22f11d4bfd29c9c708f35caf0",
      "to": "0x0c478023803a644c94c4ce1c1e7b9a087e411b0a",
      "contractAddress": null
    }
  ],
  "libraries": [],
  "pending": [],
  "returns": {},
  "timestamp": 1765795933583,
  "chain": 11155111,
  "commit": "a658545"
}