{
  "transactions": [
    {
      "hash": "0xb7fd8204b8312557de09161a967f76bfb3a18a61d037f5f7c74ab5c1293ee912",
      "transactionType": "CALL",
      "contractName": null,
      "contractAddress": "0x95716569a1552f23a399e298e1e0ffb97eafdd99",
      "function": "mint(address,uint256)",
      "arguments": [
        "0xac0A4738d4B004F22F11D4BFd29C9c708F35caf0",
        "1000000000000000000000000"
      ],
      "transaction": {
        "from": "0xac0a4738d4b004f22f11d4bfd29c9c708f35caf0",
        "to": "0x95716569a1552f23a399e298e1e0ffb97eafdd99",
        "gas": "0x17086",
        "value": "0x0",
        "input": "0x40c10f19000000000000000000000000ac0a4738d4b004f22f11d4bfd29c9c708f35caf000000000000000000000000000000000000000000000d3c21bcecceda1000000",
        "nonce": "0x2e3",
        "chainId": "0xaa36a7"
      },
      "additionalContracts": [],
      "isFixedGasLimit": false
    },
    {
      "hash": "0xf8b2c896d6153a750688a24b4feccdb65b5e85ce43843de9494d9d7a3bad0d2d",
      "transactionType": "CALL",
      "contractName": null,
      "contractAddress": "0xee3e00d0cea1f7e8f7f5ae0ab171239548bd1b54",
      "function": "mint(address,uint256)",
      "arguments": [
        "0xac0A4738d4B004F22F11D4BFd29C9c708F35caf0",
        "1000000000000000000000000"
      ],
      "transaction": {
        "from": "0xac0a4738d4b004f22f11d4bfd29c9c708f35caf0",
        "to": "0xee3e00d0cea1f7e8f7f5ae0ab171239548bd1b54",
        "gas": "0x17086",
        "value": "0x0",
        "input": "0x40c10f19000000000000000000000000ac0a4738d4b004f22f11d4bfd29c9c708f35caf000000000000000000000000000000000000000000000d3c21bcecceda1000000",
        "nonce": "0x2e4",
        "chainId": "0xaa36a7"
      },
      "additionalContracts": [],
      "isFixedGasLimit": false
    },
    {
      "hash": "0x4389f2e4c3cddde64aee840c46411e5f7f840699070f385dc3cb0ad89e11a779",
      "transactionType": "CALL",
      "contractName": null,
      "contractAddress": "0x95716569a1552f23a399e298e1e0ffb97eafdd99",
      "function": "approve(address,uint256)",
      "arguments": [
        "0x0C478023803a644c94c4CE1C1e7b9A087e411B0A",
        "1000000000000000000000000"
      ],
      "transaction": {
        "from": "0xac0a4738d4b004f22f11d4bfd29c9c708f35caf0",
        "to": "0x95716569a1552f23a399e298e1e0ffb97eafdd99",
        "gas": "0x107dc",
        "value": "0x0",
        "input": "0x095ea7b30000000000000000000000000c478023803a644c94c4ce1c1e7b9a087e411b0a00000000000000000000000000000000000000000000d3c21bcecceda1000000",
        "nonce": "0x2e5",
        "chainId": "0xaa36a7"
      },
      "additionalContracts": [],
      "isFixedGasLimit": false
    },
    {
      "hash": "0x55cf792a9458fdb5f50eb4eb7af73bdd8ddd4a5f8286ae09b75f364a4945352f",
      "transactionType": "CALL",
      "contractName": null,
      "contractAddress": "0xee3e00d0cea1f7e8f7f5ae0ab171239548bd1b54",
      "function": "approve(address,uint256)",
      "arguments": [
        "0x0C478023803a644c94c4CE1C1e7b9A087e411B0A",
        "1000000000000000000000000"
      ],
      "transaction": {
        "from": "0xac0a4738d4b004f22f11d4bfd29c9c708f35caf0",
        "to": "0xee3e00d0cea1f7e8f7f5ae0ab171239548bd1b54",
        "gas": "0x107dc",
        "value": "0x0",
        "input": "0x095ea7b30000000000000000000000000c478023803a644c94c4ce1c1e7b9a087e411b0a00000000000000000000000000000000000000000000d3c21bcecceda1000000",
        "nonce": "0x2e6",
        "chainId": "0xaa36a7"
      },
      "additionalContracts": [],
      "isFixedGasLimit": false
    },
    {
      "hash": "0xa724014ae49e630a706c5ec6d8176a47081f6df2f3739d9bc7e39dbfd861686f",
      "transactionType": "CALL",
      "contractName": null,
      "contractAddress": "0x95716569a1552f23a399e298e1e0ffb97eafdd99",
      "function": "approve(address,uint256)",
      "arguments": [
        "0x9B6b46e2c869aa39918Db7f52f5557FE577B6eEe",
        "1000000000000000000000000"
      ],
      "transaction": {
        "from": "0xac0a4738d4b004f22f11d4bfd29c9c708f35caf0",
        "to": "0x95716569a1552f23a399e298e1e0ffb97eafdd99",
        "gas": "0x107dc",
        "value": "0x0",
        "input": "0x095ea7b30000000000000000000000009b6b46e2c869aa39918db7f52f5557fe577b6eee00000000000000000000000000000000000000000000d3c21bcecceda1000000",
        "nonce": "0x2e7",
        "chainId": "0xaa36a7"
      },
      "additionalContracts": [],
      "isFixedGasLimit": false
    },
    {
      "hash": "0x2cd84e241b56c6a1daa40c79da0ba79de81f46d681fd7dfd0381f15654224425",
      "transactionType": "CALL",
      "contractName": null,
      "contractAddress": "0xee3e00d0cea1f7e8f7f5ae0ab171239548bd1b54",
      "function": "approve(address,uint256)",
      "arguments": [
        "0x9B6b46e2c869aa39918Db7f52f5557FE577B6eEe",
        "1000000000000000000000000"
      ],
      "transaction": {
        "from": "0xac0a4738d4b004f22f11d4bfd29c9c708f35caf0",
        "to": "0xee3e00d0cea1f7e8f7f5ae0ab171239548bd1b54",
        "gas": "0x107dc",
        "value": "0x0",
        "input": "0x095ea7b30000000000000000000000009b6b46e2c869aa39918db7f52f5557fe577b6eee00000000000000000000000000000000000000000000d3c21bcecceda1000000",
        "nonce": "0x2e8",
        "chainId": "0xaa36a7"
      },
      "additionalContracts": [],
      "isFixedGasLimit": false
    },
    {
      "hash": "0x2f85b0128fdcbf9ed268d0bcae5f3af866827f412d16ca76fedc30c83714ed18",
      "transactionType": "CALL",
      "contractName": null,
      "contractAddress": "0x0c478023803a644c94c4ce1c1e7b9a087e411b0a",
      "function": "modifyLiquidity((address,address,uint24,int24,address),(int24,int24,int256,bytes32),bytes)",
      "arguments": [
        "(0x95716569A1552f23A399E298e1e0Ffb97EAFdd99, 0xeE3E00d0cEa1F7E8F7F5AE0ab171239548bd1b54, 3000, 60, 0x3bcC0548D72427ff60144F437A086d1152d6FfC0)",
        "(-120, 120, 1000000000000000000000, 0x0000000000000000000000000000000000000000000000000000000000000000)",
        "0x"
      ],
      "transaction": {
        "from": "0xac0a4738d4b004f22f11d4bfd29c9c708f35caf0",
        "to": "0x0c478023803a644c94c4ce1c1e7b9a087e411b0a",
        "gas": "0x79c50",
        "value": "0x0",
        "input": "0x5a6bcfda00000000000000000000000095716569a1552f23a399e298e1e0ffb97eafdd99000000000000000000000000ee3e00d0cea1f7e8f7f5ae0ab171239548bd1b540000000000000000000000000000000000000000000000000000000000000bb8000000000000000000000000000000000000000000000000000000000000003c0000000000000000000000003bcc0548d72427ff60144f437a086d1152d6ffc0ffffffffffffffffffffffffffffffffffffffffffffffffffffffffffffff88000000000000000000000000000000000000000000000000000000000000007800000000000000000000000000000000000000000000003635c9adc5dea00000000000000000000000000000000000000000000000000000000000000000000000000000000000000000000000000000000000000000000000000000000001400000000000000000000000000000000000000000000000000000000000000000",
        "nonce": "0x2e9",
        "chainId": "0xaa36a7"
      },
      "additionalContracts": [],
      "isFixedGasLimit": false
    },
    {
      "hash": null,
      "transactionType": "CALL",
      "contractName": null,
      "contractAddress": "0x0c478023803a644c94c4ce1c1e7b9a087e411b0a",
      "function": "modifyLiquidity((address,address,uint24,int24,address),(int24,int24,int256,bytes32),bytes)",
      "arguments": [
        "(0x95716569A1552f23A399E298e1e0Ffb97EAFdd99, 0xeE3E00d0cEa1F7E8F7F5AE0ab171239548bd1b54, 3000, 60, 0x3bcC0548D72427ff60144F437A086d1152d6FfC0)",
        "(-120, 120, 1000000000000000000000, 0x027c21407de4614e4a378d71958f0125a6f2dea0fdec9e0b410987cb8ac3449b)",
        "0x"
      ],
      "transaction": {
        "from": "0xac0a4738d4b004f22f11d4bfd29c9c708f35caf0",
        "to": "0x0c478023803a644c94c4ce1c1e7b9a087e411b0a",
        "gas": "0x49714",
        "value": "0x0",
        "input": "0x5a6bcfda00000000000000000000000095716569a1552f23a399e298e1e0ffb97eafdd99000000000000000000000000ee3e00d0cea1f7e8f7f5ae0ab171239548bd1b540000000000000000000000000000000000000000000000000000000000000bb8000000000000000000000000000000000000000000000000000000000000003c0000000000000000000000003bcc0548d72427ff60144f437a086d1152d6ffc0ffffffffffffffffffffffffffffffffffffffffffffffffffffffffffffff88000000000000000000000000000000000000000000000000000000000000007800000000000000000000000000000000000000000000003635c9adc5dea00000027c21407de4614e4a378d71958f0125a6f2dea0fdec9e0b410987cb8ac3449b00000000000000000000000000000000000000000000000000000000000001400000000000000000000000000000000000000000000000000000000000000000",
        "nonce": "0x2ea",
        "chainId": "0xaa36a7"
      },
      "additionalContracts": [],
      "isFixedGasLimit": false
    },
    {
      "hash": null,
      "transactionType": "CALL",
      "contractName": null,
      "contractAddress": "0x0c478023803a644c94c4ce1c1e7b9a087e411b0a",
      "function": "modifyLiquidity((address,address,uint24,int24,address),(int24,int24,int256,bytes32),bytes)",
      "arguments": [
        "(0x95716569A1552f23A399E298e1e0Ffb97EAFdd99, 0xeE3E00d0cEa1F7E8F7F5AE0ab171239548bd1b54, 3000, 60, 0x3bcC0548D72427ff60144F437A086d1152d6FfC0)",
        "(-540, -480, 1000000000000000000000, 0xe644765996a6e79ec459b24062bf12aeb4cb06346a11821db6ceabc1aeb5b9c7)",
        "0x"
      ],
      "transaction": {
        "from": "0xac0a4738d4b004f22f11d4bfd29c9c708f35caf0",
        "to": "0x0c478023803a644c94c4ce1c1e7b9a087e411b0a",
        "gas": "0x4a856",
        "value": "0x0",
        "input": "0x5a6bcfda00000000000000000000000095716569a1552f23a399e298e1e0ffb97eafdd99000000000000000000000000ee3e00d0cea1f7e8f7f5ae0ab171239548bd1b540000000000000000000000000000000000000000000000000000000000000bb8000000000000000000000000000000000000000000000000000000000000003c0000000000000000000000003bcc0548d72427ff60144f437a086d1152d6ffc0fffffffffffffffffffffffffffffffffffffffffffffffffffffffffffffde4fffffffffffffffffffffffffffffffffffffffffffffffffffffffffffffe2000000000000000000000000000000000000000000000003635c9adc5dea00000e644765996a6e79ec459b24062bf12aeb4cb06346a11821db6ceabc1aeb5b9c700000000000000000000000000000000000000000000000000000000000001400000000000000000000000000000000000000000000000000000000000000000",
        "nonce": "0x2eb",
        "chainId": "0xaa36a7"
      },
      "additionalContracts": [],
      "isFixedGasLimit": false
    },
    {
      "hash": null,
      "transactionType": "CALL",
      "contractName": null,
      "contractAddress": "0x9b6b46e2c869aa39918db7f52f5557fe577b6eee",
      "function": "swap((address,address,uint24,int24,address),(bool,int256,uint160),(bool,bool),bytes)",
      "arguments": [
        "(0x95716569A1552f23A399E298e1e0Ffb97EAFdd99, 0xeE3E00d0cEa1F7E8F7F5AE0ab171239548bd1b54, 3000, 60, 0x3bcC0548D72427ff60144F437A086d1152d6FfC0)",
        "(true, 10000000000000000000, 4295128740)",
        "(false, false)",
        "0x"
      ],
      "transaction": {
        "from": "0xac0a4738d4b004f22f11d4bfd29c9c708f35caf0",
        "to": "0x9b6b46e2c869aa39918db7f52f5557fe577b6eee",
        "gas": "0x43d44",
        "value": "0x0",
        "input": "0x2229d0b400000000000000000000000095716569a1552f23a399e298e1e0ffb97eafdd99000000000000000000000000ee3e00d0cea1f7e8f7f5ae0ab171239548bd1b540000000000000000000000000000000000000000000000000000000000000bb8000000000000000000000000000000000000000000000000000000000000003c0000000000000000000000003bcc0548d72427ff60144f437a086d1152d6ffc000000000000000000000000000000000000000000000000000000000000000010000000000000000000000000000000000000000000000008ac7230489e8000000000000000000000000000000000000000000000000000000000001000276a40000000000000000000000000000000000000000000000000000000000000000000000000000000000000000000000000000000000000000000000000000000000000000000000000000000000000000000000000000000000000000000001600000000000000000000000000000000000000000000000000000000000000000",
        "nonce": "0x2ec",
        "chainId": "0xaa36a7"
      },
      "additionalContracts": [],
      "isFixedGasLimit": false
    }
  ],
  "receipts": [],
  "libraries": [],
  "pending": [
    "0xb7fd8204b8312557de09161a967f76bfb3a18a61d037f5f7c74ab5c1293ee912",
    "0xf8b2c896d6153a750688a24b4feccdb65b5e85ce43843de9494d9d7a3bad0d2d",
    "0x4389f2e4c3cddde64aee840c46411e5f7f840699070f385dc3cb0ad89e11a779",
    "0x55cf792a9458fdb5f50eb4eb7af73bdd8ddd4a5f8286ae09b75f364a4945352f",
    "0xa724014ae49e630a706c5ec6d8176a47081f6df2f3739d9bc7e39dbfd861686f",
    "0x2cd84e241b56c6a1daa40c79da0ba79de81f46d681fd7dfd0381f15654224425",
    "0x2f85b0128fdcbf9ed268d0bcae5f3af866827f412d16ca76fedc30c83714ed18"
  ],
  "returns": {},
  "timestamp": 1765858492314,
  "chain": 11155111,
  "commit": "baec5e5"
}