{
  "transactions": [
    {
      "hash": "0x9ef51a62ffd53c192e40cc7fe93617c6850f9b928eedcacbc069db542a42ac1f",
      "transactionType": "CREATE",
      "contractName": "MockERC20",
      "contractAddress": "0x25d73bee7cab51c2c5e244c94a4b91b1a99c5b06",
      "function": null,
      "arguments": [
        "Token0",
        "TK0",
        "18"
      ],
      "transaction": {
        "from": "0xac0a4738d4b004f22f11d4bfd29c9c708f35caf0",
        "gas": "0xf14c1",
        "value": "0x0",
        "input": "0x60e060405234801561000f575f80fd5b50604051610f9d380380610f9d83398101604081905261002e916101a1565b8282825f61003c84826102a2565b50600161004983826102a2565b5060ff81166080524660a05261005d61006c565b60c052506103cd945050505050565b5f7f8b73c3c69bb8fe3d512ecc4cf759cc79239f7b179b0ffacaa9a75d522b39400f5f60405161009c919061035c565b6040805191829003822060208301939093528101919091527fc89efdaa54c0f20c7adf612882df0950f5a951637e0307cdcb4c672f298b8bc660608201524660808201523060a082015260c00160405160208183030381529060405280519060200120905090565b634e487b7160e01b5f52604160045260245ffd5b5f82601f830112610127575f80fd5b81516001600160401b0381111561014057610140610104565b604051601f8201601f19908116603f011681016001600160401b038111828210171561016e5761016e610104565b604052818152838201602001851015610185575f80fd5b8160208501602083015e5f918101602001919091529392505050565b5f805f606084860312156101b3575f80fd5b83516001600160401b038111156101c8575f80fd5b6101d486828701610118565b602086015190945090506001600160401b038111156101f1575f80fd5b6101fd86828701610118565b925050604084015160ff81168114610213575f80fd5b809150509250925092565b600181811c9082168061023257607f821691505b60208210810361025057634e487b7160e01b5f52602260045260245ffd5b50919050565b601f82111561029d57805f5260205f20601f840160051c8101602085101561027b5750805b601f840160051c820191505b8181101561029a575f8155600101610287565b50505b505050565b81516001600160401b038111156102bb576102bb610104565b6102cf816102c9845461021e565b84610256565b6020601f821160018114610301575f83156102ea5750848201515b5f19600385901b1c1916600184901b17845561029a565b5f84815260208120601f198516915b828110156103305787850151825560209485019460019092019101610310565b508482101561034d57868401515f19600387901b60f8161c191681555b50505050600190811b01905550565b5f8083546103698161021e565b6001821680156103805760018114610395576103c2565b60ff19831686528115158202860193506103c2565b865f5260205f205f5b838110156103ba5781548882015260019091019060200161039e565b505081860193505b509195945050505050565b60805160a05160c051610ba66103f75f395f61046f01525f61043a01525f6101590152610ba65ff3fe608060405234801561000f575f80fd5b50600436106100e5575f3560e01c806370a08231116100885780639dc29fac116100635780639dc29fac146101f0578063a9059cbb14610203578063d505accf14610216578063dd62ed3e14610229575f80fd5b806370a08231146101aa5780637ecebe00146101c957806395d89b41146101e8575f80fd5b806323b872dd116100c357806323b872dd14610141578063313ce567146101545780633644e5151461018d57806340c10f1914610195575f80fd5b806306fdde03146100e9578063095ea7b31461010757806318160ddd1461012a575b5f80fd5b6100f1610253565b6040516100fe91906108f2565b60405180910390f35b61011a610115366004610942565b6102de565b60405190151581526020016100fe565b61013360025481565b6040519081526020016100fe565b61011a61014f36600461096a565b61034a565b61017b7f000000000000000000000000000000000000000000000000000000000000000081565b60405160ff90911681526020016100fe565b610133610437565b6101a86101a3366004610942565b610491565b005b6101336101b83660046109a4565b60036020525f908152604090205481565b6101336101d73660046109a4565b60056020525f908152604090205481565b6100f161049f565b6101a86101fe366004610942565b6104ac565b61011a610211366004610942565b6104b6565b6101a86102243660046109c4565b61052c565b610133610237366004610a31565b600460209081525f928352604080842090915290825290205481565b5f805461025f90610a62565b80601f016020809104026020016040519081016040528092919081815260200182805461028b90610a62565b80156102d65780601f106102ad576101008083540402835291602001916102d6565b820191905f5260205f20905b8154815290600101906020018083116102b957829003601f168201915b505050505081565b335f8181526004602090815260408083206001600160a01b038716808552925280832085905551919290917f8c5be1e5ebec7d5bd14f71427d1e84f3dd0314c0f7b2291e5b200ac8c7c3b925906103389086815260200190565b60405180910390a35060015b92915050565b6001600160a01b0383165f9081526004602090815260408083203384529091528120545f1981146103a35761037f8382610aae565b6001600160a01b0386165f9081526004602090815260408083203384529091529020555b6001600160a01b0385165f90815260036020526040812080548592906103ca908490610aae565b90915550506001600160a01b038085165f81815260036020526040908190208054870190555190918716907fddf252ad1be2c89b69c2b068fc378daa952ba7f163c4a11628f55a4df523b3ef906104249087815260200190565b60405180910390a3506001949350505050565b5f7f0000000000000000000000000000000000000000000000000000000000000000461461046c5761046761077e565b905090565b507f000000000000000000000000000000000000000000000000000000000000000090565b61049b8282610816565b5050565b6001805461025f90610a62565b61049b8282610880565b335f908152600360205260408120805483919083906104d6908490610aae565b90915550506001600160a01b0383165f81815260036020526040908190208054850190555133907fddf252ad1be2c89b69c2b068fc378daa952ba7f163c4a11628f55a4df523b3ef906103389086815260200190565b428410156105815760405162461bcd60e51b815260206004820152601760248201527f5045524d49545f444541444c494e455f4558504952454400000000000000000060448201526064015b60405180910390fd5b5f600161058c610437565b6001600160a01b038a81165f8181526005602090815260409182902080546001810190915582517f6e71edae12b1b97f4d1f60370fef10105fa2faae0126114a169c64845d6126c98184015280840194909452938d166060840152608083018c905260a083019390935260c08083018b90528151808403909101815260e08301909152805192019190912061190160f01b6101008301526101028201929092526101228101919091526101420160408051601f1981840301815282825280516020918201205f84529083018083525260ff871690820152606081018590526080810184905260a0016020604051602081039080840390855afa158015610694573d5f803e3d5ffd5b5050604051601f1901519150506001600160a01b038116158015906106ca5750876001600160a01b0316816001600160a01b0316145b6107165760405162461bcd60e51b815260206004820152600e60248201527f494e56414c49445f5349474e45520000000000000000000000000000000000006044820152606401610578565b6001600160a01b039081165f9081526004602090815260408083208a8516808552908352928190208990555188815291928a16917f8c5be1e5ebec7d5bd14f71427d1e84f3dd0314c0f7b2291e5b200ac8c7c3b925910160405180910390a350505050505050565b5f7f8b73c3c69bb8fe3d512ecc4cf759cc79239f7b179b0ffacaa9a75d522b39400f5f6040516107ae9190610ac1565b6040805191829003822060208301939093528101919091527fc89efdaa54c0f20c7adf612882df0950f5a951637e0307cdcb4c672f298b8bc660608201524660808201523060a082015260c00160405160208183030381529060405280519060200120905090565b8060025f8282546108279190610b5d565b90915550506001600160a01b0382165f818152600360209081526040808320805486019055518481527fddf252ad1be2c89b69c2b068fc378daa952ba7f163c4a11628f55a4df523b3ef91015b60405180910390a35050565b6001600160a01b0382165f90815260036020526040812080548392906108a7908490610aae565b90915550506002805482900390556040518181525f906001600160a01b038416907fddf252ad1be2c89b69c2b068fc378daa952ba7f163c4a11628f55a4df523b3ef90602001610874565b602081525f82518060208401528060208501604085015e5f604082850101526040601f19601f83011684010191505092915050565b80356001600160a01b038116811461093d575f80fd5b919050565b5f8060408385031215610953575f80fd5b61095c83610927565b946020939093013593505050565b5f805f6060848603121561097c575f80fd5b61098584610927565b925061099360208501610927565b929592945050506040919091013590565b5f602082840312156109b4575f80fd5b6109bd82610927565b9392505050565b5f805f805f805f60e0888a0312156109da575f80fd5b6109e388610927565b96506109f160208901610927565b95506040880135945060608801359350608088013560ff81168114610a14575f80fd5b9699959850939692959460a0840135945060c09093013592915050565b5f8060408385031215610a42575f80fd5b610a4b83610927565b9150610a5960208401610927565b90509250929050565b600181811c90821680610a7657607f821691505b602082108103610a9457634e487b7160e01b5f52602260045260245ffd5b50919050565b634e487b7160e01b5f52601160045260245ffd5b8181038181111561034457610344610a9a565b5f8083545f8160011c90506001821680610adc57607f821691505b602082108103610afa57634e487b7160e01b5f52602260045260245ffd5b808015610b0e5760018114610b2357610b51565b60ff1984168752821515830287019450610b51565b5f888152602090205f5b84811015610b4957815489820152600190910190602001610b2d565b505082870194505b50929695505050505050565b8082018082111561034457610344610a9a56fea2646970667358221220455938fea4390139a28a7863716c2f50a90158e32db05181a34bf5ec02793c0564736f6c634300081a0033000000000000000000000000000000000000000000000000000000000000006000000000000000000000000000000000000000000000000000000000000000a000000000000000000000000000000000000000000000000000000000000000120000000000000000000000000000000000000000000000000000000000000006546f6b656e3000000000000000000000000000000000000000000000000000000000000000000000000000000000000000000000000000000000000000000003544b300000000000000000000000000000000000000000000000000000000000",
        "nonce": "0x240",
        "chainId": "0xaa36a7"
      },
      "additionalContracts": [],
      "isFixedGasLimit": false
    },
    {
      "hash": "0x6bfe57174f91a73e93e9ac523279e8f4af21d89b3fc3cd3baa58da3673b4e0a6",
      "transactionType": "CREATE",
      "contractName": "MockERC20",
      "contractAddress": "0xd4243a092da2a3cc9ade083484717be8a79dbe8d",
      "function": null,
      "arguments": [
        "Token1",
        "TK1",
        "18"
      ],
      "transaction": {
        "from": "0xac0a4738d4b004f22f11d4bfd29c9c708f35caf0",
        "gas": "0xf14c1",
        "value": "0x0",
        "input": "0x60e060405234801561000f575f80fd5b50604051610f9d380380610f9d83398101604081905261002e916101a1565b8282825f61003c84826102a2565b50600161004983826102a2565b5060ff81166080524660a05261005d61006c565b60c052506103cd945050505050565b5f7f8b73c3c69bb8fe3d512ecc4cf759cc79239f7b179b0ffacaa9a75d522b39400f5f60405161009c919061035c565b6040805191829003822060208301939093528101919091527fc89efdaa54c0f20c7adf612882df0950f5a951637e0307cdcb4c672f298b8bc660608201524660808201523060a082015260c00160405160208183030381529060405280519060200120905090565b634e487b7160e01b5f52604160045260245ffd5b5f82601f830112610127575f80fd5b81516001600160401b0381111561014057610140610104565b604051601f8201601f19908116603f011681016001600160401b038111828210171561016e5761016e610104565b604052818152838201602001851015610185575f80fd5b8160208501602083015e5f918101602001919091529392505050565b5f805f606084860312156101b3575f80fd5b83516001600160401b038111156101c8575f80fd5b6101d486828701610118565b602086015190945090506001600160401b038111156101f1575f80fd5b6101fd86828701610118565b925050604084015160ff81168114610213575f80fd5b809150509250925092565b600181811c9082168061023257607f821691505b60208210810361025057634e487b7160e01b5f52602260045260245ffd5b50919050565b601f82111561029d57805f5260205f20601f840160051c8101602085101561027b5750805b601f840160051c820191505b8181101561029a575f8155600101610287565b50505b505050565b81516001600160401b038111156102bb576102bb610104565b6102cf816102c9845461021e565b84610256565b6020601f821160018114610301575f83156102ea5750848201515b5f19600385901b1c1916600184901b17845561029a565b5f84815260208120601f198516915b828110156103305787850151825560209485019460019092019101610310565b508482101561034d57868401515f19600387901b60f8161c191681555b50505050600190811b01905550565b5f8083546103698161021e565b6001821680156103805760018114610395576103c2565b60ff19831686528115158202860193506103c2565b865f5260205f205f5b838110156103ba5781548882015260019091019060200161039e565b505081860193505b509195945050505050565b60805160a05160c051610ba66103f75f395f61046f01525f61043a01525f6101590152610ba65ff3fe608060405234801561000f575f80fd5b50600436106100e5575f3560e01c806370a08231116100885780639dc29fac116100635780639dc29fac146101f0578063a9059cbb14610203578063d505accf14610216578063dd62ed3e14610229575f80fd5b806370a08231146101aa5780637ecebe00146101c957806395d89b41146101e8575f80fd5b806323b872dd116100c357806323b872dd14610141578063313ce567146101545780633644e5151461018d57806340c10f1914610195575f80fd5b806306fdde03146100e9578063095ea7b31461010757806318160ddd1461012a575b5f80fd5b6100f1610253565b6040516100fe91906108f2565b60405180910390f35b61011a610115366004610942565b6102de565b60405190151581526020016100fe565b61013360025481565b6040519081526020016100fe565b61011a61014f36600461096a565b61034a565b61017b7f000000000000000000000000000000000000000000000000000000000000000081565b60405160ff90911681526020016100fe565b610133610437565b6101a86101a3366004610942565b610491565b005b6101336101b83660046109a4565b60036020525f908152604090205481565b6101336101d73660046109a4565b60056020525f908152604090205481565b6100f161049f565b6101a86101fe366004610942565b6104ac565b61011a610211366004610942565b6104b6565b6101a86102243660046109c4565b61052c565b610133610237366004610a31565b600460209081525f928352604080842090915290825290205481565b5f805461025f90610a62565b80601f016020809104026020016040519081016040528092919081815260200182805461028b90610a62565b80156102d65780601f106102ad576101008083540402835291602001916102d6565b820191905f5260205f20905b8154815290600101906020018083116102b957829003601f168201915b505050505081565b335f8181526004602090815260408083206001600160a01b038716808552925280832085905551919290917f8c5be1e5ebec7d5bd14f71427d1e84f3dd0314c0f7b2291e5b200ac8c7c3b925906103389086815260200190565b60405180910390a35060015b92915050565b6001600160a01b0383165f9081526004602090815260408083203384529091528120545f1981146103a35761037f8382610aae565b6001600160a01b0386165f9081526004602090815260408083203384529091529020555b6001600160a01b0385165f90815260036020526040812080548592906103ca908490610aae565b90915550506001600160a01b038085165f81815260036020526040908190208054870190555190918716907fddf252ad1be2c89b69c2b068fc378daa952ba7f163c4a11628f55a4df523b3ef906104249087815260200190565b60405180910390a3506001949350505050565b5f7f0000000000000000000000000000000000000000000000000000000000000000461461046c5761046761077e565b905090565b507f000000000000000000000000000000000000000000000000000000000000000090565b61049b8282610816565b5050565b6001805461025f90610a62565b61049b8282610880565b335f908152600360205260408120805483919083906104d6908490610aae565b90915550506001600160a01b0383165f81815260036020526040908190208054850190555133907fddf252ad1be2c89b69c2b068fc378daa952ba7f163c4a11628f55a4df523b3ef906103389086815260200190565b428410156105815760405162461bcd60e51b815260206004820152601760248201527f5045524d49545f444541444c494e455f4558504952454400000000000000000060448201526064015b60405180910390fd5b5f600161058c610437565b6001600160a01b038a81165f8181526005602090815260409182902080546001810190915582517f6e71edae12b1b97f4d1f60370fef10105fa2faae0126114a169c64845d6126c98184015280840194909452938d166060840152608083018c905260a083019390935260c08083018b90528151808403909101815260e08301909152805192019190912061190160f01b6101008301526101028201929092526101228101919091526101420160408051601f1981840301815282825280516020918201205f84529083018083525260ff871690820152606081018590526080810184905260a0016020604051602081039080840390855afa158015610694573d5f803e3d5ffd5b5050604051601f1901519150506001600160a01b038116158015906106ca5750876001600160a01b0316816001600160a01b0316145b6107165760405162461bcd60e51b815260206004820152600e60248201527f494e56414c49445f5349474e45520000000000000000000000000000000000006044820152606401610578565b6001600160a01b039081165f9081526004602090815260408083208a8516808552908352928190208990555188815291928a16917f8c5be1e5ebec7d5bd14f71427d1e84f3dd0314c0f7b2291e5b200ac8c7c3b925910160405180910390a350505050505050565b5f7f8b73c3c69bb8fe3d512ecc4cf759cc79239f7b179b0ffacaa9a75d522b39400f5f6040516107ae9190610ac1565b6040805191829003822060208301939093528101919091527fc89efdaa54c0f20c7adf612882df0950f5a951637e0307cdcb4c672f298b8bc660608201524660808201523060a082015260c00160405160208183030381529060405280519060200120905090565b8060025f8282546108279190610b5d565b90915550506001600160a01b0382165f818152600360209081526040808320805486019055518481527fddf252ad1be2c89b69c2b068fc378daa952ba7f163c4a11628f55a4df523b3ef91015b60405180910390a35050565b6001600160a01b0382165f90815260036020526040812080548392906108a7908490610aae565b90915550506002805482900390556040518181525f906001600160a01b038416907fddf252ad1be2c89b69c2b068fc378daa952ba7f163c4a11628f55a4df523b3ef90602001610874565b602081525f82518060208401528060208501604085015e5f604082850101526040601f19601f83011684010191505092915050565b80356001600160a01b038116811461093d575f80fd5b919050565b5f8060408385031215610953575f80fd5b61095c83610927565b946020939093013593505050565b5f805f6060848603121561097c575f80fd5b61098584610927565b925061099360208501610927565b929592945050506040919091013590565b5f602082840312156109b4575f80fd5b6109bd82610927565b9392505050565b5f805f805f805f60e0888a0312156109da575f80fd5b6109e388610927565b96506109f160208901610927565b95506040880135945060608801359350608088013560ff81168114610a14575f80fd5b9699959850939692959460a0840135945060c09093013592915050565b5f8060408385031215610a42575f80fd5b610a4b83610927565b9150610a5960208401610927565b90509250929050565b600181811c90821680610a7657607f821691505b602082108103610a9457634e487b7160e01b5f52602260045260245ffd5b50919050565b634e487b7160e01b5f52601160045260245ffd5b8181038181111561034457610344610a9a565b5f8083545f8160011c90506001821680610adc57607f821691505b602082108103610afa57634e487b7160e01b5f52602260045260245ffd5b808015610b0e5760018114610b2357610b51565b60ff1984168752821515830287019450610b51565b5f888152602090205f5b84811015610b4957815489820152600190910190602001610b2d565b505082870194505b50929695505050505050565b8082018082111561034457610344610a9a56fea2646970667358221220455938fea4390139a28a7863716c2f50a90158e32db05181a34bf5ec02793c0564736f6c634300081a0033000000000000000000000000000000000000000000000000000000000000006000000000000000000000000000000000000000000000000000000000000000a000000000000000000000000000000000000000000000000000000000000000120000000000000000000000000000000000000000000000000000000000000006546f6b656e3100000000000000000000000000000000000000000000000000000000000000000000000000000000000000000000000000000000000000000003544b310000000000000000000000000000000000000000000000000000000000",
        "nonce": "0x241",
        "chainId": "0xaa36a7"
      },
      "additionalContracts": [],
      "isFixedGasLimit": false
    },
    {
      "hash": "0xc132247bf2d638a679a3569f339110840442497ee2ec0644894fbecb28c6decb",
      "transactionType": "CALL",
      "contractName": "MockERC20",
      "contractAddress": "0x25d73bee7cab51c2c5e244c94a4b91b1a99c5b06",
      "function": "approve(address,uint256)",
      "arguments": [
        "0x0C478023803a644c94c4CE1C1e7b9A087e411B0A",
        "115792089237316195423570985008687907853269984665640564039457584007913129639935"
      ],
      "transaction": {
        "from": "0xac0a4738d4b004f22f11d4bfd29c9c708f35caf0",
        "to": "0x25d73bee7cab51c2c5e244c94a4b91b1a99c5b06",
        "gas": "0xfad1",
        "value": "0x0",
        "input": "0x095ea7b30000000000000000000000000c478023803a644c94c4ce1c1e7b9a087e411b0affffffffffffffffffffffffffffffffffffffffffffffffffffffffffffffff",
        "nonce": "0x242",
        "chainId": "0xaa36a7"
      },
      "additionalContracts": [],
      "isFixedGasLimit": false
    },
    {
      "hash": "0x1249d2e24568926a11436634b6f7cabc577dd09c32211de9ee6e296700b09eb7",
      "transactionType": "CALL",
      "contractName": "MockERC20",
      "contractAddress": "0xd4243a092da2a3cc9ade083484717be8a79dbe8d",
      "function": "approve(address,uint256)",
      "arguments": [
        "0x0C478023803a644c94c4CE1C1e7b9A087e411B0A",
        "115792089237316195423570985008687907853269984665640564039457584007913129639935"
      ],
      "transaction": {
        "from": "0xac0a4738d4b004f22f11d4bfd29c9c708f35caf0",
        "to": "0xd4243a092da2a3cc9ade083484717be8a79dbe8d",
        "gas": "0xfad1",
        "value": "0x0",
        "input": "0x095ea7b30000000000000000000000000c478023803a644c94c4ce1c1e7b9a087e411b0affffffffffffffffffffffffffffffffffffffffffffffffffffffffffffffff",
        "nonce": "0x243",
        "chainId": "0xaa36a7"
      },
      "additionalContracts": [],
      "isFixedGasLimit": false
    },
    {
      "hash": "0x474f3c4e1f4d184956295af88c47a60386846041277b1c9338c4939f611a4698",
      "transactionType": "CALL",
      "contractName": "MockERC20",
      "contractAddress": "0x25d73bee7cab51c2c5e244c94a4b91b1a99c5b06",
      "function": "approve(address,uint256)",
      "arguments": [
        "0x9B6b46e2c869aa39918Db7f52f5557FE577B6eEe",
        "115792089237316195423570985008687907853269984665640564039457584007913129639935"
      ],
      "transaction": {
        "from": "0xac0a4738d4b004f22f11d4bfd29c9c708f35caf0",
        "to": "0x25d73bee7cab51c2c5e244c94a4b91b1a99c5b06",
        "gas": "0xfad1",
        "value": "0x0",
        "input": "0x095ea7b30000000000000000000000009b6b46e2c869aa39918db7f52f5557fe577b6eeeffffffffffffffffffffffffffffffffffffffffffffffffffffffffffffffff",
        "nonce": "0x244",
        "chainId": "0xaa36a7"
      },
      "additionalContracts": [],
      "isFixedGasLimit": false
    },
    {
      "hash": "0xc8b785410312fc02525b773fd317f132d4b2ec4c6609789273718a4733a28b23",
      "transactionType": "CALL",
      "contractName": "MockERC20",
      "contractAddress": "0xd4243a092da2a3cc9ade083484717be8a79dbe8d",
      "function": "approve(address,uint256)",
      "arguments": [
        "0x9B6b46e2c869aa39918Db7f52f5557FE577B6eEe",
        "115792089237316195423570985008687907853269984665640564039457584007913129639935"
      ],
      "transaction": {
        "from": "0xac0a4738d4b004f22f11d4bfd29c9c708f35caf0",
        "to": "0xd4243a092da2a3cc9ade083484717be8a79dbe8d",
        "gas": "0xfad1",
        "value": "0x0",
        "input": "0x095ea7b30000000000000000000000009b6b46e2c869aa39918db7f52f5557fe577b6eeeffffffffffffffffffffffffffffffffffffffffffffffffffffffffffffffff",
        "nonce": "0x245",
        "chainId": "0xaa36a7"
      },
      "additionalContracts": [],
      "isFixedGasLimit": false
    },
    {
      "hash": "0x62e0c56433d95c1b985b7a95c806aabfcac0c018e51975af39e291ab92da4ddb",
      "transactionType": "CALL",
      "contractName": "MockERC20",
      "contractAddress": "0x25d73bee7cab51c2c5e244c94a4b91b1a99c5b06",
      "function": "mint(address,uint256)",
      "arguments": [
        "0xac0A4738d4B004F22F11D4BFd29C9c708F35caf0",
        "100000000000000000000"
      ],
      "transaction": {
        "from": "0xac0a4738d4b004f22f11d4bfd29c9c708f35caf0",
        "to": "0x25d73bee7cab51c2c5e244c94a4b91b1a99c5b06",
        "gas": "0x17086",
        "value": "0x0",
        "input": "0x40c10f19000000000000000000000000ac0a4738d4b004f22f11d4bfd29c9c708f35caf00000000000000000000000000000000000000000000000056bc75e2d63100000",
        "nonce": "0x246",
        "chainId": "0xaa36a7"
      },
      "additionalContracts": [],
      "isFixedGasLimit": false
    },
    {
      "hash": "0xff6cd6c159092c694e7e1dc327986a97e9fd672cd11372561d49c0bd562ab008",
      "transactionType": "CALL",
      "contractName": "MockERC20",
      "contractAddress": "0xd4243a092da2a3cc9ade083484717be8a79dbe8d",
      "function": "mint(address,uint256)",
      "arguments": [
        "0xac0A4738d4B004F22F11D4BFd29C9c708F35caf0",
        "100000000000000000000"
      ],
      "transaction": {
        "from": "0xac0a4738d4b004f22f11d4bfd29c9c708f35caf0",
        "to": "0xd4243a092da2a3cc9ade083484717be8a79dbe8d",
        "gas": "0x17086",
        "value": "0x0",
        "input": "0x40c10f19000000000000000000000000ac0a4738d4b004f22f11d4bfd29c9c708f35caf00000000000000000000000000000000000000000000000056bc75e2d63100000",
        "nonce": "0x247",
        "chainId": "0xaa36a7"
      },
      "additionalContracts": [],
      "isFixedGasLimit": false
    },
    {
      "hash": "0xdbb6afde318c93bedbc0f9c091d3c9f90197ccc3375018e2ac2027ff65655274",
      "transactionType": "CREATE2",
      "contractName": "BasicHook",
      "contractAddress": "0xe4aaeb4b1df6ad65735036d83c13c7bd840b0080",
      "function": null,
      "arguments": [
        "0xE03A1074c86CFeDd5C142C4F04F1a1536e203543"
      ],
      "transaction": {
        "from": "0xac0a4738d4b004f22f11d4bfd29c9c708f35caf0",
        "to": "0x4e59b44847b379578588920ca78fbf26c0b4956c",
        "gas": "0xe877a",
        "value": "0x0",
        "input": "0x0000000000000000000000000000000000000000000000000000000000001ab560a060405234801561000f575f80fd5b50604051610e5c380380610e5c83398101604081905261002e916102a4565b6001600160a01b038116608052806100453061004c565b50506102d1565b61013c81610137604080516101c0810182525f80825260208201819052918101829052606081018290526080810182905260a0810182905260c0810182905260e08101829052610100810182905261012081018290526101408101829052610160810182905261018081018290526101a081019190915250604080516101c0810182525f80825260208201819052918101829052606081018290526080810182905260a08101829052600160c082015260e08101829052610100810182905261012081018290526101408101829052610160810182905261018081018290526101a081019190915290565b61013f565b50565b80511515612000831615151415806101635750602081015115156110008316151514155b8061017a5750604081015115156108008316151514155b806101915750606081015115156104008316151514155b806101a85750608081015115156102008316151514155b806101bf575060a081015115156101008316151514155b806101d5575060c0810151151560808316151514155b806101eb575060e0810151151560408316151514155b806102025750610100810151151560208316151514155b806102195750610120810151151560108316151514155b806102305750610140810151151560088316151514155b806102475750610160810151151560048316151514155b8061025e5750610180810151151560028316151514155b8061027557506101a0810151151560018316151514155b1561028b5761028b630732d7b560e51b8361028f565b5050565b815f526001600160a01b03811660045260245ffd5b5f602082840312156102b4575f80fd5b81516001600160a01b03811681146102ca575f80fd5b9392505050565b608051610b4261031a5f395f81816102eb01528181610344015281816103a70152818161041001528181610479015281816104d90152818161054001526105a30152610b425ff3fe608060405234801561000f575f80fd5b50600436106100da575f3560e01c8063b47b2fb111610088578063c4e833ce11610063578063c4e833ce146101f2578063dc4c90d3146102e6578063dc98354e14610325578063e1b4af69146101c9575f80fd5b8063b47b2fb114610193578063b6a8b0fa146101c9578063bfb6c95e146101dc575f80fd5b80636c2bbe7e116100b85780636c2bbe7e1461014d5780636fe7e6eb146101805780639f063efc1461014d575f80fd5b806321d0ee70146100de578063259982e5146100de578063575e24b41461010f575b5f80fd5b6100f16100ec3660046106da565b610338565b6040516001600160e01b031990911681526020015b60405180910390f35b61012261011d366004610761565b610399565b604080516001600160e01b03199094168452602084019290925262ffffff1690820152606001610106565b61016061015b3660046107bb565b610403565b604080516001600160e01b03199093168352602083019190915201610106565b6100f161018e366004610846565b61046d565b6101a66101a13660046108a5565b6104cc565b604080516001600160e01b03199093168352600f9190910b602083015201610106565b6100f16101d7366004610926565b610534565b6101e45f5481565b604051908152602001610106565b6102d9604080516101c0810182525f80825260208201819052918101829052606081018290526080810182905260a0810182905260c0810182905260e08101829052610100810182905261012081018290526101408101829052610160810182905261018081018290526101a081019190915250604080516101c0810182525f80825260208201819052918101829052606081018290526080810182905260a08101829052600160c082015260e08101829052610100810182905261012081018290526101408101829052610160810182905261018081018290526101a081019190915290565b6040516101069190610980565b61030d7f000000000000000000000000000000000000000000000000000000000000000081565b6040516001600160a01b039091168152602001610106565b6100f1610333366004610aa1565b610597565b5f336001600160a01b037f000000000000000000000000000000000000000000000000000000000000000016146103825760405163570c108560e11b815260040160405180910390fd5b61038f86868686866105f4565b9695505050505050565b5f8080336001600160a01b037f000000000000000000000000000000000000000000000000000000000000000016146103e55760405163570c108560e11b815260040160405180910390fd5b6103f2888888888861060e565b925092509250955095509592505050565b5f80336001600160a01b037f0000000000000000000000000000000000000000000000000000000000000000161461044e5760405163570c108560e11b815260040160405180910390fd5b61045d8989898989898961063d565b9150915097509795505050505050565b5f336001600160a01b037f000000000000000000000000000000000000000000000000000000000000000016146104b75760405163570c108560e11b815260040160405180910390fd5b6104c3858585856105f4565b95945050505050565b5f80336001600160a01b037f000000000000000000000000000000000000000000000000000000000000000016146105175760405163570c108560e11b815260040160405180910390fd5b61052588888888888861063d565b91509150965096945050505050565b5f336001600160a01b037f0000000000000000000000000000000000000000000000000000000000000000161461057e5760405163570c108560e11b815260040160405180910390fd5b61058c8787878787876105f4565b979650505050505050565b5f336001600160a01b037f000000000000000000000000000000000000000000000000000000000000000016146105e15760405163570c108560e11b815260040160405180910390fd5b6105ec8484846105f4565b949350505050565b5f604051630a85dc2960e01b815260040160405180910390fd5b5f805481908190818061062083610ae8565b909155506315d7892d60e21b995f99508998509650505050505050565b5f80604051630a85dc2960e01b815260040160405180910390fd5b6001600160a01b038116811461066c575f80fd5b50565b5f60a0828403121561067f575f80fd5b50919050565b5f6080828403121561067f575f80fd5b5f8083601f8401126106a5575f80fd5b50813567ffffffffffffffff8111156106bc575f80fd5b6020830191508360208285010111156106d3575f80fd5b9250929050565b5f805f805f61016086880312156106ef575f80fd5b85356106fa81610658565b9450610709876020880161066f565b93506107188760c08801610685565b925061014086013567ffffffffffffffff811115610734575f80fd5b61074088828901610695565b969995985093965092949392505050565b5f6060828403121561067f575f80fd5b5f805f805f6101408688031215610776575f80fd5b853561078181610658565b9450610790876020880161066f565b935061079f8760c08801610751565b925061012086013567ffffffffffffffff811115610734575f80fd5b5f805f805f805f6101a0888a0312156107d2575f80fd5b87356107dd81610658565b96506107ec8960208a0161066f565b95506107fb8960c08a01610685565b94506101408801359350610160880135925061018088013567ffffffffffffffff811115610827575f80fd5b6108338a828b01610695565b989b979a50959850939692959293505050565b5f805f80610100858703121561085a575f80fd5b843561086581610658565b9350610874866020870161066f565b925060c085013561088481610658565b915060e0850135600281900b811461089a575f80fd5b939692955090935050565b5f805f805f8061016087890312156108bb575f80fd5b86356108c681610658565b95506108d5886020890161066f565b94506108e48860c08901610751565b9350610120870135925061014087013567ffffffffffffffff811115610908575f80fd5b61091489828a01610695565b979a9699509497509295939492505050565b5f805f805f80610120878903121561093c575f80fd5b863561094781610658565b9550610956886020890161066f565b945060c0870135935060e0870135925061010087013567ffffffffffffffff811115610908575f80fd5b8151151581526101c08101602083015161099e602084018215159052565b5060408301516109b2604084018215159052565b5060608301516109c6606084018215159052565b5060808301516109da608084018215159052565b5060a08301516109ee60a084018215159052565b5060c0830151610a0260c084018215159052565b5060e0830151610a1660e084018215159052565b50610100830151610a2c61010084018215159052565b50610120830151610a4261012084018215159052565b50610140830151610a5861014084018215159052565b50610160830151610a6e61016084018215159052565b50610180830151610a8461018084018215159052565b506101a0830151610a9a6101a084018215159052565b5092915050565b5f805f60e08486031215610ab3575f80fd5b8335610abe81610658565b9250610acd856020860161066f565b915060c0840135610add81610658565b809150509250925092565b5f60018201610b0557634e487b7160e01b5f52601160045260245ffd5b506001019056fea2646970667358221220a36b99cfb6bdac6b0f9c32f794d28167bbbc6c59fd57b6e44c3ce8e78ecbcf4164736f6c634300081a0033000000000000000000000000e03a1074c86cfedd5c142c4f04f1a1536e203543",
        "nonce": "0x248",
        "chainId": "0xaa36a7"
      },
      "additionalContracts": [],
      "isFixedGasLimit": false
    },
    {
      "hash": "0x45f7074e1ac22ff4afb52c2850103ce8a695f879e9918b4d2df48944bd1641fa",
      "transactionType": "CALL",
      "contractName": null,
      "contractAddress": "0xe03a1074c86cfedd5c142c4f04f1a1536e203543",
      "function": "initialize((address,address,uint24,int24,address),uint160)",
      "arguments": [
        "(0x25D73bEe7CAb51c2c5E244c94a4B91b1A99C5B06, 0xd4243A092DA2A3cc9adE083484717be8a79Dbe8D, 3000, 60, 0xe4AaEb4b1Df6aD65735036d83c13c7BD840b0080)",
        "79228162514264337593543950336"
      ],
      "transaction": {
        "from": "0xac0a4738d4b004f22f11d4bfd29c9c708f35caf0",
        "to": "0xe03a1074c86cfedd5c142c4f04f1a1536e203543",
        "gas": "0x11738",
        "value": "0x0",
        "input": "0x6276cbbe00000000000000000000000025d73bee7cab51c2c5e244c94a4b91b1a99c5b06000000000000000000000000d4243a092da2a3cc9ade083484717be8a79dbe8d0000000000000000000000000000000000000000000000000000000000000bb8000000000000000000000000000000000000000000000000000000000000003c000000000000000000000000e4aaeb4b1df6ad65735036d83c13c7bd840b00800000000000000000000000000000000000000001000000000000000000000000",
        "nonce": "0x249",
        "chainId": "0xaa36a7"
      },
      "additionalContracts": [],
      "isFixedGasLimit": false
    },
    {
      "hash": "0x57c5a173d466951ac3b74c95ed35462b29289537a0466bad73294a192fae06c2",
      "transactionType": "CALL",
      "contractName": null,
      "contractAddress": "0x0c478023803a644c94c4ce1c1e7b9a087e411b0a",
      "function": "modifyLiquidity((address,address,uint24,int24,address),(int24,int24,int256,bytes32),bytes)",
      "arguments": [
        "(0x25D73bEe7CAb51c2c5E244c94a4B91b1A99C5B06, 0xd4243A092DA2A3cc9adE083484717be8a79Dbe8D, 3000, 60, 0xe4AaEb4b1Df6aD65735036d83c13c7BD840b0080)",
        "(-120, 120, 10000000000000000000, 0x0000000000000000000000000000000000000000000000000000000000000000)",
        "0x"
      ],
      "transaction": {
        "from": "0xac0a4738d4b004f22f11d4bfd29c9c708f35caf0",
        "to": "0x0c478023803a644c94c4ce1c1e7b9a087e411b0a",
        "gas": "0x68d46",
        "value": "0x0",
        "input": "0x5a6bcfda00000000000000000000000025d73bee7cab51c2c5e244c94a4b91b1a99c5b06000000000000000000000000d4243a092da2a3cc9ade083484717be8a79dbe8d0000000000000000000000000000000000000000000000000000000000000bb8000000000000000000000000000000000000000000000000000000000000003c000000000000000000000000e4aaeb4b1df6ad65735036d83c13c7bd840b0080ffffffffffffffffffffffffffffffffffffffffffffffffffffffffffffff8800000000000000000000000000000000000000000000000000000000000000780000000000000000000000000000000000000000000000008ac7230489e80000000000000000000000000000000000000000000000000000000000000000000000000000000000000000000000000000000000000000000000000000000001400000000000000000000000000000000000000000000000000000000000000000",
        "nonce": "0x24a",
        "chainId": "0xaa36a7"
      },
      "additionalContracts": [],
      "isFixedGasLimit": false
    }
  ],
  "receipts": [
    {
      "status": "0x1",
      "cumulativeGasUsed": "0x1ced3bc",
      "logs": [],
      "logsBloom": "0x00000000000000000000000000000000000000000000000000000000000000000000000000000000000000000000000000000000000000000000000000000000000000000000000000000000000000000000000000000000000000000000000000000000000000000000000000000000000000000000000000000000000000000000000000000000000000000000000000000000000000000000000000000000000000000000000000000000000000000000000000000000000000000000000000000000000000000000000000000000000000000000000000000000000000000000000000000000000000000000000000000000000000000000000000000000",
      "type": "0x0",
      "transactionHash": "0x9ef51a62ffd53c192e40cc7fe93617c6850f9b928eedcacbc069db542a42ac1f",
      "transactionIndex": "0x4b",
      "blockHash": "0xd39db2149782610ebd4373a34313240b4ae933b4f27a1785e988488a7cc24993",
      "blockNumber": "0x9509d9",
      "gasUsed": "0xb99d0",
      "effectiveGasPrice": "0xf49c7",
      "from": "0xac0a4738d4b004f22f11d4bfd29c9c708f35caf0",
      "to": null,
      "contractAddress": "0x25d73bee7cab51c2c5e244c94a4b91b1a99c5b06"
    },
    {
      "status": "0x1",
      "cumulativeGasUsed": "0x1ae88e2",
      "logs": [],
      "logsBloom": "0x00000000000000000000000000000000000000000000000000000000000000000000000000000000000000000000000000000000000000000000000000000000000000000000000000000000000000000000000000000000000000000000000000000000000000000000000000000000000000000000000000000000000000000000000000000000000000000000000000000000000000000000000000000000000000000000000000000000000000000000000000000000000000000000000000000000000000000000000000000000000000000000000000000000000000000000000000000000000000000000000000000000000000000000000000000000",
      "type": "0x0",
      "transactionHash": "0x6bfe57174f91a73e93e9ac523279e8f4af21d89b3fc3cd3baa58da3673b4e0a6",
      "transactionIndex": "0x76",
      "blockHash": "0xd39dc953f0c07dea668c2c4dcd87d7ca91805a5e2ef9d9cbac1208c06ef3ba92",
      "blockNumber": "0x9509db",
      "gasUsed": "0xb99d0",
      "effectiveGasPrice": "0xf49c7",
      "from": "0xac0a4738d4b004f22f11d4bfd29c9c708f35caf0",
      "to": null,
      "contractAddress": "0xd4243a092da2a3cc9ade083484717be8a79dbe8d"
    },
    {
      "status": "0x1",
      "cumulativeGasUsed": "0x159167b",
      "logs": [
        {
          "address": "0x25d73bee7cab51c2c5e244c94a4b91b1a99c5b06",
          "topics": [
            "0x8c5be1e5ebec7d5bd14f71427d1e84f3dd0314c0f7b2291e5b200ac8c7c3b925",
            "0x000000000000000000000000ac0a4738d4b004f22f11d4bfd29c9c708f35caf0",
            "0x0000000000000000000000000c478023803a644c94c4ce1c1e7b9a087e411b0a"
          ],
          "data": "0xffffffffffffffffffffffffffffffffffffffffffffffffffffffffffffffff",
          "blockHash": "0xa88fb0c647e03f8c81b019870cd9e1d6ebc9d9dd4170cc56c94e5438f64922c0",
          "blockNumber": "0x9509dc",
          "blockTimestamp": "0x693182dc",
          "transactionHash": "0xc132247bf2d638a679a3569f339110840442497ee2ec0644894fbecb28c6decb",
          "transactionIndex": "0x54",
          "logIndex": "0x12b",
          "removed": false
        }
      ],
      "logsBloom": "0x00008000000000000000000000000000000000000000000000000000000000000000000000000000000000000000000000000000001000000000000000200000000000000000000000000000000000000000000000000000000000000000000000000000000000000000000000000000000000000000000000000000000000000000000000000000000000000000040000000000000000000000000000000200020000000000000000000000000000004000000000000040000000000000000000000000000000000000000000001000000000000000000000000000000000000010000000000000004000000000000000000000000020000000000000000000",
      "type": "0x0",
      "transactionHash": "0xc132247bf2d638a679a3569f339110840442497ee2ec0644894fbecb28c6decb",
      "transactionIndex": "0x54",
      "blockHash": "0xa88fb0c647e03f8c81b019870cd9e1d6ebc9d9dd4170cc56c94e5438f64922c0",
      "blockNumber": "0x9509dc",
      "gasUsed": "0xb597",
      "effectiveGasPrice": "0xf49c7",
      "from": "0xac0a4738d4b004f22f11d4bfd29c9c708f35caf0",
      "to": "0x25d73bee7cab51c2c5e244c94a4b91b1a99c5b06",
      "contractAddress": null
    },
    {
      "status": "0x1",
      "cumulativeGasUsed": "0xcb649d",
      "logs": [
        {
          "address": "0xd4243a092da2a3cc9ade083484717be8a79dbe8d",
          "topics": [
            "0x8c5be1e5ebec7d5bd14f71427d1e84f3dd0314c0f7b2291e5b200ac8c7c3b925",
            "0x000000000000000000000000ac0a4738d4b004f22f11d4bfd29c9c708f35caf0",
            "0x0000000000000000000000000c478023803a644c94c4ce1c1e7b9a087e411b0a"
          ],
          "data": "0xffffffffffffffffffffffffffffffffffffffffffffffffffffffffffffffff",
          "blockHash": "0xef07fd67a7a1a608cb7220598335ea8ad13a5ec82540d2a79d937f926890044e",
          "blockNumber": "0x9509dd",
          "blockTimestamp": "0x693182e8",
          "transactionHash": "0x1249d2e24568926a11436634b6f7cabc577dd09c32211de9ee6e296700b09eb7",
          "transactionIndex": "0x46",
          "logIndex": "0x117",
          "removed": false
        }
      ],
      "logsBloom": "0x00000000000000000000000000000000008000000000000000000000000000000000000000000000000000000000000000000000000000000000000000200000000000000000000000000000000000000000800000000000000000000000000000000000000000000000000000000000000000000000000000000000000000000000000000000000000000000000040000000000000000000000000000000200020000000000000000000000000000004000000000000040000000000000000000000000000000000000000000001000000000000000000000000000000000000010000000000000000000000000001000000000000020000000000000000000",
      "type": "0x0",
      "transactionHash": "0x1249d2e24568926a11436634b6f7cabc577dd09c32211de9ee6e296700b09eb7",
      "transactionIndex": "0x46",
      "blockHash": "0xef07fd67a7a1a608cb7220598335ea8ad13a5ec82540d2a79d937f926890044e",
      "blockNumber": "0x9509dd",
      "gasUsed": "0xb597",
      "effectiveGasPrice": "0xf49c7",
      "from": "0xac0a4738d4b004f22f11d4bfd29c9c708f35caf0",
      "to": "0xd4243a092da2a3cc9ade083484717be8a79dbe8d",
      "contractAddress": null
    },
    {
      "status": "0x1",
      "cumulativeGasUsed": "0xed789e",
      "logs": [
        {
          "address": "0x25d73bee7cab51c2c5e244c94a4b91b1a99c5b06",
          "topics": [
            "0x8c5be1e5ebec7d5bd14f71427d1e84f3dd0314c0f7b2291e5b200ac8c7c3b925",
            "0x000000000000000000000000ac0a4738d4b004f22f11d4bfd29c9c708f35caf0",
            "0x0000000000000000000000009b6b46e2c869aa39918db7f52f5557fe577b6eee"
          ],
          "data": "0xffffffffffffffffffffffffffffffffffffffffffffffffffffffffffffffff",
          "blockHash": "0x79bc3ea4fb4d3f7cc300cb16351073257ecd36edfcaa454520be9d99b1e7f764",
          "blockNumber": "0x9509de",
          "blockTimestamp": "0x693182f4",
          "transactionHash": "0x474f3c4e1f4d184956295af88c47a60386846041277b1c9338c4939f611a4698",
          "transactionIndex": "0x50",
          "logIndex": "0x115",
          "removed": false
        }
      ],
      "logsBloom": "0x00008000000000000000000000000000000000000000000000000000000000000200000000000000000000000000000000000000001000000000000008200000000000000000000000000000000000000000000000000000000000000000000000000000000000000000000000000000000000000000000000000000000000000000000000000000000000000000000000000000000000000000000000000200020000000000000000000000000000004000000000000000000000000000000000000000000000000000000000000000000000000000000800000000000000000010000000000000004000000000000000000000000020000000000000000000",
      "type": "0x0",
      "transactionHash": "0x474f3c4e1f4d184956295af88c47a60386846041277b1c9338c4939f611a4698",
      "transactionIndex": "0x50",
      "blockHash": "0x79bc3ea4fb4d3f7cc300cb16351073257ecd36edfcaa454520be9d99b1e7f764",
      "blockNumber": "0x9509de",
      "gasUsed": "0xb597",
      "effectiveGasPrice": "0xf49c7",
      "from": "0xac0a4738d4b004f22f11d4bfd29c9c708f35caf0",
      "to": "0x25d73bee7cab51c2c5e244c94a4b91b1a99c5b06",
      "contractAddress": null
    },
    {
      "status": "0x1",
      "cumulativeGasUsed": "0xbe5d77",
      "logs": [
        {
          "address": "0xd4243a092da2a3cc9ade083484717be8a79dbe8d",
          "topics": [
            "0x8c5be1e5ebec7d5bd14f71427d1e84f3dd0314c0f7b2291e5b200ac8c7c3b925",
            "0x000000000000000000000000ac0a4738d4b004f22f11d4bfd29c9c708f35caf0",
            "0x0000000000000000000000009b6b46e2c869aa39918db7f52f5557fe577b6eee"
          ],
          "data": "0xffffffffffffffffffffffffffffffffffffffffffffffffffffffffffffffff",
          "blockHash": "0x0c73f4e293f20f1447f64c192c297f9c486dee5b9ca0259e9e9a6f849f60babd",
          "blockNumber": "0x9509df",
          "blockTimestamp": "0x69318300",
          "transactionHash": "0xc8b785410312fc02525b773fd317f132d4b2ec4c6609789273718a4733a28b23",
          "transactionIndex": "0x58",
          "logIndex": "0xf8",
          "removed": false
        }
      ],
      "logsBloom": "0x00000000000000000000000000000000008000000000000000000000000000000200000000000000000000000000000000000000000000000000000008200000000000000000000000000000000000000000800000000000000000000000000000000000000000000000000000000000000000000000000000000000000000000000000000000000000000000000000000000000000000000000000000000200020000000000000000000000000000004000000000000000000000000000000000000000000000000000000000000000000000000000000800000000000000000010000000000000000000000000001000000000000020000000000000000000",
      "type": "0x0",
      "transactionHash": "0xc8b785410312fc02525b773fd317f132d4b2ec4c6609789273718a4733a28b23",
      "transactionIndex": "0x58",
      "blockHash": "0x0c73f4e293f20f1447f64c192c297f9c486dee5b9ca0259e9e9a6f849f60babd",
      "blockNumber": "0x9509df",
      "gasUsed": "0xb597",
      "effectiveGasPrice": "0xf49c7",
      "from": "0xac0a4738d4b004f22f11d4bfd29c9c708f35caf0",
      "to": "0xd4243a092da2a3cc9ade083484717be8a79dbe8d",
      "contractAddress": null
    },
    {
      "status": "0x1",
      "cumulativeGasUsed": "0x1544add",
      "logs": [
        {
          "address": "0x25d73bee7cab51c2c5e244c94a4b91b1a99c5b06",
          "topics": [
            "0xddf252ad1be2c89b69c2b068fc378daa952ba7f163c4a11628f55a4df523b3ef",
            "0x0000000000000000000000000000000000000000000000000000000000000000",
            "0x000000000000000000000000ac0a4738d4b004f22f11d4bfd29c9c708f35caf0"
          ],
          "data": "0x0000000000000000000000000000000000000000000000056bc75e2d63100000",
          "blockHash": "0x3c35d36fdd64e1f70166cb3e32047009f7712486b3171117ea90ce9e98631bd9",
          "blockNumber": "0x9509e0",
          "blockTimestamp": "0x6931830c",
          "transactionHash": "0x62e0c56433d95c1b985b7a95c806aabfcac0c018e51975af39e291ab92da4ddb",
          "transactionIndex": "0x3c",
          "logIndex": "0x260",
          "removed": false
        }
      ],
      "logsBloom": "0x00008000000000000000000000000000000000000000000000000000000000000000000000000000000000000000000000000000001000000000000000000000000000000000000000000008000000000000000000000000000000000000000000000000020000000000000000000800000000000000000000000010000000000000000000000000000000000000000000000000000000000000000000000200000000000000000000000000000000004000000000000000000000000000000000000002000000000000000000000000000000000000000000000000000020000000000000000000004000000000000000000000000020000000000000000000",
      "type": "0x0",
      "transactionHash": "0x62e0c56433d95c1b985b7a95c806aabfcac0c018e51975af39e291ab92da4ddb",
      "transactionIndex": "0x3c",
      "blockHash": "0x3c35d36fdd64e1f70166cb3e32047009f7712486b3171117ea90ce9e98631bd9",
      "blockNumber": "0x9509e0",
      "gasUsed": "0x10acf",
      "effectiveGasPrice": "0xf49c7",
      "from": "0xac0a4738d4b004f22f11d4bfd29c9c708f35caf0",
      "to": "0x25d73bee7cab51c2c5e244c94a4b91b1a99c5b06",
      "contractAddress": null
    },
    {
      "status": "0x1",
      "cumulativeGasUsed": "0x9ee10d",
      "logs": [
        {
          "address": "0xd4243a092da2a3cc9ade083484717be8a79dbe8d",
          "topics": [
            "0xddf252ad1be2c89b69c2b068fc378daa952ba7f163c4a11628f55a4df523b3ef",
            "0x0000000000000000000000000000000000000000000000000000000000000000",
            "0x000000000000000000000000ac0a4738d4b004f22f11d4bfd29c9c708f35caf0"
          ],
          "data": "0x0000000000000000000000000000000000000000000000056bc75e2d63100000",
          "blockHash": "0x127212ae3bee2fc30c9cff5995cc5587f5acc0b366668b87b4f542d91a5a7084",
          "blockNumber": "0x9509e1",
          "blockTimestamp": "0x69318318",
          "transactionHash": "0xff6cd6c159092c694e7e1dc327986a97e9fd672cd11372561d49c0bd562ab008",
          "transactionIndex": "0x4c",
          "logIndex": "0xea",
          "removed": false
        }
      ],
      "logsBloom": "0x00000000000000000000000000000000008000000000000000000000000000000000000000000000000000000000000000000000000000000000000000000000000000000000000000000008000000000000800000000000000000000000000000000000020000000000000000000800000000000000000000000010000000000000000000000000000000000000000000000000000000000000000000000200000000000000000000000000000000004000000000000000000000000000000000000002000000000000000000000000000000000000000000000000000020000000000000000000000000000000001000000000000020000000000000000000",
      "type": "0x0",
      "transactionHash": "0xff6cd6c159092c694e7e1dc327986a97e9fd672cd11372561d49c0bd562ab008",
      "transactionIndex": "0x4c",
      "blockHash": "0x127212ae3bee2fc30c9cff5995cc5587f5acc0b366668b87b4f542d91a5a7084",
      "blockNumber": "0x9509e1",
      "gasUsed": "0x10acf",
      "effectiveGasPrice": "0xf49c7",
      "from": "0xac0a4738d4b004f22f11d4bfd29c9c708f35caf0",
      "to": "0xd4243a092da2a3cc9ade083484717be8a79dbe8d",
      "contractAddress": null
    },
    {
      "status": "0x1",
      "cumulativeGasUsed": "0x8a3bb3",
      "logs": [],
      "logsBloom": "0x00000000000000000000000000000000000000000000000000000000000000000000000000000000000000000000000000000000000000000000000000000000000000000000000000000000000000000000000000000000000000000000000000000000000000000000000000000000000000000000000000000000000000000000000000000000000000000000000000000000000000000000000000000000000000000000000000000000000000000000000000000000000000000000000000000000000000000000000000000000000000000000000000000000000000000000000000000000000000000000000000000000000000000000000000000000",
      "type": "0x0",
      "transactionHash": "0xdbb6afde318c93bedbc0f9c091d3c9f90197ccc3375018e2ac2027ff65655274",
      "transactionIndex": "0x31",
      "blockHash": "0xc87511bf60c24efdcb4e23f5c4c02593fbee09588990cce71eb6de9cfb5f570a",
      "blockNumber": "0x9509e2",
      "gasUsed": "0xa84d6",
      "effectiveGasPrice": "0xf49c7",
      "from": "0xac0a4738d4b004f22f11d4bfd29c9c708f35caf0",
      "to": "0x4e59b44847b379578588920ca78fbf26c0b4956c",
      "contractAddress": null
    },
    {
      "status": "0x1",
      "cumulativeGasUsed": "0xb0f4bb",
      "logs": [
        {
          "address": "0xe03a1074c86cfedd5c142c4f04f1a1536e203543",
          "topics": [
            "0xdd466e674ea557f56295e2d0218a125ea4b4f0f6f3307b95f85e6110838d6438",
            "0xb8b18ef23a0daf2843913ba5b6f1a870dbe854e914dc88f9e8d75306f5d8735f",
            "0x00000000000000000000000025d73bee7cab51c2c5e244c94a4b91b1a99c5b06",
            "0x000000000000000000000000d4243a092da2a3cc9ade083484717be8a79dbe8d"
          ],
          "data": "0x0000000000000000000000000000000000000000000000000000000000000bb8000000000000000000000000000000000000000000000000000000000000003c000000000000000000000000e4aaeb4b1df6ad65735036d83c13c7bd840b008000000000000000000000000000000000000000010000000000000000000000000000000000000000000000000000000000000000000000000000000000000000",
          "blockHash": "0xac9dcc80643e7f7f3810660174db27870f3f6126c10e7dbc42f34a6ab08f18da",
          "blockNumber": "0x9509e3",
          "blockTimestamp": "0x69318330",
          "transactionHash": "0x45f7074e1ac22ff4afb52c2850103ce8a695f879e9918b4d2df48944bd1641fa",
          "transactionIndex": "0x4f",
          "logIndex": "0xe1",
          "removed": false
        }
      ],
      "logsBloom": "0x00000000000000000000000000000000000000000000000000000000000000000000000000000000000000000000000000000100000000000000000000000000000000000000000000000000000000000000000001000000000000000000000000000000000000000000000000000000000000000801100000000000000000000000002000000008020000000000000000000001000400000000000000200000000000000000000000000000000000000040000000000000000000000000000400000000000000000000000000000000000000000000000000000000000000001000000000000000000000000000000000000000000000000000000000000800",
      "type": "0x0",
      "transactionHash": "0x45f7074e1ac22ff4afb52c2850103ce8a695f879e9918b4d2df48944bd1641fa",
      "transactionIndex": "0x4f",
      "blockHash": "0xac9dcc80643e7f7f3810660174db27870f3f6126c10e7dbc42f34a6ab08f18da",
      "blockNumber": "0x9509e3",
      "gasUsed": "0xca27",
      "effectiveGasPrice": "0xf49c7",
      "from": "0xac0a4738d4b004f22f11d4bfd29c9c708f35caf0",
      "to": "0xe03a1074c86cfedd5c142c4f04f1a1536e203543",
      "contractAddress": null
    },
    {
      "status": "0x1",
      "cumulativeGasUsed": "0xe1a57a",
      "logs": [
        {
          "address": "0xe03a1074c86cfedd5c142c4f04f1a1536e203543",
          "topics": [
            "0xf208f4912782fd25c7f114ca3723a2d5dd6f3bcc3ac8db5af63baa85f711d5ec",
            "0xb8b18ef23a0daf2843913ba5b6f1a870dbe854e914dc88f9e8d75306f5d8735f",
            "0x0000000000000000000000000c478023803a644c94c4ce1c1e7b9a087e411b0a"
          ],
          "data": "0xffffffffffffffffffffffffffffffffffffffffffffffffffffffffffffff8800000000000000000000000000000000000000000000000000000000000000780000000000000000000000000000000000000000000000008ac7230489e800000000000000000000000000000000000000000000000000000000000000000000",
          "blockHash": "0xe89195a4aba2acfa3b5414fc5ea4cab725c86336d129d2fb9d0ca9dc27432ebd",
          "blockNumber": "0x9509e4",
          "blockTimestamp": "0x6931833c",
          "transactionHash": "0x57c5a173d466951ac3b74c95ed35462b29289537a0466bad73294a192fae06c2",
          "transactionIndex": "0x28",
          "logIndex": "0x8c",
          "removed": false
        },
        {
          "address": "0x25d73bee7cab51c2c5e244c94a4b91b1a99c5b06",
          "topics": [
            "0xddf252ad1be2c89b69c2b068fc378daa952ba7f163c4a11628f55a4df523b3ef",
            "0x000000000000000000000000ac0a4738d4b004f22f11d4bfd29c9c708f35caf0",
            "0x000000000000000000000000e03a1074c86cfedd5c142c4f04f1a1536e203543"
          ],
          "data": "0x00000000000000000000000000000000000000000000000000d48396878c14b2",
          "blockHash": "0xe89195a4aba2acfa3b5414fc5ea4cab725c86336d129d2fb9d0ca9dc27432ebd",
          "blockNumber": "0x9509e4",
          "blockTimestamp": "0x6931833c",
          "transactionHash": "0x57c5a173d466951ac3b74c95ed35462b29289537a0466bad73294a192fae06c2",
          "transactionIndex": "0x28",
          "logIndex": "0x8d",
          "removed": false
        },
        {
          "address": "0xd4243a092da2a3cc9ade083484717be8a79dbe8d",
          "topics": [
            "0xddf252ad1be2c89b69c2b068fc378daa952ba7f163c4a11628f55a4df523b3ef",
            "0x000000000000000000000000ac0a4738d4b004f22f11d4bfd29c9c708f35caf0",
            "0x000000000000000000000000e03a1074c86cfedd5c142c4f04f1a1536e203543"
          ],
          "data": "0x00000000000000000000000000000000000000000000000000d48396878c14b2",
          "blockHash": "0xe89195a4aba2acfa3b5414fc5ea4cab725c86336d129d2fb9d0ca9dc27432ebd",
          "blockNumber": "0x9509e4",
          "blockTimestamp": "0x6931833c",
          "transactionHash": "0x57c5a173d466951ac3b74c95ed35462b29289537a0466bad73294a192fae06c2",
          "transactionIndex": "0x28",
          "logIndex": "0x8e",
          "removed": false
        }
      ],
      "logsBloom": "0x00008000000000000000000000000000008000000000000000000000000000000000000000000000000000000000000000000100001000000000000000000000000000000000000000000008000000000000800000000000000000000000000000000000000000000000000080000000000000000001100000000010000000000000000001000000020010000000040000000000000000000000000000000200000004000000000000000000000000004000000000000040000000000000000400000002000000000000000000001000000000000000000000001000000000001000000000000000004000000000001004000000000020000000000000000000",
      "type": "0x0",
      "transactionHash": "0x57c5a173d466951ac3b74c95ed35462b29289537a0466bad73294a192fae06c2",
      "transactionIndex": "0x28",
      "blockHash": "0xe89195a4aba2acfa3b5414fc5ea4cab725c86336d129d2fb9d0ca9dc27432ebd",
      "blockNumber": "0x9509e4",
      "gasUsed": "0x47adb",
      "effectiveGasPrice": "0xf49c7",
      "from": "0xac0a4738d4b004f22f11d4bfd29c9c708f35caf0",
      "to": "0x0c478023803a644c94c4ce1c1e7b9a087e411b0a",
      "contractAddress": null
    }
  ],
  "libraries": [],
  "pending": [],
  "returns": {},
  "timestamp": 1764852544208,
  "chain": 11155111,
  "commit": "6e4203f"
}