{
  "transactions": [
    {
      "hash": "0x3aa64a9e9cc0b95948e6d4feea9212964187bc3c1471fe80ce36cda557a8d034",
      "transactionType": "CREATE",
      "contractName": "MockERC20",
      "contractAddress": "0xe3d92ea7e4c1444d0c9d59b748f1ad109b5a3c2e",
      "function": null,
      "arguments": [
        "Token0",
        "TK0",
        "18"
      ],
      "transaction": {
        "from": "0xac0a4738d4b004f22f11d4bfd29c9c708f35caf0",
        "gas": "0xf14c1",
        "value": "0x0",
        "input": "0x60e060405234801561000f575f80fd5b50604051610f9d380380610f9d83398101604081905261002e916101a1565b8282825f61003c84826102a2565b50600161004983826102a2565b5060ff81166080524660a05261005d61006c565b60c052506103cd945050505050565b5f7f8b73c3c69bb8fe3d512ecc4cf759cc79239f7b179b0ffacaa9a75d522b39400f5f60405161009c919061035c565b6040805191829003822060208301939093528101919091527fc89efdaa54c0f20c7adf612882df0950f5a951637e0307cdcb4c672f298b8bc660608201524660808201523060a082015260c00160405160208183030381529060405280519060200120905090565b634e487b7160e01b5f52604160045260245ffd5b5f82601f830112610127575f80fd5b81516001600160401b0381111561014057610140610104565b604051601f8201601f19908116603f011681016001600160401b038111828210171561016e5761016e610104565b604052818152838201602001851015610185575f80fd5b8160208501602083015e5f918101602001919091529392505050565b5f805f606084860312156101b3575f80fd5b83516001600160401b038111156101c8575f80fd5b6101d486828701610118565b602086015190945090506001600160401b038111156101f1575f80fd5b6101fd86828701610118565b925050604084015160ff81168114610213575f80fd5b809150509250925092565b600181811c9082168061023257607f821691505b60208210810361025057634e487b7160e01b5f52602260045260245ffd5b50919050565b601f82111561029d57805f5260205f20601f840160051c8101602085101561027b5750805b601f840160051c820191505b8181101561029a575f8155600101610287565b50505b505050565b81516001600160401b038111156102bb576102bb610104565b6102cf816102c9845461021e565b84610256565b6020601f821160018114610301575f83156102ea5750848201515b5f19600385901b1c1916600184901b17845561029a565b5f84815260208120601f198516915b828110156103305787850151825560209485019460019092019101610310565b508482101561034d57868401515f19600387901b60f8161c191681555b50505050600190811b01905550565b5f8083546103698161021e565b6001821680156103805760018114610395576103c2565b60ff19831686528115158202860193506103c2565b865f5260205f205f5b838110156103ba5781548882015260019091019060200161039e565b505081860193505b509195945050505050565b60805160a05160c051610ba66103f75f395f61046f01525f61043a01525f6101590152610ba65ff3fe608060405234801561000f575f80fd5b50600436106100e5575f3560e01c806370a08231116100885780639dc29fac116100635780639dc29fac146101f0578063a9059cbb14610203578063d505accf14610216578063dd62ed3e14610229575f80fd5b806370a08231146101aa5780637ecebe00146101c957806395d89b41146101e8575f80fd5b806323b872dd116100c357806323b872dd14610141578063313ce567146101545780633644e5151461018d57806340c10f1914610195575f80fd5b806306fdde03146100e9578063095ea7b31461010757806318160ddd1461012a575b5f80fd5b6100f1610253565b6040516100fe91906108f2565b60405180910390f35b61011a610115366004610942565b6102de565b60405190151581526020016100fe565b61013360025481565b6040519081526020016100fe565b61011a61014f36600461096a565b61034a565b61017b7f000000000000000000000000000000000000000000000000000000000000000081565b60405160ff90911681526020016100fe565b610133610437565b6101a86101a3366004610942565b610491565b005b6101336101b83660046109a4565b60036020525f908152604090205481565b6101336101d73660046109a4565b60056020525f908152604090205481565b6100f161049f565b6101a86101fe366004610942565b6104ac565b61011a610211366004610942565b6104b6565b6101a86102243660046109c4565b61052c565b610133610237366004610a31565b600460209081525f928352604080842090915290825290205481565b5f805461025f90610a62565b80601f016020809104026020016040519081016040528092919081815260200182805461028b90610a62565b80156102d65780601f106102ad576101008083540402835291602001916102d6565b820191905f5260205f20905b8154815290600101906020018083116102b957829003601f168201915b505050505081565b335f8181526004602090815260408083206001600160a01b038716808552925280832085905551919290917f8c5be1e5ebec7d5bd14f71427d1e84f3dd0314c0f7b2291e5b200ac8c7c3b925906103389086815260200190565b60405180910390a35060015b92915050565b6001600160a01b0383165f9081526004602090815260408083203384529091528120545f1981146103a35761037f8382610aae565b6001600160a01b0386165f9081526004602090815260408083203384529091529020555b6001600160a01b0385165f90815260036020526040812080548592906103ca908490610aae565b90915550506001600160a01b038085165f81815260036020526040908190208054870190555190918716907fddf252ad1be2c89b69c2b068fc378daa952ba7f163c4a11628f55a4df523b3ef906104249087815260200190565b60405180910390a3506001949350505050565b5f7f0000000000000000000000000000000000000000000000000000000000000000461461046c5761046761077e565b905090565b507f000000000000000000000000000000000000000000000000000000000000000090565b61049b8282610816565b5050565b6001805461025f90610a62565b61049b8282610880565b335f908152600360205260408120805483919083906104d6908490610aae565b90915550506001600160a01b0383165f81815260036020526040908190208054850190555133907fddf252ad1be2c89b69c2b068fc378daa952ba7f163c4a11628f55a4df523b3ef906103389086815260200190565b428410156105815760405162461bcd60e51b815260206004820152601760248201527f5045524d49545f444541444c494e455f4558504952454400000000000000000060448201526064015b60405180910390fd5b5f600161058c610437565b6001600160a01b038a81165f8181526005602090815260409182902080546001810190915582517f6e71edae12b1b97f4d1f60370fef10105fa2faae0126114a169c64845d6126c98184015280840194909452938d166060840152608083018c905260a083019390935260c08083018b90528151808403909101815260e08301909152805192019190912061190160f01b6101008301526101028201929092526101228101919091526101420160408051601f1981840301815282825280516020918201205f84529083018083525260ff871690820152606081018590526080810184905260a0016020604051602081039080840390855afa158015610694573d5f803e3d5ffd5b5050604051601f1901519150506001600160a01b038116158015906106ca5750876001600160a01b0316816001600160a01b0316145b6107165760405162461bcd60e51b815260206004820152600e60248201527f494e56414c49445f5349474e45520000000000000000000000000000000000006044820152606401610578565b6001600160a01b039081165f9081526004602090815260408083208a8516808552908352928190208990555188815291928a16917f8c5be1e5ebec7d5bd14f71427d1e84f3dd0314c0f7b2291e5b200ac8c7c3b925910160405180910390a350505050505050565b5f7f8b73c3c69bb8fe3d512ecc4cf759cc79239f7b179b0ffacaa9a75d522b39400f5f6040516107ae9190610ac1565b6040805191829003822060208301939093528101919091527fc89efdaa54c0f20c7adf612882df0950f5a951637e0307cdcb4c672f298b8bc660608201524660808201523060a082015260c00160405160208183030381529060405280519060200120905090565b8060025f8282546108279190610b5d565b90915550506001600160a01b0382165f818152600360209081526040808320805486019055518481527fddf252ad1be2c89b69c2b068fc378daa952ba7f163c4a11628f55a4df523b3ef91015b60405180910390a35050565b6001600160a01b0382165f90815260036020526040812080548392906108a7908490610aae565b90915550506002805482900390556040518181525f906001600160a01b038416907fddf252ad1be2c89b69c2b068fc378daa952ba7f163c4a11628f55a4df523b3ef90602001610874565b602081525f82518060208401528060208501604085015e5f604082850101526040601f19601f83011684010191505092915050565b80356001600160a01b038116811461093d575f80fd5b919050565b5f8060408385031215610953575f80fd5b61095c83610927565b946020939093013593505050565b5f805f6060848603121561097c575f80fd5b61098584610927565b925061099360208501610927565b929592945050506040919091013590565b5f602082840312156109b4575f80fd5b6109bd82610927565b9392505050565b5f805f805f805f60e0888a0312156109da575f80fd5b6109e388610927565b96506109f160208901610927565b95506040880135945060608801359350608088013560ff81168114610a14575f80fd5b9699959850939692959460a0840135945060c09093013592915050565b5f8060408385031215610a42575f80fd5b610a4b83610927565b9150610a5960208401610927565b90509250929050565b600181811c90821680610a7657607f821691505b602082108103610a9457634e487b7160e01b5f52602260045260245ffd5b50919050565b634e487b7160e01b5f52601160045260245ffd5b8181038181111561034457610344610a9a565b5f8083545f8160011c90506001821680610adc57607f821691505b602082108103610afa57634e487b7160e01b5f52602260045260245ffd5b808015610b0e5760018114610b2357610b51565b60ff1984168752821515830287019450610b51565b5f888152602090205f5b84811015610b4957815489820152600190910190602001610b2d565b505082870194505b50929695505050505050565b8082018082111561034457610344610a9a56fea264697066735822122068cd05d589640f7bb807cd234c368ca57e75caef8fea3274b4d4c23750d435ed64736f6c634300081a0033000000000000000000000000000000000000000000000000000000000000006000000000000000000000000000000000000000000000000000000000000000a000000000000000000000000000000000000000000000000000000000000000120000000000000000000000000000000000000000000000000000000000000006546f6b656e3000000000000000000000000000000000000000000000000000000000000000000000000000000000000000000000000000000000000000000003544b300000000000000000000000000000000000000000000000000000000000",
        "nonce": "0x222",
        "chainId": "0xaa36a7"
      },
      "additionalContracts": [],
      "isFixedGasLimit": false
    },
    {
      "hash": "0x187c94b248825b193ce68507ce98647147d5c258d50b9772823a38d977374c1c",
      "transactionType": "CREATE",
      "contractName": "MockERC20",
      "contractAddress": "0x0c15420ed49d344f719d755dfd595f0f657a133b",
      "function": null,
      "arguments": [
        "Token1",
        "TK1",
        "18"
      ],
      "transaction": {
        "from": "0xac0a4738d4b004f22f11d4bfd29c9c708f35caf0",
        "gas": "0xf14c1",
        "value": "0x0",
        "input": "0x60e060405234801561000f575f80fd5b50604051610f9d380380610f9d83398101604081905261002e916101a1565b8282825f61003c84826102a2565b50600161004983826102a2565b5060ff81166080524660a05261005d61006c565b60c052506103cd945050505050565b5f7f8b73c3c69bb8fe3d512ecc4cf759cc79239f7b179b0ffacaa9a75d522b39400f5f60405161009c919061035c565b6040805191829003822060208301939093528101919091527fc89efdaa54c0f20c7adf612882df0950f5a951637e0307cdcb4c672f298b8bc660608201524660808201523060a082015260c00160405160208183030381529060405280519060200120905090565b634e487b7160e01b5f52604160045260245ffd5b5f82601f830112610127575f80fd5b81516001600160401b0381111561014057610140610104565b604051601f8201601f19908116603f011681016001600160401b038111828210171561016e5761016e610104565b604052818152838201602001851015610185575f80fd5b8160208501602083015e5f918101602001919091529392505050565b5f805f606084860312156101b3575f80fd5b83516001600160401b038111156101c8575f80fd5b6101d486828701610118565b602086015190945090506001600160401b038111156101f1575f80fd5b6101fd86828701610118565b925050604084015160ff81168114610213575f80fd5b809150509250925092565b600181811c9082168061023257607f821691505b60208210810361025057634e487b7160e01b5f52602260045260245ffd5b50919050565b601f82111561029d57805f5260205f20601f840160051c8101602085101561027b5750805b601f840160051c820191505b8181101561029a575f8155600101610287565b50505b505050565b81516001600160401b038111156102bb576102bb610104565b6102cf816102c9845461021e565b84610256565b6020601f821160018114610301575f83156102ea5750848201515b5f19600385901b1c1916600184901b17845561029a565b5f84815260208120601f198516915b828110156103305787850151825560209485019460019092019101610310565b508482101561034d57868401515f19600387901b60f8161c191681555b50505050600190811b01905550565b5f8083546103698161021e565b6001821680156103805760018114610395576103c2565b60ff19831686528115158202860193506103c2565b865f5260205f205f5b838110156103ba5781548882015260019091019060200161039e565b505081860193505b509195945050505050565b60805160a05160c051610ba66103f75f395f61046f01525f61043a01525f6101590152610ba65ff3fe608060405234801561000f575f80fd5b50600436106100e5575f3560e01c806370a08231116100885780639dc29fac116100635780639dc29fac146101f0578063a9059cbb14610203578063d505accf14610216578063dd62ed3e14610229575f80fd5b806370a08231146101aa5780637ecebe00146101c957806395d89b41146101e8575f80fd5b806323b872dd116100c357806323b872dd14610141578063313ce567146101545780633644e5151461018d57806340c10f1914610195575f80fd5b806306fdde03146100e9578063095ea7b31461010757806318160ddd1461012a575b5f80fd5b6100f1610253565b6040516100fe91906108f2565b60405180910390f35b61011a610115366004610942565b6102de565b60405190151581526020016100fe565b61013360025481565b6040519081526020016100fe565b61011a61014f36600461096a565b61034a565b61017b7f000000000000000000000000000000000000000000000000000000000000000081565b60405160ff90911681526020016100fe565b610133610437565b6101a86101a3366004610942565b610491565b005b6101336101b83660046109a4565b60036020525f908152604090205481565b6101336101d73660046109a4565b60056020525f908152604090205481565b6100f161049f565b6101a86101fe366004610942565b6104ac565b61011a610211366004610942565b6104b6565b6101a86102243660046109c4565b61052c565b610133610237366004610a31565b600460209081525f928352604080842090915290825290205481565b5f805461025f90610a62565b80601f016020809104026020016040519081016040528092919081815260200182805461028b90610a62565b80156102d65780601f106102ad576101008083540402835291602001916102d6565b820191905f5260205f20905b8154815290600101906020018083116102b957829003601f168201915b505050505081565b335f8181526004602090815260408083206001600160a01b038716808552925280832085905551919290917f8c5be1e5ebec7d5bd14f71427d1e84f3dd0314c0f7b2291e5b200ac8c7c3b925906103389086815260200190565b60405180910390a35060015b92915050565b6001600160a01b0383165f9081526004602090815260408083203384529091528120545f1981146103a35761037f8382610aae565b6001600160a01b0386165f9081526004602090815260408083203384529091529020555b6001600160a01b0385165f90815260036020526040812080548592906103ca908490610aae565b90915550506001600160a01b038085165f81815260036020526040908190208054870190555190918716907fddf252ad1be2c89b69c2b068fc378daa952ba7f163c4a11628f55a4df523b3ef906104249087815260200190565b60405180910390a3506001949350505050565b5f7f0000000000000000000000000000000000000000000000000000000000000000461461046c5761046761077e565b905090565b507f000000000000000000000000000000000000000000000000000000000000000090565b61049b8282610816565b5050565b6001805461025f90610a62565b61049b8282610880565b335f908152600360205260408120805483919083906104d6908490610aae565b90915550506001600160a01b0383165f81815260036020526040908190208054850190555133907fddf252ad1be2c89b69c2b068fc378daa952ba7f163c4a11628f55a4df523b3ef906103389086815260200190565b428410156105815760405162461bcd60e51b815260206004820152601760248201527f5045524d49545f444541444c494e455f4558504952454400000000000000000060448201526064015b60405180910390fd5b5f600161058c610437565b6001600160a01b038a81165f8181526005602090815260409182902080546001810190915582517f6e71edae12b1b97f4d1f60370fef10105fa2faae0126114a169c64845d6126c98184015280840194909452938d166060840152608083018c905260a083019390935260c08083018b90528151808403909101815260e08301909152805192019190912061190160f01b6101008301526101028201929092526101228101919091526101420160408051601f1981840301815282825280516020918201205f84529083018083525260ff871690820152606081018590526080810184905260a0016020604051602081039080840390855afa158015610694573d5f803e3d5ffd5b5050604051601f1901519150506001600160a01b038116158015906106ca5750876001600160a01b0316816001600160a01b0316145b6107165760405162461bcd60e51b815260206004820152600e60248201527f494e56414c49445f5349474e45520000000000000000000000000000000000006044820152606401610578565b6001600160a01b039081165f9081526004602090815260408083208a8516808552908352928190208990555188815291928a16917f8c5be1e5ebec7d5bd14f71427d1e84f3dd0314c0f7b2291e5b200ac8c7c3b925910160405180910390a350505050505050565b5f7f8b73c3c69bb8fe3d512ecc4cf759cc79239f7b179b0ffacaa9a75d522b39400f5f6040516107ae9190610ac1565b6040805191829003822060208301939093528101919091527fc89efdaa54c0f20c7adf612882df0950f5a951637e0307cdcb4c672f298b8bc660608201524660808201523060a082015260c00160405160208183030381529060405280519060200120905090565b8060025f8282546108279190610b5d565b90915550506001600160a01b0382165f818152600360209081526040808320805486019055518481527fddf252ad1be2c89b69c2b068fc378daa952ba7f163c4a11628f55a4df523b3ef91015b60405180910390a35050565b6001600160a01b0382165f90815260036020526040812080548392906108a7908490610aae565b90915550506002805482900390556040518181525f906001600160a01b038416907fddf252ad1be2c89b69c2b068fc378daa952ba7f163c4a11628f55a4df523b3ef90602001610874565b602081525f82518060208401528060208501604085015e5f604082850101526040601f19601f83011684010191505092915050565b80356001600160a01b038116811461093d575f80fd5b919050565b5f8060408385031215610953575f80fd5b61095c83610927565b946020939093013593505050565b5f805f6060848603121561097c575f80fd5b61098584610927565b925061099360208501610927565b929592945050506040919091013590565b5f602082840312156109b4575f80fd5b6109bd82610927565b9392505050565b5f805f805f805f60e0888a0312156109da575f80fd5b6109e388610927565b96506109f160208901610927565b95506040880135945060608801359350608088013560ff81168114610a14575f80fd5b9699959850939692959460a0840135945060c09093013592915050565b5f8060408385031215610a42575f80fd5b610a4b83610927565b9150610a5960208401610927565b90509250929050565b600181811c90821680610a7657607f821691505b602082108103610a9457634e487b7160e01b5f52602260045260245ffd5b50919050565b634e487b7160e01b5f52601160045260245ffd5b8181038181111561034457610344610a9a565b5f8083545f8160011c90506001821680610adc57607f821691505b602082108103610afa57634e487b7160e01b5f52602260045260245ffd5b808015610b0e5760018114610b2357610b51565b60ff1984168752821515830287019450610b51565b5f888152602090205f5b84811015610b4957815489820152600190910190602001610b2d565b505082870194505b50929695505050505050565b8082018082111561034457610344610a9a56fea264697066735822122068cd05d589640f7bb807cd234c368ca57e75caef8fea3274b4d4c23750d435ed64736f6c634300081a0033000000000000000000000000000000000000000000000000000000000000006000000000000000000000000000000000000000000000000000000000000000a000000000000000000000000000000000000000000000000000000000000000120000000000000000000000000000000000000000000000000000000000000006546f6b656e3100000000000000000000000000000000000000000000000000000000000000000000000000000000000000000000000000000000000000000003544b310000000000000000000000000000000000000000000000000000000000",
        "nonce": "0x223",
        "chainId": "0xaa36a7"
      },
      "additionalContracts": [],
      "isFixedGasLimit": false
    },
    {
      "hash": "0x52f4c9970caa472ced86fd570dd4b900ebec568deb99cd57622f6cbd4a425569",
      "transactionType": "CALL",
      "contractName": "MockERC20",
      "contractAddress": "0xe3d92ea7e4c1444d0c9d59b748f1ad109b5a3c2e",
      "function": "approve(address,uint256)",
      "arguments": [
        "0x0C478023803a644c94c4CE1C1e7b9A087e411B0A",
        "115792089237316195423570985008687907853269984665640564039457584007913129639935"
      ],
      "transaction": {
        "from": "0xac0a4738d4b004f22f11d4bfd29c9c708f35caf0",
        "to": "0xe3d92ea7e4c1444d0c9d59b748f1ad109b5a3c2e",
        "gas": "0xfad1",
        "value": "0x0",
        "input": "0x095ea7b30000000000000000000000000c478023803a644c94c4ce1c1e7b9a087e411b0affffffffffffffffffffffffffffffffffffffffffffffffffffffffffffffff",
        "nonce": "0x224",
        "chainId": "0xaa36a7"
      },
      "additionalContracts": [],
      "isFixedGasLimit": false
    },
    {
      "hash": "0x5abf3409ca74b1223ce9f0534e54ef24cc9e690abb0505b08ccf1aebfb8fead5",
      "transactionType": "CALL",
      "contractName": "MockERC20",
      "contractAddress": "0x0c15420ed49d344f719d755dfd595f0f657a133b",
      "function": "approve(address,uint256)",
      "arguments": [
        "0x0C478023803a644c94c4CE1C1e7b9A087e411B0A",
        "115792089237316195423570985008687907853269984665640564039457584007913129639935"
      ],
      "transaction": {
        "from": "0xac0a4738d4b004f22f11d4bfd29c9c708f35caf0",
        "to": "0x0c15420ed49d344f719d755dfd595f0f657a133b",
        "gas": "0xfad1",
        "value": "0x0",
        "input": "0x095ea7b30000000000000000000000000c478023803a644c94c4ce1c1e7b9a087e411b0affffffffffffffffffffffffffffffffffffffffffffffffffffffffffffffff",
        "nonce": "0x225",
        "chainId": "0xaa36a7"
      },
      "additionalContracts": [],
      "isFixedGasLimit": false
    },
    {
      "hash": "0x730a0291a4a2b901c9edc44e7d7a343b9723982874929b4e0234621967d89d53",
      "transactionType": "CALL",
      "contractName": "MockERC20",
      "contractAddress": "0xe3d92ea7e4c1444d0c9d59b748f1ad109b5a3c2e",
      "function": "approve(address,uint256)",
      "arguments": [
        "0x9B6b46e2c869aa39918Db7f52f5557FE577B6eEe",
        "115792089237316195423570985008687907853269984665640564039457584007913129639935"
      ],
      "transaction": {
        "from": "0xac0a4738d4b004f22f11d4bfd29c9c708f35caf0",
        "to": "0xe3d92ea7e4c1444d0c9d59b748f1ad109b5a3c2e",
        "gas": "0xfad1",
        "value": "0x0",
        "input": "0x095ea7b30000000000000000000000009b6b46e2c869aa39918db7f52f5557fe577b6eeeffffffffffffffffffffffffffffffffffffffffffffffffffffffffffffffff",
        "nonce": "0x226",
        "chainId": "0xaa36a7"
      },
      "additionalContracts": [],
      "isFixedGasLimit": false
    },
    {
      "hash": "0x53716b93e138df7b1a83de0a6c31f54acf4c6662ba2e00c98205334ebc362a87",
      "transactionType": "CALL",
      "contractName": "MockERC20",
      "contractAddress": "0x0c15420ed49d344f719d755dfd595f0f657a133b",
      "function": "approve(address,uint256)",
      "arguments": [
        "0x9B6b46e2c869aa39918Db7f52f5557FE577B6eEe",
        "115792089237316195423570985008687907853269984665640564039457584007913129639935"
      ],
      "transaction": {
        "from": "0xac0a4738d4b004f22f11d4bfd29c9c708f35caf0",
        "to": "0x0c15420ed49d344f719d755dfd595f0f657a133b",
        "gas": "0xfad1",
        "value": "0x0",
        "input": "0x095ea7b30000000000000000000000009b6b46e2c869aa39918db7f52f5557fe577b6eeeffffffffffffffffffffffffffffffffffffffffffffffffffffffffffffffff",
        "nonce": "0x227",
        "chainId": "0xaa36a7"
      },
      "additionalContracts": [],
      "isFixedGasLimit": false
    },
    {
      "hash": "0xf348c968fb50443d4a078efa623622957b6ee7678933778ada1decad8a99f0e7",
      "transactionType": "CALL",
      "contractName": "MockERC20",
      "contractAddress": "0xe3d92ea7e4c1444d0c9d59b748f1ad109b5a3c2e",
      "function": "mint(address,uint256)",
      "arguments": [
        "0xac0A4738d4B004F22F11D4BFd29C9c708F35caf0",
        "100000000000000000000"
      ],
      "transaction": {
        "from": "0xac0a4738d4b004f22f11d4bfd29c9c708f35caf0",
        "to": "0xe3d92ea7e4c1444d0c9d59b748f1ad109b5a3c2e",
        "gas": "0x17086",
        "value": "0x0",
        "input": "0x40c10f19000000000000000000000000ac0a4738d4b004f22f11d4bfd29c9c708f35caf00000000000000000000000000000000000000000000000056bc75e2d63100000",
        "nonce": "0x228",
        "chainId": "0xaa36a7"
      },
      "additionalContracts": [],
      "isFixedGasLimit": false
    },
    {
      "hash": "0x334b33615056b5b0853d2db7413e5c5ad8db0388f7b0c57e19ef304bcf4b2947",
      "transactionType": "CALL",
      "contractName": "MockERC20",
      "contractAddress": "0x0c15420ed49d344f719d755dfd595f0f657a133b",
      "function": "mint(address,uint256)",
      "arguments": [
        "0xac0A4738d4B004F22F11D4BFd29C9c708F35caf0",
        "100000000000000000000"
      ],
      "transaction": {
        "from": "0xac0a4738d4b004f22f11d4bfd29c9c708f35caf0",
        "to": "0x0c15420ed49d344f719d755dfd595f0f657a133b",
        "gas": "0x17086",
        "value": "0x0",
        "input": "0x40c10f19000000000000000000000000ac0a4738d4b004f22f11d4bfd29c9c708f35caf00000000000000000000000000000000000000000000000056bc75e2d63100000",
        "nonce": "0x229",
        "chainId": "0xaa36a7"
      },
      "additionalContracts": [],
      "isFixedGasLimit": false
    },
    {
      "hash": "0xd60ed8a4b01fe6be012b6421da2cbcf5f377c36976bc61d1064b195c7b9267d7",
      "transactionType": "CALL",
      "contractName": null,
      "contractAddress": "0xe03a1074c86cfedd5c142c4f04f1a1536e203543",
      "function": "initialize((address,address,uint24,int24,address),uint160)",
      "arguments": [
        "(0x0C15420eD49d344f719D755Dfd595F0f657a133B, 0xE3D92Ea7E4c1444D0C9D59b748F1Ad109B5a3c2e, 3000, 60, 0x67780610E6DB86FB1eCacAC3d233285D9e8Ec080)",
        "79228162514264337593543950336"
      ],
      "transaction": {
        "from": "0xac0a4738d4b004f22f11d4bfd29c9c708f35caf0",
        "to": "0xe03a1074c86cfedd5c142c4f04f1a1536e203543",
        "gas": "0x127b6",
        "value": "0x0",
        "input": "0x6276cbbe0000000000000000000000000c15420ed49d344f719d755dfd595f0f657a133b000000000000000000000000e3d92ea7e4c1444d0c9d59b748f1ad109b5a3c2e0000000000000000000000000000000000000000000000000000000000000bb8000000000000000000000000000000000000000000000000000000000000003c00000000000000000000000067780610e6db86fb1ecacac3d233285d9e8ec0800000000000000000000000000000000000000001000000000000000000000000",
        "nonce": "0x22a",
        "chainId": "0xaa36a7"
      },
      "additionalContracts": [],
      "isFixedGasLimit": false
    },
    {
      "hash": "0x7e2f53842429e6b000202fb9f917109a4255f22eaba0cc9874d08838647096a7",
      "transactionType": "CALL",
      "contractName": null,
      "contractAddress": "0x0c478023803a644c94c4ce1c1e7b9a087e411b0a",
      "function": "modifyLiquidity((address,address,uint24,int24,address),(int24,int24,int256,bytes32),bytes)",
      "arguments": [
        "(0x0C15420eD49d344f719D755Dfd595F0f657a133B, 0xE3D92Ea7E4c1444D0C9D59b748F1Ad109B5a3c2e, 3000, 60, 0x67780610E6DB86FB1eCacAC3d233285D9e8Ec080)",
        "(-120, 120, 10000000000000000000, 0x0000000000000000000000000000000000000000000000000000000000000000)",
        "0x"
      ],
      "transaction": {
        "from": "0xac0a4738d4b004f22f11d4bfd29c9c708f35caf0",
        "to": "0x0c478023803a644c94c4ce1c1e7b9a087e411b0a",
        "gas": "0x63028",
        "value": "0x0",
        "input": "0x5a6bcfda0000000000000000000000000c15420ed49d344f719d755dfd595f0f657a133b000000000000000000000000e3d92ea7e4c1444d0c9d59b748f1ad109b5a3c2e0000000000000000000000000000000000000000000000000000000000000bb8000000000000000000000000000000000000000000000000000000000000003c00000000000000000000000067780610e6db86fb1ecacac3d233285d9e8ec080ffffffffffffffffffffffffffffffffffffffffffffffffffffffffffffff8800000000000000000000000000000000000000000000000000000000000000780000000000000000000000000000000000000000000000008ac7230489e80000000000000000000000000000000000000000000000000000000000000000000000000000000000000000000000000000000000000000000000000000000001400000000000000000000000000000000000000000000000000000000000000000",
        "nonce": "0x22b",
        "chainId": "0xaa36a7"
      },
      "additionalContracts": [],
      "isFixedGasLimit": false
    }
  ],
  "receipts": [
    {
      "status": "0x1",
      "cumulativeGasUsed": "0xc21819",
      "logs": [],
      "logsBloom": "0x00000000000000000000000000000000000000000000000000000000000000000000000000000000000000000000000000000000000000000000000000000000000000000000000000000000000000000000000000000000000000000000000000000000000000000000000000000000000000000000000000000000000000000000000000000000000000000000000000000000000000000000000000000000000000000000000000000000000000000000000000000000000000000000000000000000000000000000000000000000000000000000000000000000000000000000000000000000000000000000000000000000000000000000000000000000",
      "type": "0x0",
      "transactionHash": "0x3aa64a9e9cc0b95948e6d4feea9212964187bc3c1471fe80ce36cda557a8d034",
      "transactionIndex": "0x4b",
      "blockHash": "0xe2e0fb185f47e22625b14946d845501667b2b8b47d869f358abe797723b65cde",
      "blockNumber": "0x950565",
      "gasUsed": "0xb99d0",
      "effectiveGasPrice": "0x100fd0",
      "from": "0xac0a4738d4b004f22f11d4bfd29c9c708f35caf0",
      "to": null,
      "contractAddress": "0xe3d92ea7e4c1444d0c9d59b748f1ad109b5a3c2e"
    },
    {
      "status": "0x1",
      "cumulativeGasUsed": "0xcf7913",
      "logs": [],
      "logsBloom": "0x00000000000000000000000000000000000000000000000000000000000000000000000000000000000000000000000000000000000000000000000000000000000000000000000000000000000000000000000000000000000000000000000000000000000000000000000000000000000000000000000000000000000000000000000000000000000000000000000000000000000000000000000000000000000000000000000000000000000000000000000000000000000000000000000000000000000000000000000000000000000000000000000000000000000000000000000000000000000000000000000000000000000000000000000000000000",
      "type": "0x0",
      "transactionHash": "0x187c94b248825b193ce68507ce98647147d5c258d50b9772823a38d977374c1c",
      "transactionIndex": "0x39",
      "blockHash": "0x603f163633f54ec70d1c169fd69cce8dd66e169bf60da2f54d2e100cb31e58a0",
      "blockNumber": "0x950566",
      "gasUsed": "0xb99d0",
      "effectiveGasPrice": "0x100fd0",
      "from": "0xac0a4738d4b004f22f11d4bfd29c9c708f35caf0",
      "to": null,
      "contractAddress": "0x0c15420ed49d344f719d755dfd595f0f657a133b"
    },
    {
      "status": "0x1",
      "cumulativeGasUsed": "0x56bd38",
      "logs": [
        {
          "address": "0xe3d92ea7e4c1444d0c9d59b748f1ad109b5a3c2e",
          "topics": [
            "0x8c5be1e5ebec7d5bd14f71427d1e84f3dd0314c0f7b2291e5b200ac8c7c3b925",
            "0x000000000000000000000000ac0a4738d4b004f22f11d4bfd29c9c708f35caf0",
            "0x0000000000000000000000000c478023803a644c94c4ce1c1e7b9a087e411b0a"
          ],
          "data": "0xffffffffffffffffffffffffffffffffffffffffffffffffffffffffffffffff",
          "blockHash": "0x5aa929cd90a91137655f4fcad984be40ffd575565437cef53bdae18faeb7fcbc",
          "blockNumber": "0x950567",
          "blockTimestamp": "0x69314d54",
          "transactionHash": "0x52f4c9970caa472ced86fd570dd4b900ebec568deb99cd57622f6cbd4a425569",
          "transactionIndex": "0x3b",
          "logIndex": "0x47",
          "removed": false
        }
      ],
      "logsBloom": "0x00000000000000000000000000000000000000000000000000000000000000000000000000000000000000000000000000000000000000000000000000200000000000000000000000000000000000000000000000000000000000000000000000000000000040000000000000000000000000000000000000000000000000000000000000000000000000000000040000000000000000000000000000000200020000000000000000000000000000004000000000000040000000000000000000000000000000000000000000001000000000000000000000000000000000000010000008000000000000200000000000000000000020000000000000000000",
      "type": "0x0",
      "transactionHash": "0x52f4c9970caa472ced86fd570dd4b900ebec568deb99cd57622f6cbd4a425569",
      "transactionIndex": "0x3b",
      "blockHash": "0x5aa929cd90a91137655f4fcad984be40ffd575565437cef53bdae18faeb7fcbc",
      "blockNumber": "0x950567",
      "gasUsed": "0xb597",
      "effectiveGasPrice": "0x100fd0",
      "from": "0xac0a4738d4b004f22f11d4bfd29c9c708f35caf0",
      "to": "0xe3d92ea7e4c1444d0c9d59b748f1ad109b5a3c2e",
      "contractAddress": null
    },
    {
      "status": "0x1",
      "cumulativeGasUsed": "0x110917b",
      "logs": [
        {
          "address": "0x0c15420ed49d344f719d755dfd595f0f657a133b",
          "topics": [
            "0x8c5be1e5ebec7d5bd14f71427d1e84f3dd0314c0f7b2291e5b200ac8c7c3b925",
            "0x000000000000000000000000ac0a4738d4b004f22f11d4bfd29c9c708f35caf0",
            "0x0000000000000000000000000c478023803a644c94c4ce1c1e7b9a087e411b0a"
          ],
          "data": "0xffffffffffffffffffffffffffffffffffffffffffffffffffffffffffffffff",
          "blockHash": "0xf42528ceda4d6f50156d925e2a72612e19557835191658aed83a0c35320835f6",
          "blockNumber": "0x950568",
          "blockTimestamp": "0x69314d60",
          "transactionHash": "0x5abf3409ca74b1223ce9f0534e54ef24cc9e690abb0505b08ccf1aebfb8fead5",
          "transactionIndex": "0x50",
          "logIndex": "0xb4",
          "removed": false
        }
      ],
      "logsBloom": "0x00000000000000000000000000000000000000000000000000000000000000000000000000000000000000000000000000000000000000000000000000200000000000000000002000000000000000000000000000000000000000000000000000000000000000000000000000000000000000000000000000000000000000000000000000000000000000000000040000000100000000000000000000000200020000000000000000000000000000004000000000000040000000000000000000040000000000000000000000001000000000000000000000000000000000000010000000000000000000000000000000000000000020000000000000000000",
      "type": "0x0",
      "transactionHash": "0x5abf3409ca74b1223ce9f0534e54ef24cc9e690abb0505b08ccf1aebfb8fead5",
      "transactionIndex": "0x50",
      "blockHash": "0xf42528ceda4d6f50156d925e2a72612e19557835191658aed83a0c35320835f6",
      "blockNumber": "0x950568",
      "gasUsed": "0xb597",
      "effectiveGasPrice": "0x100fd0",
      "from": "0xac0a4738d4b004f22f11d4bfd29c9c708f35caf0",
      "to": "0x0c15420ed49d344f719d755dfd595f0f657a133b",
      "contractAddress": null
    },
    {
      "status": "0x1",
      "cumulativeGasUsed": "0x80610e",
      "logs": [
        {
          "address": "0xe3d92ea7e4c1444d0c9d59b748f1ad109b5a3c2e",
          "topics": [
            "0x8c5be1e5ebec7d5bd14f71427d1e84f3dd0314c0f7b2291e5b200ac8c7c3b925",
            "0x000000000000000000000000ac0a4738d4b004f22f11d4bfd29c9c708f35caf0",
            "0x0000000000000000000000009b6b46e2c869aa39918db7f52f5557fe577b6eee"
          ],
          "data": "0xffffffffffffffffffffffffffffffffffffffffffffffffffffffffffffffff",
          "blockHash": "0x00f75368c732499b6b3a637e1283704149f5d94693928ec2b608a8834601a196",
          "blockNumber": "0x950569",
          "blockTimestamp": "0x69314d6c",
          "transactionHash": "0x730a0291a4a2b901c9edc44e7d7a343b9723982874929b4e0234621967d89d53",
          "transactionIndex": "0x9e",
          "logIndex": "0x83",
          "removed": false
        }
      ],
      "logsBloom": "0x00000000000000000000000000000000000000000000000000000000000000000200000000000000000000000000000000000000000000000000000008200000000000000000000000000000000000000000000000000000000000000000000000000000000040000000000000000000000000000000000000000000000000000000000000000000000000000000000000000000000000000000000000000200020000000000000000000000000000004000000000000000000000000000000000000000000000000000000000000000000000000000000800000000000000000010000008000000000000200000000000000000000020000000000000000000",
      "type": "0x0",
      "transactionHash": "0x730a0291a4a2b901c9edc44e7d7a343b9723982874929b4e0234621967d89d53",
      "transactionIndex": "0x9e",
      "blockHash": "0x00f75368c732499b6b3a637e1283704149f5d94693928ec2b608a8834601a196",
      "blockNumber": "0x950569",
      "gasUsed": "0xb597",
      "effectiveGasPrice": "0x100fd0",
      "from": "0xac0a4738d4b004f22f11d4bfd29c9c708f35caf0",
      "to": "0xe3d92ea7e4c1444d0c9d59b748f1ad109b5a3c2e",
      "contractAddress": null
    },
    {
      "status": "0x1",
      "cumulativeGasUsed": "0xdf9ad7",
      "logs": [
        {
          "address": "0x0c15420ed49d344f719d755dfd595f0f657a133b",
          "topics": [
            "0x8c5be1e5ebec7d5bd14f71427d1e84f3dd0314c0f7b2291e5b200ac8c7c3b925",
            "0x000000000000000000000000ac0a4738d4b004f22f11d4bfd29c9c708f35caf0",
            "0x0000000000000000000000009b6b46e2c869aa39918db7f52f5557fe577b6eee"
          ],
          "data": "0xffffffffffffffffffffffffffffffffffffffffffffffffffffffffffffffff",
          "blockHash": "0x3839e59cfb2a153bc580aae22da64fed0db99cac6359593e224d7364b83fc701",
          "blockNumber": "0x95056a",
          "blockTimestamp": "0x69314d78",
          "transactionHash": "0x53716b93e138df7b1a83de0a6c31f54acf4c6662ba2e00c98205334ebc362a87",
          "transactionIndex": "0x70",
          "logIndex": "0x83",
          "removed": false
        }
      ],
      "logsBloom": "0x00000000000000000000000000000000000000000000000000000000000000000200000000000000000000000000000000000000000000000000000008200000000000000000002000000000000000000000000000000000000000000000000000000000000000000000000000000000000000000000000000000000000000000000000000000000000000000000000000000100000000000000000000000200020000000000000000000000000000004000000000000000000000000000000000040000000000000000000000000000000000000000000800000000000000000010000000000000000000000000000000000000000020000000000000000000",
      "type": "0x0",
      "transactionHash": "0x53716b93e138df7b1a83de0a6c31f54acf4c6662ba2e00c98205334ebc362a87",
      "transactionIndex": "0x70",
      "blockHash": "0x3839e59cfb2a153bc580aae22da64fed0db99cac6359593e224d7364b83fc701",
      "blockNumber": "0x95056a",
      "gasUsed": "0xb597",
      "effectiveGasPrice": "0x100fd0",
      "from": "0xac0a4738d4b004f22f11d4bfd29c9c708f35caf0",
      "to": "0x0c15420ed49d344f719d755dfd595f0f657a133b",
      "contractAddress": null
    },
    {
      "status": "0x1",
      "cumulativeGasUsed": "0xfb28dc",
      "logs": [
        {
          "address": "0xe3d92ea7e4c1444d0c9d59b748f1ad109b5a3c2e",
          "topics": [
            "0xddf252ad1be2c89b69c2b068fc378daa952ba7f163c4a11628f55a4df523b3ef",
            "0x0000000000000000000000000000000000000000000000000000000000000000",
            "0x000000000000000000000000ac0a4738d4b004f22f11d4bfd29c9c708f35caf0"
          ],
          "data": "0x0000000000000000000000000000000000000000000000056bc75e2d63100000",
          "blockHash": "0xcbcf4cc5ae85fe39458501c9176bfa49c2f74eca03bbba6a8acbf0cca61bdce4",
          "blockNumber": "0x95056b",
          "blockTimestamp": "0x69314d84",
          "transactionHash": "0xf348c968fb50443d4a078efa623622957b6ee7678933778ada1decad8a99f0e7",
          "transactionIndex": "0x61",
          "logIndex": "0xfa",
          "removed": false
        }
      ],
      "logsBloom": "0x00000000000000000000000000000000000000000000000000000000000000000000000000000000000000000000000000000000000000000000000000000000000000000000000000000008000000000000000000000000000000000000000000000000020040000000000000000800000000000000000000000010000000000000000000000000000000000000000000000000000000000000000000000200000000000000000000000000000000004000000000000000000000000000000000000002000000000000000000000000000000000000000000000000000020000000000008000000000000200000000000000000000020000000000000000000",
      "type": "0x0",
      "transactionHash": "0xf348c968fb50443d4a078efa623622957b6ee7678933778ada1decad8a99f0e7",
      "transactionIndex": "0x61",
      "blockHash": "0xcbcf4cc5ae85fe39458501c9176bfa49c2f74eca03bbba6a8acbf0cca61bdce4",
      "blockNumber": "0x95056b",
      "gasUsed": "0x10acf",
      "effectiveGasPrice": "0x100fd0",
      "from": "0xac0a4738d4b004f22f11d4bfd29c9c708f35caf0",
      "to": "0xe3d92ea7e4c1444d0c9d59b748f1ad109b5a3c2e",
      "contractAddress": null
    },
    {
      "status": "0x1",
      "cumulativeGasUsed": "0xbb3ee1",
      "logs": [
        {
          "address": "0x0c15420ed49d344f719d755dfd595f0f657a133b",
          "topics": [
            "0xddf252ad1be2c89b69c2b068fc378daa952ba7f163c4a11628f55a4df523b3ef",
            "0x0000000000000000000000000000000000000000000000000000000000000000",
            "0x000000000000000000000000ac0a4738d4b004f22f11d4bfd29c9c708f35caf0"
          ],
          "data": "0x0000000000000000000000000000000000000000000000056bc75e2d63100000",
          "blockHash": "0xabf02cf8451c805c22004f85fd9e49a1252811103e3928a3def83c1bb2ef36b3",
          "blockNumber": "0x95056c",
          "blockTimestamp": "0x69314d90",
          "transactionHash": "0x334b33615056b5b0853d2db7413e5c5ad8db0388f7b0c57e19ef304bcf4b2947",
          "transactionIndex": "0x44",
          "logIndex": "0xc1",
          "removed": false
        }
      ],
      "logsBloom": "0x00000000000000000000000000000000000000000000000000000000000000000000000000000000000000000000000000000000000000000000000000000000000000000000002000000008000000000000000000000000000000000000000000000000020000000000000000000800000000000000000000000010000000000000000000000000000000000000000000000100000000000000000000000200000000000000000000000000000000004000000000000000000000000000000000040002000000000000000000000000000000000000000000000000000020000000000000000000000000000000000000000000000020000000000000000000",
      "type": "0x0",
      "transactionHash": "0x334b33615056b5b0853d2db7413e5c5ad8db0388f7b0c57e19ef304bcf4b2947",
      "transactionIndex": "0x44",
      "blockHash": "0xabf02cf8451c805c22004f85fd9e49a1252811103e3928a3def83c1bb2ef36b3",
      "blockNumber": "0x95056c",
      "gasUsed": "0x10acf",
      "effectiveGasPrice": "0x100fd0",
      "from": "0xac0a4738d4b004f22f11d4bfd29c9c708f35caf0",
      "to": "0x0c15420ed49d344f719d755dfd595f0f657a133b",
      "contractAddress": null
    },
    {
      "status": "0x1",
      "cumulativeGasUsed": "0x195859f",
      "logs": [
        {
          "address": "0xe03a1074c86cfedd5c142c4f04f1a1536e203543",
          "topics": [
            "0xdd466e674ea557f56295e2d0218a125ea4b4f0f6f3307b95f85e6110838d6438",
            "0x5d12de57941f5f80739db58520b6eb1fb9ea4ce949ca9a40b4eea154a262bc88",
            "0x0000000000000000000000000c15420ed49d344f719d755dfd595f0f657a133b",
            "0x000000000000000000000000e3d92ea7e4c1444d0c9d59b748f1ad109b5a3c2e"
          ],
          "data": "0x0000000000000000000000000000000000000000000000000000000000000bb8000000000000000000000000000000000000000000000000000000000000003c00000000000000000000000067780610e6db86fb1ecacac3d233285d9e8ec08000000000000000000000000000000000000000010000000000000000000000000000000000000000000000000000000000000000000000000000000000000000",
          "blockHash": "0x726775717396f8da349cd8d3eb1c8420de6d49d89af9abf38ae7ac3f67ef3627",
          "blockNumber": "0x95056d",
          "blockTimestamp": "0x69314d9c",
          "transactionHash": "0xd60ed8a4b01fe6be012b6421da2cbcf5f377c36976bc61d1064b195c7b9267d7",
          "transactionIndex": "0x84",
          "logIndex": "0x1fe",
          "removed": false
        }
      ],
      "logsBloom": "0x00000000000000000000000000000000000000000000000000000000000010000000000000000000000000000000000000000100000000000000000000000000000000000000000000000000000000000000000000000000000000000800000000000000000800000000000000000000000000000000100000000400000000000000000000000008000000000000000000000001000000000000000002200000000000000000000000050002000000000000000000000000000000000000000000000000000000000000000000000000000000000000000000000000000000001000000000000000000000000000000000000000000200000000000000000000",
      "type": "0x0",
      "transactionHash": "0xd60ed8a4b01fe6be012b6421da2cbcf5f377c36976bc61d1064b195c7b9267d7",
      "transactionIndex": "0x84",
      "blockHash": "0x726775717396f8da349cd8d3eb1c8420de6d49d89af9abf38ae7ac3f67ef3627",
      "blockNumber": "0x95056d",
      "gasUsed": "0xca33",
      "effectiveGasPrice": "0x100fd0",
      "from": "0xac0a4738d4b004f22f11d4bfd29c9c708f35caf0",
      "to": "0xe03a1074c86cfedd5c142c4f04f1a1536e203543",
      "contractAddress": null
    },
    {
      "status": "0x1",
      "cumulativeGasUsed": "0x19f3b6d",
      "logs": [
        {
          "address": "0xe03a1074c86cfedd5c142c4f04f1a1536e203543",
          "topics": [
            "0xf208f4912782fd25c7f114ca3723a2d5dd6f3bcc3ac8db5af63baa85f711d5ec",
            "0x5d12de57941f5f80739db58520b6eb1fb9ea4ce949ca9a40b4eea154a262bc88",
            "0x0000000000000000000000000c478023803a644c94c4ce1c1e7b9a087e411b0a"
          ],
          "data": "0xffffffffffffffffffffffffffffffffffffffffffffffffffffffffffffff8800000000000000000000000000000000000000000000000000000000000000780000000000000000000000000000000000000000000000008ac7230489e800000000000000000000000000000000000000000000000000000000000000000000",
          "blockHash": "0x63149b7d2e018ccdb71600aa88eb1995a44f0cdb82a12ed533a82e087f40e089",
          "blockNumber": "0x95056f",
          "blockTimestamp": "0x69314db4",
          "transactionHash": "0x7e2f53842429e6b000202fb9f917109a4255f22eaba0cc9874d08838647096a7",
          "transactionIndex": "0x6a",
          "logIndex": "0x278",
          "removed": false
        },
        {
          "address": "0x0c15420ed49d344f719d755dfd595f0f657a133b",
          "topics": [
            "0xddf252ad1be2c89b69c2b068fc378daa952ba7f163c4a11628f55a4df523b3ef",
            "0x000000000000000000000000ac0a4738d4b004f22f11d4bfd29c9c708f35caf0",
            "0x000000000000000000000000e03a1074c86cfedd5c142c4f04f1a1536e203543"
          ],
          "data": "0x00000000000000000000000000000000000000000000000000d48396878c14b2",
          "blockHash": "0x63149b7d2e018ccdb71600aa88eb1995a44f0cdb82a12ed533a82e087f40e089",
          "blockNumber": "0x95056f",
          "blockTimestamp": "0x69314db4",
          "transactionHash": "0x7e2f53842429e6b000202fb9f917109a4255f22eaba0cc9874d08838647096a7",
          "transactionIndex": "0x6a",
          "logIndex": "0x279",
          "removed": false
        },
        {
          "address": "0xe3d92ea7e4c1444d0c9d59b748f1ad109b5a3c2e",
          "topics": [
            "0xddf252ad1be2c89b69c2b068fc378daa952ba7f163c4a11628f55a4df523b3ef",
            "0x000000000000000000000000ac0a4738d4b004f22f11d4bfd29c9c708f35caf0",
            "0x000000000000000000000000e03a1074c86cfedd5c142c4f04f1a1536e203543"
          ],
          "data": "0x00000000000000000000000000000000000000000000000000d48396878c14b2",
          "blockHash": "0x63149b7d2e018ccdb71600aa88eb1995a44f0cdb82a12ed533a82e087f40e089",
          "blockNumber": "0x95056f",
          "blockTimestamp": "0x69314db4",
          "transactionHash": "0x7e2f53842429e6b000202fb9f917109a4255f22eaba0cc9874d08838647096a7",
          "transactionIndex": "0x6a",
          "logIndex": "0x27a",
          "removed": false
        }
      ],
      "logsBloom": "0x00000000000000000000000000000000000000000000000000000000000000000000000000000000000000000000000000000100000000000000000000000000000000000000002000000008000000000000000000000000000000000800000000000000000840000000000080000000000000000000100000000010000000000000000001000000000010000000040000000100000000000000000000000200000004000000000000040000000000004000000000000040000000000000000000040002000000000000000000001000000000000000000000001000000000001000000008000000000000200000000004000000000020000000000000000000",
      "type": "0x0",
      "transactionHash": "0x7e2f53842429e6b000202fb9f917109a4255f22eaba0cc9874d08838647096a7",
      "transactionIndex": "0x6a",
      "blockHash": "0x63149b7d2e018ccdb71600aa88eb1995a44f0cdb82a12ed533a82e087f40e089",
      "blockNumber": "0x95056f",
      "gasUsed": "0x47ae7",
      "effectiveGasPrice": "0x100fd0",
      "from": "0xac0a4738d4b004f22f11d4bfd29c9c708f35caf0",
      "to": "0x0c478023803a644c94c4ce1c1e7b9a087e411b0a",
      "contractAddress": null
    }
  ],
  "libraries": [],
  "pending": [],
  "returns": {},
  "timestamp": 1764838837568,
  "chain": 11155111,
  "commit": "6e4203f"
}